:100000000C94E6020C940E030C940E030C940E0355
:100010000C940E030C940E030C940E030C940E031C
:100020000C940E030C940E030C940E030C940E030C
:100030000C940E030C940E030C940E030C940E03FC
:100040000C9434190C940E030C947C140C945614D8
:100050000C940E030C940E030C940E030C940E03DC
:100060000C94AE140C940E03D909DB09E809EA09D3
:10007000EC09F209F809020A00000000003E5B4F9B
:100080005B3E3E6B4F6B3E1C3E7C3E1C183C7E3CF8
:10009000181C577D571C1C5E7F5E1C00183C180006
:1000A000FFE7C3E7FF0018241800FFE7DBE7FF3096
:1000B000483A060E2629792926407F050507407F04
:1000C00005253F5A3CE73C5A7F3E1C1C08081C1C77
:1000D0003E7F14227F22145F5F005F5F06097F016D
:1000E0007F006689956A606060606094A2FFA29458
:1000F00008047E040810207E201008082A1C080826
:100100001C2A08081E101010100C1E0C1E0C303873
:100110003E3830060E3E0E06000000000000005F74
:1001200000000007000700147F147F14242A7F2A90
:100130001223130864623649562050000807030052
:10014000001C2241000041221C002A1C7F1C2A089E
:10015000083E080800807030000808080808000001
:1001600060600020100804023E5149453E00427F75
:10017000400072494949462141494D331814127FC4
:100180001027454545393C4A494931412111090764
:100190003649494936464949291E000014000000E5
:1001A00040340000000814224114141414140041B7
:1001B00022140802015909063E415D594E7C121174
:1001C000127C7F494949363E414141227F414141AC
:1001D0003E7F494949417F090909013E4141517327
:1001E0007F0808087F00417F41002040413F017F98
:1001F000081422417F404040407F021C027F7F0460
:1002000008107F3E4141413E7F090909063E4151A8
:10021000215E7F09192946264949493203017F0198
:10022000033F4040403F1F2040201F3F4038403F99
:10023000631408146303047804036159494D4300AF
:100240007F4141410204081020004141417F0402E6
:10025000010204404040404000030708002054547D
:1002600078407F284444383844444428384444285B
:100270007F385454541800087E090218A4A49C78AE
:100280007F0804047800447D40002040403D007F0A
:100290001028440000417F40007C047804787C08EA
:1002A0000404783844444438FC18242418182424BE
:1002B00018FC7C08040408485454542404043F44A3
:1002C000243C4040207C1C2040201C3C4030403CD2
:1002D00044281028444C9090907C4464544C440032
:1002E0000836410000007700000041360800020196
:1002F0000204023C2623263C1EA1A161123A404082
:10030000207A3854545559215555794122545478FE
:1003100042215554784020545579400C1E52721297
:100320003955555559395454545939555454580020
:1003300000457C410002457D420001457C407D1224
:1003400011127DF0282528F07C5455450020545486
:100350007C547C0A097F4932494949323A44444431
:100360003A324A4848303A4141217A3A424020786C
:10037000009DA0A07D3D4242423D3D4040403D3C6D
:1003800024FF2424487E4943662B2FFC2F2BFF0992
:1003900029F620C0887E0903205454794100004486
:1003A0007D413048484A32384040227A007A0A0A71
:1003B000727D0D19317D2629292F282629292926E4
:1003C00030484D4020380808080808080808382F29
:1003D00010C8ACBA2F102834FA00007B00000814B3
:1003E0002A142222142A14085500550055AA55AA89
:1003F00055AAFF55FF55FF000000FF00101010FF29
:1004000000141414FF001010FF00FF1010F010F083
:10041000141414FC001414F700FF0000FF00FF1474
:1004200014F404FC141417101F10101F101F1414C0
:10043000141F00101010F0000000001F101010100A
:100440001F10101010F010000000FF1010101010FE
:1004500010101010FF10000000FF140000FF00FF3C
:1004600000001F10170000FC04F4141417101714D8
:1004700014F404F40000FF00F714141414141414FA
:10048000F700F7141414171410101F101F1414146D
:10049000F4141010F010F000001F101F0000001FD7
:1004A00014000000FC140000F010F01010FF10FF0A
:1004B000141414FF141010101F00000000F010FF9F
:1004C000FFFFFFFFF0F0F0F0F0FFFFFF0000000083
:1004D00000FFFF0F0F0F0F0F3844443844FC4A4A07
:1004E0004A347E02020606027E027E0263554941BC
:1004F000633844443C04407E201E2006027E0202F3
:1005000099A5E7A5991C2A492A1C4C7201724C3006
:100510004A4D4D303048784830BC625A463D3E49DD
:100520004949007E0101017E2A2A2A2A2A44445F81
:10053000444440514A444040444A51400000FF0175
:1005400003E080FF000008086B6B08361236243683
:10055000060F090F060000181800000010100030E8
:1005600040FF0101001F01011E00191D1712003C70
:100570003C3C3C000000000000000000240027007C
:100580002A0000000000250028002B0004040404B9
:10059000040404040202020202020303030303032D
:1005A000010204081020408001020408102001020A
:1005B00004081020000000080002010000030407E6
:1005C00000000000000000004D2C4C2C11241FBE28
:1005D000CFEFD8E0DEBFCDBF13E0A0E0B1E0EAE8A6
:1005E000F1E602C005900D92AA3AB107D9F725E0CD
:1005F000AAEAB3E001C01D92AB36B207E1F712E000
:10060000C5EED2E004C02197FE010E94432FC43EF4
:10061000D107C9F70E94C71A0C94B8300C94000097
:100620000F931F93DC01ED91FC91068CF78DE02D6B
:1006300009951F910F9108950F931F93DC01ED9180
:10064000FC91048CF58DE02D09951F910F91089573
:10065000DC01ED91FC910084F185E02D0994089571
:100660002F923F924F925F926F927F928F929F92C2
:10067000AF92BF92CF92DF92EF92FF920F931F93B0
:10068000CF93DF9300D01F92CDB7DEB74C017B83B1
:100690006A836A01590117019801241B350B37FF42
:1006A00003C0319521953109C5014A815B81841BC5
:1006B000950B97FF03C091958195910951E059835E
:1006C0008217930714F019820BC09A2D8B2D5801B5
:1006D000092F182F9A818B81DB82CA82C92ED82ECE
:1006E0008A819B81A816B9065CF49C2D8D2D68012A
:1006F000092F182F9A818B81BB82AA82A92EB82E2E
:100700002501AA81BB814A1A5B0A38016C187D0851
:1007100077FE03C0719461947108720157FE03C0A3
:10072000BFEFEB1AFB0AF594E794C016D1061CF054
:100730000FEF1FEF1FC001E010E01CC0D401ED91CE
:10074000FC91B9810484F585E02D9101BB23C1F0B2
:100750004A815B81B601C4010995E618F708F7FEE6
:1007600004C0C00ED11EE40CF51CEA81FB81319659
:10077000FB83EA834A815B81A416B506FCF604C0BC
:10078000A6016A817B81E7CF0F900F900F90DF91D8
:10079000CF911F910F91FF90EF90DF90CF90BF907E
:1007A000AF909F908F907F906F905F904F903F9011
:1007B0002F900895EF92FF920F931F93DC01ED911C
:1007C000FC9111971A960D911C911B9718962D91DB
:1007D0003C91199700A0F1A1E02D7B0140E050E091
:1007E00060E070E009951F910F91FF90EF900895E0
:1007F000FC01838D811122C028E030E090E8A48DB7
:10080000B58D84A5492F462319F04C91842B03C044
:100810004C91809584238C93A68DB78D4C9185A5A2
:10082000842B8C93A68DB78D4C9185A580958423C0
:100830008C9396952150310911F708956EBD0DB432
:1008400007FEFDCF0895089580E090E00895FC0133
:100850006583089508950F931F93CF93DF938C01C1
:10086000EB0188E2FB0111928A95E9F74BE050E039
:1008700063E272E0CE010E94A9301B8681E090E025
:10088000A0E0B0E08C879D87AE87BF87F8018285A6
:100890009385A485B585888B998BAA8BBB8B85E0C6
:1008A00090E0A0E0B0E08C8B9D8BAE8BBF8B1CA248
:1008B0001DA21EA21FA280E090EDA4E8B6E4888FDE
:1008C000998FAA8FBB8F1C8E1D8E1E8E1F8E80E06F
:1008D00090E0A0E8BFE388A399A3AAA3BBA3DF91FC
:1008E000CF911F910F910895CF93DF93EC018B81EE
:1008F00091E090935B0480937D0410925C041092CD
:100900007E048CE195E00E94450F81E00E947C17F7
:100910008B8162E070E0082E000C990B0E94D917C1
:100920008CE195E00E94F90EEC018CE195E00E94CB
:10093000F90E20E030E0382FC9018C2B9D2BDF9180
:10094000CF910895CF93DF931F92CDB7DEB7FC010F
:10095000838191E090935B0480937D0410925C040A
:1009600010927E048CE195E029830E94450F298135
:10097000622F8CE195E00E94450F81E00F90DF919E
:10098000CF910C947C1720E030E0A90160E80C9432
:10099000A2040F931F93CF93DF93EC0110921304E3
:1009A0001092120410925C0410927E0410925A0469
:1009B00011E0109359041092340461E082E10E9426
:1009C000241861E083E10E9424188091B9008E7F91
:1009D0008093B9008091B9008D7F8093B90088E43D
:1009E0008093B80085E48093BC008B8110935B04F6
:1009F00080937D0410925C0410927E046AE08CE186
:100A000095E00E94450F81E00E947C178B8161E098
:100A100070E0082E000C990B0E94D9178CE195E02C
:100A20000E94F90E8A7031F11C830E811F8123E030
:100A300030E040E050E060E8CE010E94A20428854A
:100A40003985202B312B032E000C440B550B61E80C
:100A5000CE010E94A2041F830E83CE010E94C30414
:100A600068857985CE010E944005CE010E94C304AD
:100A700081E001C080E0DF91CF911F910F91089537
:100A80000F931F93CF93DF93EC018B018C81811126
:100A900003C0CE010E94C90423E030E040E050E0F2
:100AA00060E8CE010E94A2042E813F81202B312BD1
:100AB000032E000C440B550B61E8CE010E94A204EA
:100AC00019870887CE01DF91CF911F910F910C9468
:100AD000C304EF92FF920F931F93CF93DF93EC0128
:100AE0007B018A0123E030E040E050E060E80E94B2
:100AF000A2048E819F81009739F0019751F468E735
:100B000070E080E090E009C06FE070E080E090E08D
:100B100004C062EC71E080E090E00E94C3186CEACF
:100B2000CE010E947404F701918380836EEACE01A6
:100B30000E947404F80191838083CE01DF91CF91EC
:100B40001F910F91FF90EF900C94C3044F925F920E
:100B50006F927F928F929F92AF92BF92CF92DF92CD
:100B6000EF92FF920F931F93CF93DF93CDB7DEB732
:100B700029970FB6F894DEBF0FBECDBF8C017B0165
:100B800084E2FB0111928A95E9F784E290E0A0E00B
:100B9000B0E0FB0180839183A283B383F801828557
:100BA0009385A485B585FB0184839583A683B7834C
:100BB00085E090E0A0E0B0E080879187A287B387CE
:100BC0000E94FD18F701608B718B828B938BF8016B
:100BD0008481811103C0C8010E94C904F801858184
:100BE00081110AC0AE014B5F5F4FBE01695F7F4F4D
:100BF000C8010E94690559C020E0F80186819781EB
:100C0000009799F0019741F478EC872E912CE0EA57
:100C1000AE2EECE8BE2E10C054EF852E992493948E
:100C200068E1A62E66EFB62E07C034E6832E912C1F
:100C300042EFA42E42E1B42EAE014F5F5F4FBE01E2
:100C40006D5F7F4FC80129870E9469058B819C8158
:100C50002985211124C08815990540F4F8012085C3
:100C60003185232BE1F460E170E00BC0A816B906D2
:100C7000B0F4F801208531852031310581F460E040
:100C800070E0C8010E944005AE014F5F5F4FBE019A
:100C90006D5F7F4FC8010E94690521E0AECF988744
:100CA0008F8389819A819E838D83CD80DE80AF8101
:100CB000B885F80186819781009749F081309105C8
:100CC00019F428E830E905C028EE3DEF02C024E21F
:100CD00033E12A173B0708F4CBC02C153D0508F477
:100CE000C7C0009779F0019739F497EE492E9FE03D
:100CF000592E612C712C0CC0412C84E0582E612C93
:100D0000712C06C0F7E14F2EF5E75F2E612C712C98
:100D1000F80180859185892B39F4E4E0440C551C59
:100D2000661C771CEA95D1F7A30192010E94492F16
:100D30004B015C016AE0B694A794979487946A95F6
:100D4000D1F7D6010E94492F2B013C017AE076941D
:100D50006794579447947A95D1F781149104A1042C
:100D6000B10471F0C301B2014AE0660F771F881F1A
:100D7000991F4A95D1F7A50194010E94212F03C024
:100D800020E030E0A901DA01C9010196A11DB11DE1
:100D9000B695A7959795879581349105A105B105DD
:100DA00030F181389105A105B10530F1813C910503
:100DB000A105B10530F18130F1E09F07A105B10532
:100DC00028F1893321E09207A105B10520F18B3983
:100DD00031E09307A105B10518F18B399240A105C7
:100DE000B10518F1E0E0F0E0A0E0B0E022C0EEEBE9
:100DF000F1E0A2EFB1E01DC0E1EDF2E0A4E1B2E06C
:100E000018C0EBE7F3E0AFE3B2E013C0EEEFF3E0BE
:100E1000A0E7B2E00EC0ECEFF1E0AFE6B1E009C050
:100E2000EBEFF0E0A2EDB0E004C0E2E1F0E0A8E119
:100E3000B0E0A50194010E94492F4B015C0150E2F2
:100E4000950EA11CB11CDF01A30192010E94492F44
:100E5000A5019401261B370B480B590BCA01B90198
:100E60002EE096958795779567952A95D1F703C0DB
:100E700060E070E0CB010E94E42DF701648B758B7C
:100E8000868B978B81E029960FB6F894DEBF0FBE54
:100E9000CDBFDF91CF911F910F91FF90EF90DF9029
:100EA000CF90BF90AF909F908F907F906F905F900A
:100EB0004F9008950C940C30CF93DF93EC01E8A190
:100EC000F9A190818FA5892B8083EE8DFF8D908174
:100ED0008DA5809589238083ECA1FDA190818EA5AD
:100EE000809589238083CE010E94F803ECA1FDA1A7
:100EF00090818EA5892B8083DF91CF910895CF9328
:100F0000DF93EC01E8A1F9A190818FA58095892359
:100F10008083EE8DFF8D90818DA5809589238083C0
:100F2000ECA1FDA190818EA5809589238083CE01BF
:100F30000E94F803ECA1FDA190818EA5892B8083EE
:100F4000DF91CF910895611102C060E201C061E2BA
:100F50000C947F071F93CF93DF93EC01162F66E36A
:100F60000E947F07612F63706D8B623041F06330A8
:100F700089F0613011F068E403C068E20CC068E8F1
:100F8000CE010E945C0780EF90E09987888780E41B
:100F900091E00AC068EECE010E945C0780E491E017
:100FA0009987888780EF90E09B878A87DF91CF9130
:100FB0001F910895CF92DF92FF920F931F93CF93CB
:100FC000DF9300D000D01F92CDB7DEB76C01F62EB4
:100FD0006AE22B833A834D835C8379830E947F0787
:100FE0007981672FC6010E945C076F2DC6010E94A0
:100FF0005C073A81632FC6010E945C072B81622F38
:10100000C6010E945C076BE2C6010E947F075C81FB
:10101000652FC6010E945C074D81642FC6010E94A6
:101020005C07612FC6010E945C07602FC6010E9409
:101030005C076CE2C6010F900F900F900F900F901D
:10104000DF91CF911F910F91FF90DF90CF900C9483
:101050007F07AF92BF92CF92DF92EF92FF920F93F2
:101060001F93CF93DF93EC015901680128853985DF
:10107000621773070CF04EC08A859B854817590785
:101080000CF048C0FB01EA0DFB1D2E173F071CF4B6
:101090005901A61AB70A9A012C0D3D1D8217930714
:1010A0001CF46C01C41AD50A8A010C0D1D1D0150D7
:1010B00011099B012A0D3B1D21503109CE010E94CF
:1010C000DA07E8A1F9A190818FA5892B8083ECA193
:1010D000FDA190818EA58095892380831C141D0419
:1010E0009CF48501101611065CF46F2DCE010E9450
:1010F000F8036E2DCE010E94F80301501109F2CFC2
:1011000081E0C81AD108EACFECA1FDA190818EA59B
:10111000892B8083DF91CF911F910F91FF90EF90EA
:10112000DF90CF90BF90AF900895CF92DF92EF9273
:10113000FF920F931F93CF93DF93EC017901D02E91
:10114000C12E8885998568177907CCF52A853B8556
:1011500042175307A4F59B012E0D3F1D82179307DD
:101160001CF47C01E61AF70A9B012E0D3F1D21504D
:1011700031098A01CE010E94DA07E8A1F9A1908124
:101180008FA5892B8083ECA1FDA190818EA58095F0
:1011900089238083E114F10461F06C2DCE010E945B
:1011A000F8036D2DCE010E94F80381E0E81AF108E2
:1011B000F1CFECA1FDA190818EA5892B8083DF91D9
:1011C000CF911F910F91FF90EF90DF90CF900895F6
:1011D000CF92DF92EF92FF920F931F93CF93DF9303
:1011E000EC017901D02EC12E888599856817790781
:1011F000CCF58A859B8548175907A4F59A012E0DD1
:101200003F1D821793071CF47C01E41AF50A8A013A
:101210000E0D1F1D015011099B01CE010E94DA071E
:10122000E8A1F9A190818FA5892B8083ECA1FDA174
:1012300090818EA5809589238083E114F10461F06B
:101240006C2DCE010E94F8036D2DCE010E94F80393
:1012500081E0E81AF108F1CFECA1FDA190818EA503
:10126000892B8083DF91CF911F910F91FF90EF9099
:10127000DF90CF900895EF92FF920F931F93CF933B
:10128000DF93EC0177FD32C088859985681779076F
:101290006CF557FD2BC08A859B854817590734F597
:1012A000E32EF22E8A010F5F1F4F9B012F5F3F4FEE
:1012B000CE010E94DA07E8A1F9A190818FA5892BC0
:1012C0008083ECA1FDA190818EA5809589238083E8
:1012D0006E2DCE010E94F8036F2DCE010E94F803FF
:1012E000ECA1FDA190818EA5892B8083DF91CF9108
:1012F0001F910F91FF90EF9008950F931F93CF933D
:10130000DF93EC0160E089E00E942418AE01477091
:10131000552793E0440F551F9A95E1F7406C4EBD59
:1013200000000DB407FEFDCF8EB58170182F110F90
:1013300000E01EBC00000DB407FEFDCF9EB5292FB6
:1013400030E0220F331F1EBC00000DB407FEFDCF9E
:101350008EB5881F8827881F282B022B132B61E04E
:1013600089E00E9424186BE272E08FE794E00E940B
:10137000C51ABE018FE794E00E94371669E372E058
:101380008FE794E00E94C51A6DE372E08FE794E066
:101390000E94C51AC801DF91CF911F910F91089546
:1013A000089588309105D0F5FC01EC5CFF4F0C945A
:1013B000432F60E001C061E087E00E94241860E0F4
:1013C00086E00E94241860E085E00E9424180895B9
:1013D00060E003C060E007C061E087E00E9424187D
:1013E00061E0EECF61E087E00E94241860E005C074
:1013F00060E087E00E94241861E086E00E942418E3
:1014000061E0E2CF61E087E00E94241861E086E0BD
:101410000E94241861E085E00E94241808958F92AC
:101420009F92AF92BF92CF92DF92EF92FF92609124
:10143000C0037091C103072E000C880B990B0E940A
:10144000E62D6B017C018090B4039090B503A090D1
:10145000B603B090B70320E030E040E050E4C501AF
:10146000B4010E94CB2C9B01AC01C701B6010E94C4
:10147000962E18165CF460E084E00E94241860E068
:1014800083E00E9424188FEF9FEF12C0A501940102
:10149000C701B6010E94372D87FF0FC061E084E0CD
:1014A0000E94241860E083E00E94241881E090E00C
:1014B0009093AB038093AA0304C01092AB031092E5
:1014C000AA038091BE039091BF03899714F060E056
:1014D00001C061E082E00E942418FF90EF90DF904D
:1014E000CF90BF90AF909F908F900895CF92DF9252
:1014F000EF92FF920F931F93CF93DF936C01EB0159
:1015000020913E0530913F05EE24EA94FE2C08E23E
:1015100010E04BE450E060E070E086E395E00E946C
:10152000290885E080934A051092490510924805E4
:1015300010924705109246058AE0C816D1043CF087
:1015400084E6C816D10434F024EE3FEF05C02CE148
:1015500030E002C020E030E02B583F4F309343058D
:10156000209342050BE410E01093450500934405D9
:10157000B60186E395E00E9437168CE890E09093E0
:10158000430580934205109345050093440564E4A8
:1015900072E086E395E00E94C51ACA30D1059CF43A
:1015A0008EEB90E0909343058093420510934505A0
:1015B0000093440560E070E086E395E00E943716F2
:1015C0008CE190E002C080E090E082549F4F9093C5
:1015D0004305809342058BE490E09093450580930A
:1015E0004405BE0186E395E0DF91CF911F910F91F5
:1015F000FF90EF90DF90CF900C943716CF92DF9250
:10160000EF92FF920F931F93CF93DF9368E472E002
:101610008FE794E00E94C51AC6E3D5E00A851B85D2
:1016200028853985A801425351098FEEE82E8BE7B2
:10163000F82E60E070E0CE010E942908EE24EA94C2
:10164000FE2CFB8AEA8AF98AE88A83E08C8B8AE09E
:1016500090E09D878C8728ECC22ED12CDF86CE8629
:101660004091B4035091B5036091B6037091B703F4
:1016700020E0CE010E94E31928E136EC43E050E07F
:101680006BEC70E082E390E00E94951688E390E0B6
:101690009D878C87DF86CE8608E116EC1B8B0A8B34
:1016A000198B088B68E672E0CE010E94C51A8AE5A4
:1016B00090E09D878C87DF86CE86FB8AEA8AF98A4E
:1016C000E88A4091AC035091AD036091AE037091F4
:1016D000AF0320E0CE010E94E3191B8B0A8B198B0C
:1016E000088B6AE672E0CE010E94C51A82ED90E096
:1016F0009D878C87DF86CE86FB8AEA8AF98AE88A0C
:101700004091B0035091B1036091B2037091B30363
:1017100020E0CE010E94E3191B8B0A8B198B088BEA
:101720006EE672E0CE01DF91CF911F910F91FF9095
:10173000EF90DF90CF900C94C51AEF92FF920F9329
:101740001F93CF93C82F62E772E08FE794E00E9467
:10175000C51A20913E0530913F05EE24EA94FE2CF7
:1017600004E610E04CE350E060E070E086E395E0D2
:101770000E94290883E080934A051092490510923F
:1017800048051092470510924605C23021F1C3303A
:1017900089F1C13009F045C08CE390E09093430596
:1017A0008093420586E490E090934505809344053C
:1017B0006CE872E086E395E00E94C51A84E690E04A
:1017C000909343058093420590934505809344058B
:1017D00069E972E01DC080E590E090934305809335
:1017E000420582E890E0909345058093440562EAC3
:1017F00072E00EC08DE290E0909343058093420525
:1018000082E890E090934505809344056DEA72E08C
:1018100086E395E0CF911F910F91FF90EF900C948C
:10182000C51ACF911F910F91FF90EF900895EF92FD
:10183000FF920F931F93CF93DF936BEB72E08FE7D1
:1018400094E00E94C51AC091C003D091C1038FE0FB
:101850000E94AC1887E190E09093C1038093C0038D
:101860006BED72E08FE794E00E94C51A6091C003AF
:101870007091C1038FE794E00E94371665EF72E024
:101880008FE794E00E94C51A80E10E94AC1888E1BD
:1018900090E09093BF038093BE036AEF72E08FE7FE
:1018A00094E00E94C51A6091BE037091BF038FE758
:1018B00094E00E94371665EF72E08FE794E00E9493
:1018C000C51A8091C0039091C1038C179D0709F43C
:1018D00085C064E173E08FE794E00E94C51A10921E
:1018E000490510924805109247051092460582E07E
:1018F00080934A05EE24EA94FE2C04E110E029E1ED
:1019000030E04AEA50E064E670E086E395E00E9449
:10191000290884E690E090934305809342058AEA83
:1019200090E090934505809344056091C0037091C9
:10193000C10386E395E00E9437166BE373E086E30C
:1019400095E00E94C51A20E030E042E050E06CEAE9
:1019500070E082E890E00E94951626E930E04AEABD
:1019600050E06AEA70E086E395E00E9429088091E1
:10197000AA039091AB038130910569F480E098EF60
:1019800090934905809348059093470580934605B9
:1019900061E473E019C0019669F48FE190E09093DF
:1019A000490580934805909347058093460569E46F
:1019B00073E00AC01092490510924805109247053D
:1019C0001092460563E573E086E395E0DF91CF91E1
:1019D0001F910F91FF90EF900C94C51ADF91CF915A
:1019E0001F910F91FF90EF90089580E090E00E948A
:1019F0007D09813293404CF081E090E09093B903EF
:101A00008093B8038BE593E006C01092B90310925F
:101A1000B80389E693E00E94821681E090E00E947C
:101A20007D09BC0180E090E00E94E42D9B01AC01A7
:101A300060E070E080E894E40E94CA2C20E030E08E
:101A400040E85AE30E949B2E20E030E044E352E459
:101A50000E949B2E20E030E040EA51E40E94CB2C13
:101A60000E94AE2D072E000C880B990B0E94E62DCC
:101A70006093B4037093B5038093B6039093B70358
:101A800067E773E08FE794E00E94C51A6091B403A2
:101A90007091B5038091B6039091B7030E946D16C3
:101AA00083E090E00E947D09BC0180E090E00E940C
:101AB000E42D9B01AC0160E070E080E894E40E94BA
:101AC000CA2C20E030E040E85AE30E949B2E20E040
:101AD00030E04BE653E40E949B2E20E030E040EAE9
:101AE00050E40E943C2D0E94AE2D072E000C880B66
:101AF000990B0E94E62D20E030E040EA50E40E947D
:101B00009B2E20E030E040EA50E40E94CB2C609312
:101B1000B0037093B1038093B2039093B30362E870
:101B200073E08FE794E00E94C51A6091B003709152
:101B3000B1038091B2039091B3030E946D1682E0CD
:101B400090E00E947D09BC0180E090E00E94E42DBD
:101B50009B01AC0160E070E080E894E40E94CA2C34
:101B600020E030E040E85AE30E949B2E20E030E085
:101B700040EE50E40E949B2E0E94AE2D072E000CDA
:101B8000880B990B0E94E62D6093AC037093AD0314
:101B90008093AE039093AF036EE873E08FE794E019
:101BA0000E94C51A6091B0037091B1038091B20395
:101BB0009091B3030C946D16FC01538D448D252F29
:101BC00030E0842F90E0821B930B541710F0CF96D7
:101BD000089501970895FC01918D828D981761F009
:101BE000828DDF01A80FB11D5D968C91928D9F5F54
:101BF0009F73928F90E008958FEF9FEF0895FC01FF
:101C0000918D828D981731F0828DE80FF11D858DB1
:101C100090E008958FEF9FEF0895FC01918D228D44
:101C2000892F90E0805C9F4F821B91098F739927C9
:101C300008958FE794E00E940D0E21E0892B09F4AE
:101C400020E0822F0895FC01848DDF01A80FB11DD3
:101C5000A35ABF4F2C91848D90E001968F739927E2
:101C6000848FA689B7892C93A089B1898C918064CF
:101C70008C93938D848D981306C00288F389E02D90
:101C800080818F7D80830895EF92FF920F931F9341
:101C9000CF93DF93EC0181E0888F9B8D8C8D98131F
:101CA00005C0E889F989808185FD24C0F62E0B8D59
:101CB00010E00F5F1F4F0F731127E02E8C8DE8127D
:101CC0000CC00FB607FCFACFE889F989808185FF3F
:101CD000F5CFCE010E94230EF1CF8B8DFE01E80FD0
:101CE000F11DE35AFF4FF0820B8FEA89FB89808157
:101CF000806207C0EE89FF896083E889F989808165
:101D00008064808381E090E0DF91CF911F910F91FB
:101D1000FF90EF900895CF93DF93EC01888D882397
:101D2000C9F0EA89FB89808185FD05C0A889B98948
:101D30008C9186FD0FC00FB607FCF5CF808185FF23
:101D4000F2CFA889B9898C9185FFEDCFCE010E9491
:101D5000230EE7CFDF91CF91089580E090E0892BAB
:101D600029F00E94190E81110C940000089585ED50
:101D70008093BC008091BC0084FDFCCF10925A047B
:101D800008954091E503262F30E0240F311D2132C4
:101D90003105DCF420915A042430C9F4FC0180E0C0
:101DA00090E0861758F43091E5032191DC01AD53A2
:101DB000BC4FA30FB11D2C930196F3CF8091E50387
:101DC000680F6093E50380E0089581E0089582E064
:101DD00008950895E091130480911204E81730F4F7
:101DE000F0E0EC5EFB4F808190E008958FEF9FEF75
:101DF00008959091130480911204981750F4E92FDC
:101E0000F0E0EC5EFB4F208130E09F5F9093130485
:101E100002C02FEF3FEFC90108958091120490E0B6
:101E200020911304821B91090895CF92DF92EF92C3
:101E3000FF920F931F93CF93DF937C01262F972F51
:101E40008A0180915B04882391F0C62FD72F6E0101
:101E5000C40ED51ECC15DD0571F06991D701ED9149
:101E6000FC910190F081E02DC7010995F3CF642F1B
:101E7000822F0E94C10EC801DF91CF911F910F9157
:101E8000FF90EF90DF90CF900895CF93DF931F9254
:101E9000CDB7DEB7698320915B042223D1F0209176
:101EA0007E04203240F021E030E0FC0133832283C5
:101EB00080E090E015C080915C04E82FF0E0E35AE8
:101EC000FB4F998190838F5F80935C0480937E04A5
:101ED00005C061E0CE0101960E94C10E81E090E054
:101EE0000F90DF91CF9108950895FC016370658B89
:101EF0008481958126813781613039F0633029F002
:101F00009187808733872287089531872087938739
:101F1000828708952F923F924F925F926F927F92A5
:101F20008F929F92AF92BF92CF92DF92EF92FF92E9
:101F30000F931F93CF93DF93CDB7DEB76C970FB698
:101F4000F894DEBF0FBECDBF9C8F8B8F5B011A0153
:101F50001F830E833701C982DC0158964D915C9135
:101F600059974115510509F0E5C018968D919C913E
:101F70001997681779070CF0CAC11A968D919C9130
:101F80001B97281639060CF0C2C18C2C912CFB0132
:101F900036E0C39EE00DF11D1124FB87EA871E1673
:101FA0001F060CF0B4C1C40133E0880F991F3A95A5
:101FB000E1F79D878C87820D931D181619060CF08A
:101FC000A6C157968C91811103C0203B08F02F5F6A
:101FD000AB8DBC8DED91FC9111970284F385E02DC2
:101FE000CD012A8F09952A8DB5E02B9F90011124F0
:101FF000F5013596FF87EE87BB82AA822501A901EC
:102000004A195B09598B488BC10108969B8B8A8BB7
:10201000E889F989E40DF51DE858FF4F94919887F8
:1020200061013D822C82A885A0FF13C0AB8DBC8DC1
:10203000ED91FC91B981B13031F40484F585E02D46
:102040002E813F8116C00684F785E02DEE80FF804B
:102050001AC0EE81FF816E167F06F1F0AB8DBC8D4C
:10206000ED91FC91B981B13051F40484F585E02DF6
:102070009301A601B2018B8D9C8D09950DC006843C
:10208000F785E02D7301840194014C815D816A81A3
:102090007B818B8D9C8D0995E885E695E887FFEF20
:1020A000CF1ADF0A2C813D81280D391D3D832C83F9
:1020B0004A895B89C416D50609F0B5CF5FEF451A8A
:1020C000550A8A819B81880D991D9B838A83AE85E1
:1020D000BF854A165B0609F09BCFEE81FF816E1625
:1020E0007F0609F4F2C0EB8DFC8DA081B181F981EE
:1020F000F13079F4B5016B5F7F4F5096ED91FC9113
:102100005197830128E030E0A1018B8D9C8D0995CA
:10211000DCC06A857B85681979091E96ED91FC9172
:102120001F9773010C851D859401A1018B8D9C8DDA
:102130000995CBC0FA0134969491329765917491C8
:10214000291BCB01B7E02B9F800D911D1124FA01B3
:10215000259134913B8B2A8BFC01459154915B83F3
:102160004A83FC013296C490319654915E87329630
:1021700014913196D4908981823058F0612E012ECD
:10218000000C7708AD2D0D2C000CBB0BB987A88770
:1021900004C019861886612C712CAB8DBC8DED9115
:1021A000FC9111970284F385E02DCD010995B98149
:1021B0008B2E912C689CC001699C900D789C900D91
:1021C0001124FC01EA0DFB1DFD87EC871C82712C9C
:1021D000612CE12F110FFF0B95012E0F3F1F3B8745
:1021E0002A87AC0CB11CA5014E0F5F1F5F8B4E8B75
:1021F000C1018D0D911DD7FC9A95998F888F4E85C1
:10220000641608F062C0862D90E048855985480F15
:10221000591F489D9001499D300D589D300D112446
:10222000D901A20DB31DB98BA88BAA84BB844C84A1
:102230005D84DC80BA85DB1AE88DF98DE80FF91F23
:10224000FD8BEC8B8D2D8A0D2E893F89A216B3064E
:10225000B9F1877061F48A819B810196EA89FB89D3
:10226000AA81BB81EA0FFB1F74909B838A8377FE50
:1022700020C0AB8DBC8DED91FC91B981B13061F482
:102280000484F585E02D2E813F814C895D89B5015F
:102290008B8D9C8D09950DC00684F785E02DEE8011
:1022A000FF808401940148895989B2018B8D9C8DEE
:1022B0000995770CEFEFAE1ABE0A480C591CC2CF35
:1022C0003C813C0D3C8363949ACFAB8DBC8DED91EA
:1022D000FC9111970688F789E02DCD016C960FB619
:1022E000F894DEBF0FBECDBFDF91CF911F910F914C
:1022F000FF90EF90DF90CF90BF90AF909F908F9026
:102300007F906F905F904F903F902F9009946C96C4
:102310000FB6F894DEBF0FBECDBFDF91CF911F91F6
:102320000F91FF90EF90DF90CF90BF90AF909F9074
:102330008F907F906F905F904F903F902F90089577
:10234000AF92BF92CF92EF92FF920F931F93CF93D2
:10235000DF93EC01262F888D998D009709F040C0FE
:102360006A3059F41D861C862C898E859F8538E03D
:10237000239F800D911D112441C06D3009F4AAC026
:102380008E898823C1F03C898C859D8546E0349FE9
:10239000800D911D112448855985481759075CF413
:1023A0001D861C868E859F8548E0349F800D911D7B
:1023B00011249F878E87EA88FB88088919894E85B2
:1023C0005F856C857D85CC88CE010E948A0F2C8923
:1023D0008C859D8536E0239F800D911D112442C080
:1023E0006A3079F41D861C862C89FC013696E491AE
:1023F0008E859F852E9F800D911D11249F878E872E
:1024000069C06D3009F466C0FC01349634916317DD
:1024100008F460C03196E491E61708F45BC0FC0153
:102420003296A590B490462F50E0431B510937E0F7
:10243000349FB001359F700D1124A60EB71EF50113
:10244000329634913196E491332311F0E1110DC0AD
:10245000F5013496E4912C898C859D85E29F800D51
:10246000911D11249D878C8735C0F50135964491C7
:102470005E89552311F16C89E32FF0E0E40FF11D23
:1024800047FDFA956E9FD0016F9FB00D11244C85CA
:102490005D854A0F5B1FE885F985E417F5076CF445
:1024A0001D861C86FC013696E4918E859F856E9F65
:1024B000800D911D11249F878E87EA88FB880889EB
:1024C00019894E855F856C857D85CC88CE010E94FB
:1024D0008A0FBECF81E090E0DF91CF911F910F91E5
:1024E000FF90EF90CF90BF90AF9008956F927F9242
:1024F0008F929F92AF92BF92CF92DF92EF92FF9214
:102500000F931F93CF93DF93EC014B015A016901A5
:102510003801E881F9810284F385E02D0995E8818D
:10252000F9810288F389E02D87019601A501B401A4
:10253000CE010995E881F981A501460D571D41504D
:1025400051090288F389E02D9601B401CE01099565
:10255000E881F9810088F189E02D9301A501B4019A
:10256000CE010995E881F981C80CD91CB6016150EA
:1025700071090088F189E02D9301A501CE0109952B
:10258000E881F9810688F789E02DCE01DF91CF91AE
:102590001F910F91FF90EF90DF90CF90BF90AF9081
:1025A0009F908F907F906F900994CF92DF92EF92DF
:1025B000FF920F931F93CF93DF9300D000D000D0F2
:1025C000CDB7DEB76C01DC01ED91FC9162177307AA
:1025D00089F4041715072CF4942F852FA801092FCF
:1025E000182F041B150B98012F5F3F4F048CF58D9E
:1025F000E02D12C04017510709F5261737072CF4B4
:10260000962F872FB901292F382F261B370B2F5FC5
:102610003F4F068CF78DE02D8701C6010995269660
:102620000FB6F894DEBF0FBECDBFDF91CF911F91E3
:102630000F91FF90EF90DF90CF9008950284F38583
:10264000E02D2D833E834B835C8369837A830995D8
:10265000D601ED91FC910488F589E02D2D813E8114
:102660004B815C8169817A81C6010995D601ED9122
:10267000FC910688F789E02DC60126960FB6F894DE
:10268000DEBF0FBECDBFDF91CF911F910F91FF90A5
:10269000EF90DF90CF900994EF92FF920F931F93EA
:1026A000DC01ED91FC9111971A960D911C911B97ED
:1026B00018962D913C91199700A0F1A1E02D7B0176
:1026C00040E050E060E070E009951F910F91FF90AD
:1026D000EF9008954F925F926F927F928F929F92A8
:1026E000AF92BF92CF92DF92EF92FF920F931F9320
:1026F000CF93DF9300D0CDB7DEB76C015A0139011B
:102700004801DC01ED91FC910284F385E02D6983A1
:102710007A8309956981462E7A81572E640C751C3F
:10272000D601ED91FC91461457046CF40088F189B0
:10273000E02D87019401A501B201C6010995BFEF03
:102740004B1A5B0AEDCF0688F789E02DC6010F9082
:102750000F90DF91CF911F910F91FF90EF90DF903D
:10276000CF90BF90AF909F908F907F906F905F9031
:102770004F900994AF92BF92CF92DF92EF92FF9267
:102780000F931F93CF93DF9300D000D0CDB7DEB768
:102790005C016901DC01ED91FC910284F385E02D7F
:1027A0004B835C8369837A830995D501ED91FC9114
:1027B00069817A819B012C0D3D1D215031090488CE
:1027C000F589E02D78014B815C818A01C50109956D
:1027D000D501ED91FC910688F789E02DC5010F9098
:1027E0000F900F900F90DF91CF911F910F91FF905D
:1027F000EF90DF90CF90BF90AF900994AF92BF92CF
:10280000CF92DF92EF92FF920F931F93CF93DF93BC
:1028100000D000D0CDB7DEB75C016901DC01ED91DD
:10282000FC910284F385E02D4B835C8369837A837A
:102830000995D501ED91FC914B815C81C40ED51EAB
:10284000B1E0CB1AD1080488F589E02D7801860122
:1028500069817A819B01C5010995D501ED91FC91B2
:102860000688F789E02DC5010F900F900F900F900B
:10287000DF91CF911F910F91FF90EF90DF90CF905C
:10288000BF90AF9009940895EF92FF920F931F931A
:10289000DC01ED91FC9100A0F1A1E02D09951F91C3
:1028A0000F91FF90EF9008950E94A4301F920F9215
:1028B0000FB60F9211242F933F934F935F936F9313
:1028C0007F938F939F93AF93BF93EF93FF938FE784
:1028D00094E00E94230EFF91EF91BF91AF919F91E1
:1028E0008F917F916F915F914F913F912F910F90B9
:1028F0000FBE0F901F9018951F920F920FB60F9258
:1029000011242F938F939F93EF93FF93E0918F0464
:10291000F09190048081E0919504F091960482FDFD
:1029200012C09081809198048F5F8F7320919904D9
:10293000821751F0E0919804F0E0E158FB4F958F39
:102940008093980401C08081FF91EF919F918F91B6
:102950002F910F900FBE0F901F9018951F920F92FE
:102960000FB60F9211242F933F934F935F936F9362
:102970007F938F939F93AF93BF93EF93FF93809138
:10298000B900887F803609F49CC068F5883209F464
:102990005BC090F4803109F454C038F4882309F402
:1029A000F6C0883009F44DC0F6C0883109F44CC037
:1029B000803209F45DC0EFC0803409F468C048F487
:1029C000803309F455C0883309F0E5C0809358047A
:1029D000D8C0803509F44FC0883509F45DC088340B
:1029E00009F0D9C0D6C0883909F4C7C0A8F488371F
:1029F00009F467C038F4883609F463C0803709F4F5
:102A000060C0C9C0883809F4B8C0803909F45FC013
:102A1000803809F0C0C05BC0803B09F486C038F440
:102A2000803A09F466C0883A09F47FC0B4C0803C9B
:102A300009F4A7C0883C09F4A4C0883B09F48AC003
:102A4000AAC08091350410C090915704809156041B
:102A5000981770F5E091570481E08E0F809357042A
:102A6000F0E0EA5CFB4F80818093BB0085EC86C080
:102A7000809358048EC0E091570481E08E0F8093BC
:102A800057048091BB00F0E0EA5CFB4F808390919B
:102A90005704809156046EC0E091570481E08E0F78
:102AA000809357048091BB00F0E0EA5CFB4F808389
:102AB0008091590481116DC081E08093340484EACF
:102AC00061C083E080935A0410920904CFCF8091B3
:102AD0000904803208F051C0E091090481E08E0FB2
:102AE000809309048091BB00F0E0E751FC4F8083A4
:102AF000BDCF85EC8093BC0010925A0480910904EC
:102B0000803230F4E0910904F0E0E751FC4F10828C
:102B10006091090470E0E091E703F091E80389EE29
:102B200093E009951092090436C084E080935A041A
:102B30001092E6031092E503E091E303F091E403C1
:102B400009958091E503811105C081E08093E5033B
:102B50001092C303E091E60381E08E0F8093E603B9
:102B6000F0E0ED53FC4F80818093BB009091E60331
:102B70008091E503981708F479CF85E88093BC002D
:102B80000AC085EC8093BC0010925A0404C01092D5
:102B900058040E94B70EFF91EF91BF91AF919F91A2
:102BA0008F917F916F915F914F913F912F910F90F6
:102BB0000FBE0F901F901895CF93CFB7F8948091C8
:102BC000C203811127C0E6E9F5E08491EAEAF5E065
:102BD0009491E82FF0E0EE0FFF1FE858FA4FA5910F
:102BE000B491EC91E92321F461E08AE00E94241879
:102BF00061E08AE00E9470188CB580618CBD8CB554
:102C000080648CBD61E08DE00E94701861E08BE013
:102C10000E9470188091C2038F5F8093C203CFBF60
:102C2000CF9108953FB7F89480910E0490910F04CE
:102C3000A0911004B091110426B5A89B05C02F3FA8
:102C400019F00196A11DB11D3FBFBA2FA92F982FD2
:102C50008827820F911DA11DB11DBC01CD0142E04D
:102C6000660F771F881F991F4A95D1F70895CF9255
:102C7000DF92EF92FF920F931F93CF93DF936B013D
:102C8000770FEE08FF08F7FE1BC0EC016DE20E9413
:102C90007E198C0144275527BA014C195D096E092C
:102CA0007F092AE0CE010E949A19800F911FDF91BF
:102CB000CF911F910F91FF90EF90DF90CF900895EB
:102CC0002AE0B701A601DF91CF911F910F91FF90EC
:102CD000EF90DF90CF900C949A19CF93DF93AB01D4
:102CE000BC0122E08FE794E00E94E319EC016AE95D
:102CF00073E08FE794E00E9485198C0F9D1FDF9190
:102D0000CF910895CF93DF93BC018FE794E00E94A9
:102D10008519EC016AE973E08FE794E00E94851958
:102D20008C0F9D1FDF91CF9108952F923F924F926C
:102D30005F926F927F928F929F92AF92BF92CF924B
:102D4000DF92EF92FF920F931F93CF93DF9300D008
:102D500000D000D0CDB7DEB77C016B015E834D8320
:102D6000890181E090E03C01641A750ACA019195DD
:102D7000819591099C01220F331F3A832983460FC5
:102D8000571F9801B70186E395E00E942803A6012A
:102D90008D819E81481B590B9801B70186E395E010
:102DA0000E9428036D817E816E0D7F1D9801A60112
:102DB00086E395E00E942803B701ED81FE816E1B3A
:102DC0007F0B9801A60186E395E00E942803A12CC1
:102DD000B12C21E030E03C832B832D813E81A21673
:102DE000B3060CF070C077FC0CC08D819E810197FA
:102DF0009E838D83E981FA813296FA83E9836E0E90
:102E00007F1EFFEFAF1ABF0A2B813C812E5F3F4F21
:102E10003C832B83620E731E25014E0C5F1C9801B0
:102E20008D809E808C0C9D1CA401B20186E395E0F0
:102E30000E94280317012A183B089801A401B10138
:102E400086E395E00E942803980146018D819E81CA
:102E5000881A990AA401B20186E395E00E9428032A
:102E60009801A401B10186E395E00E942803450181
:102E70008C0C9D1C9801A4014D805E804E0C5F1C43
:102E8000B20186E395E00E9428039801A40117018E
:102E9000ED81FE812E1A3F0AB10186E395E00E9482
:102EA000280346018A189B089801A401B20186E311
:102EB00095E00E9428039801A401B10186E395E002
:102EC0000E9428038ACF26960FB6F894DEBF0FBE65
:102ED000CDBFDF91CF911F910F91FF90EF90DF90C9
:102EE000CF90BF90AF909F908F907F906F905F90AA
:102EF0004F903F902F900895382F20917E0490910D
:102F00007D04213208F049C080915A048111FCCF20
:102F100042E040935A04309359043FEF30935804F1
:102F20001092570420935604ADE5B4E046E354E014
:102F3000FA013E2F341B321718F43D913193F9CF2B
:102F40001092350420913504990F922B90933504FB
:102F500090913404913061F41092340490913504CE
:102F60009093BB009091BC0093FDF8CF95EC01C00D
:102F700095EE9093BC0090915A049230E1F39091B9
:102F800058049F3F79F080915804803241F080913D
:102F90005804803331F084E005C081E003C082E052
:102FA00001C083E010925C0410927E0410925B04D6
:102FB000089590915A049111FCCF613208F060E2BB
:102FC00091E090935A04909359042FEF2093580462
:102FD00010925704260F2093560490933504909135
:102FE0003504880F892B8093350480913404813017
:102FF00061F410923404809135048093BB00809179
:10300000BC0083FDF8CF85EC01C085EE8093BC0049
:1030100080915A048130E1F380915704861710F4AF
:1030200060915704A6E3B4E024E134E0F9018E2F67
:10303000821B861718F48D918193F9CF1092130497
:1030400060931204862F089590E0FC01EC54FA4F2F
:103050003491FC01E056FA4F2491FC01E457FA4FF9
:10306000E491EE2309F43BC0332339F1333091F07E
:1030700038F43130A9F0323001F584B58F7D12C0BB
:10308000373091F03830A1F03430B9F480918000BD
:103090008F7D03C0809180008F77809380000DC06A
:1030A00084B58F7784BD09C08091B0008F7703C04D
:1030B0008091B0008F7D8093B000F0E0EE0FFF1F95
:1030C000EE57FA4FA591B4918FB7F894EC91611136
:1030D00003C020952E2301C02E2B2C938FBF089563
:1030E000CF93DF9390E0FC01E056FA4F2491FC016E
:1030F000E457FA4F8491882361F190E0880F991F7B
:10310000FC01E858FA4FC591D491FC01EE57FA4FF3
:10311000A591B491611109C09FB7F8948881209559
:1031200082238883EC912E230BC0623061F49FB719
:10313000F8943881822F809583238883EC912E2BFD
:103140002C939FBF06C08FB7F894E8812E2B28835D
:103150008FBFDF91CF9108958E3008F08E50877029
:10316000806480937C0080917A00806480937A00F0
:1031700080917A0086FDFCCF8091780020917900C3
:1031800090E0922B08958F929F92AF92BF92CF9230
:10319000DF92EF92FF926B017C010E9412164B01AD
:1031A0005C01C114D104E104F104F1F00E94121693
:1031B000DC01CB0188199909AA09BB09883E934013
:1031C000A105B10570F321E0C21AD108E108F108A8
:1031D00088EE880E83E0981EA11CB11CC114D10496
:1031E000E104F10419F7DDCFFF90EF90DF90CF906D
:1031F000BF90AF909F908F9008952FB7F8946091F3
:103200000A0470910B0480910C0490910D042FBF5F
:103210000895CF92DF92EF92FF920F931F93CF9377
:10322000DF936C017A018B01C0E0D0E0CE15DF05A1
:1032300089F0D8016D918D01D601ED91FC9101903D
:10324000F081E02DC6010995892B11F47E0102C0A1
:103250002196ECCFC701DF91CF911F910F91FF9085
:10326000EF90DF90CF9008951F920F920FB60F92BC
:1032700011242F933F938F939F93AF93BF9380918C
:103280000A0490910B04A0910C04B0910D043091AC
:10329000660523E0230F2D3720F40196A11DB11DF3
:1032A00005C026E8230F0296A11DB11D20936605D7
:1032B00080930A0490930B04A0930C04B0930D0424
:1032C00080910E0490910F04A0911004B09111040C
:1032D0000196A11DB11D80930E0490930F04A0933D
:1032E0001004B0931104BF91AF919F918F913F91C2
:1032F0002F910F900FBE0F901F901895DC01ED914C
:10330000FC910190F081E02D09946115710579F02F
:10331000FB0101900020E9F73197AF01461B570BE5
:10332000DC01ED91FC910280F381E02D099480E0B5
:1033300090E008954F925F926F927F92EF92FF928A
:103340000F931F93CF93DF93CDB7DEB7A1970FB63F
:10335000F894DEBF0FBECDBF7C01FA01CB0119A2EC
:10336000223008F42AE08E010F5D1F4F422E512CAF
:10337000612C712CBF01A30192010E94212FF90140
:10338000CA01015011096A3014F4605D01C0695C22
:10339000D8016C93232B242B252B61F7B801C7018F
:1033A0000E948519A1960FB6F894DEBF0FBECDBF5F
:1033B000DF91CF911F910F91FF90EF907F906F90D1
:1033C0005F904F9008954F925F926F927F928F928D
:1033D0009F92AF92BF92CF92DF92EF92FF92CF93E4
:1033E000DF93EC016A017B01B22E9A01AB01C701A8
:1033F000B6010E94082F882319F06DE973E027C0F9
:1034000026013701E89477F82FEF3FEF4FE75FE7AA
:10341000C301B2010E94082F81110DC02FEF3FEFB1
:103420004FE75FE7C301B2010E94372D18161CF465
:1034300061EA73E00CC02FEF3FEF4FE75FE4C70195
:10344000B6010E94962E18169CF465EA73E0CE0130
:10345000DF91CF91FF90EF90DF90CF90BF90AF9032
:103460009F908F907F906F905F904F900C948519F4
:103470002FEF3FEF4FE75FECC701B6010E94372DFA
:1034800087FDE3CF20E030E0A901C701B6010E942B
:10349000372D87FF0AC06DE2CE010E947E194C01D4
:1034A000F7FAF094F7F8F09402C0812C912CA12C3B
:1034B00060E070E080E09FE3AB1441F020E030E09A
:1034C00040E251E40E943C2DA394F6CF9B01AC0155
:1034D000C701B6010E94CB2C2B013C010E94B52DE7
:1034E0006B017C010E94E42D9B01AC01C301B20180
:1034F0000E94CA2C2B013C012AE0B701A601CE0193
:103500000E949A197C01E80CF91CBB2031F06EE294
:10351000CE010E947E19E80EF91EDB2CDD2029F178
:1035200020E030E040E251E4C301B2010E949B2E52
:103530002B013C010E94B52D4B01A12CB12C2AE09E
:10354000B501A401CE010E949A19E80EF91EC50129
:10355000B4010E94E42D9B01AC01C301B2010E94A1
:10356000CA2C2B013C01DA94D9CFC701DF91CF914E
:10357000FF90EF90DF90CF90BF90AF909F908F9093
:103580007F906F905F904F9008950C948519CF9322
:10359000DF93CDB7DEB72A970FB6F894DEBF0FBE24
:1035A000CDBF789484B5826084BD84B5816084BDCC
:1035B00085B5826085BD85B5816085BD80916E00D1
:1035C000816080936E001092810080918100826002
:1035D000809381008091810081608093810080913F
:1035E00080008160809380008091B100846080932E
:1035F000B1008091B00081608093B00080917A002A
:10360000846080937A0080917A00826080937A004F
:1036100080917A00816080937A0080917A0080683E
:1036200080937A001092C100E0918F04F091900491
:1036300082E08083E0918B04F0918C041082E09111
:103640008D04F0918E048FEC808310929704E091AA
:103650009304F091940486E08083E0919104F091CA
:103660009204808180618083E0919104F0919204C2
:10367000808188608083E0919104F0919204808140
:1036800080688083E0919104F091920480818F7D25
:10369000808389E791E00E94821687E0E6E0F1E00E
:1036A000DE01119601900D928A95E1F78FE08887EF
:1036B00080E1898781E18A8788E891E00E9482160B
:1036C0008E010F5F1F4F6E0128E0C20ED11C0C153A
:1036D0001D0561F0F801F1908F0161E08F2D0E94CE
:1036E000701860E08F2D0E942418F1CF7E01FBE05E
:1036F000EF0EF11C0E151F0539F060E0F801819105
:103700008F010E947018F6CF61E089E00E942418B2
:1037100088E991E00E94821661E080915E050E9436
:10372000701860E080915E050E94241861E080912D
:103730005D050E94701861E080915C050E94701820
:1037400020915C0530E0F901E457FA4FE491F0E094
:10375000EE0FFF1FEE57FA4F8591949190935B0502
:1037600080935A0540915D0550E0FA01E457FA4F05
:103770008491E82FF0E0EE0FFF1FEE57FA4F85918E
:1037800094919093570580935605F901E056FA4FAE
:10379000E491E0936405FA01E056FA4FE491E09376
:1037A000650580915105882379F00E94DC158CB560
:1037B0008C7F8CBD8DB581608DBD8CB58F7D8CBDB2
:1037C0008CB5837F8CBD4EC061E0809161050E9405
:1037D000701861E080915F050E94701860E0809130
:1037E00060050E9470188091610590E0FC01E4572B
:1037F000FA4FE491F0E0EE0FFF1FEE57FA4FA5915C
:10380000B491B0935505A093540520915F0530E025
:10381000F901E457FA4FE491F0E0EE0FFF1FEE5785
:10382000FA4F459154915093530540935205FC0132
:10383000E056FA4F849180936305F901E056FA4F00
:10384000E491E09362059C91E82FE095E923EC93E5
:10385000E0915205F0915305908180916205809529
:103860008923808361E080915E050E94241865E0D1
:1038700070E080E090E00E94C31860E080915E05F7
:103880000E94241864E170E080E090E00E94C31878
:1038900061E080915E050E94241866E970E080E096
:1038A00090E00E94C3186FEE86E395E00E947F07C8
:1038B00063E086E395E00E945C0760E886E395E0BC
:1038C0000E945C0762E086E395E00E945C076FEC73
:1038D00086E395E00E947F0760E086E395E00E9422
:1038E0005C0761EC86E395E00E945C0760E386E399
:1038F00095E00E945C076DEE86E395E00E947F07ED
:1039000064E686E395E00E945C0763E086E395E069
:103910000E945C0762E186E395E00E945C0761E833
:1039200086E395E00E945C0768EE86E395E00E94DE
:103930007F0765E886E395E00E945C0760E086E328
:1039400095E00E945C0768E786E395E00E945C07CB
:103950006BEC86E395E00E947F0769E386E395E0E0
:103960000E945C076CE286E395E00E945C0760E0E1
:1039700086E395E00E945C0764E386E395E00E949D
:103980005C0762E086E395E00E945C0767EF86E3F0
:1039900095E00E947F0760E286E395E00E945C0765
:1039A0006AEE86E395E00E947F0760E086E395E09B
:1039B0000E945C0760E086E395E00E945C0760EC93
:1039C00086E395E00E947F0763E286E395E00E942C
:1039D0005C0761EC86E395E00E947F0760E186E387
:1039E00095E00E945C0765EC86E395E00E947F0706
:1039F0006EE386E395E00E945C0768E286E395E06B
:103A00000E945C0767EC86E395E00E947F0766E80A
:103A100086E395E00E945C0766E386E395E00E94FA
:103A20007F0768E486E395E00E945C076AE386E32B
:103A300095E00E947F0765E586E395E00E945C07BC
:103A400061EB86E395E00E947F0760E086E395E006
:103A50000E945C0768E186E395E00E945C0766EBE4
:103A600086E395E00E947F0768E086E395E00E9488
:103A70005C0762E886E395E00E945C0767E286E304
:103A800095E00E945C0762EF86E395E00E947F0765
:103A900060E086E395E00E945C0766E286E395E0DD
:103AA0000E947F0761E086E395E00E945C0760EE7C
:103AB00086E395E00E947F076FE086E395E00E9431
:103AC0005C0761E386E395E00E945C076BE286E3B6
:103AD00095E00E945C076CE086E395E00E945C073D
:103AE0006EE086E395E00E945C0768E086E395E07F
:103AF0000E945C076EE486E395E00E945C0761EF3C
:103B000086E395E00E945C0767E386E395E00E9408
:103B10005C0767E086E395E00E945C0760E186E36E
:103B200095E00E945C0763E086E395E00E945C07F5
:103B30006EE086E395E00E945C0769E086E395E02D
:103B40000E945C0760E086E395E00E945C0761EEFE
:103B500086E395E00E947F0760E086E395E00E949F
:103B60005C076EE086E395E00E945C0764E186E313
:103B700095E00E945C0763E086E395E00E945C07A5
:103B800061E186E395E00E945C0767E086E395E0EB
:103B90000E945C0761E386E395E00E945C0761ECAC
:103BA00086E395E00E945C0768E486E395E00E9466
:103BB0005C0768E086E395E00E945C076FE086E3BF
:103BC00095E00E945C076CE086E395E00E945C074C
:103BD00061E386E395E00E945C0766E386E395E097
:103BE0000E945C076FE086E395E00E945C0761E15C
:103BF00086E395E00E947F0768E770E080E090E050
:103C00000E94C31869E286E395E00E947F070E9444
:103C1000DC158CB58C7F81608CBD8DB581608DBDD0
:103C200084EB91E00E94821661E086E395E00E94B9
:103C3000AA076FEF7FEF86E395E00E94DA032091F9
:103C40003E0530913F058FEEE82E8BE7F82E03E21C
:103C500010E040E050E060E070E086E395E00E9414
:103C60002908009140051091410520913E053091B1
:103C70003F05A8014253510960E070E086E395E0FA
:103C80000E942908EE24EA94FE2C0BE410E02EE8B2
:103C900030E04FE050E06FE570E086E395E00E9491
:103CA000290820E2E22E2BEFF22E0AE010E025EEAA
:103CB00030E04AE050E066E670E086E395E00E947E
:103CC000D5120BE010E027EE30E04BE050E063E669
:103CD00070E086E395E00E94D5120CE010E029EE3A
:103CE00030E04CE050E062E670E086E395E00E9450
:103CF000D5120DE010E02AEE30E04DE050E060E635
:103D000070E086E395E00E94D5120EE010E02BEE05
:103D100030E04EE050E06FE570E086E395E00E9411
:103D2000D5120FE010E02CEE30E04FE050E06FE5F0
:103D300070E086E395E00E94D51200E110E02DEEE0
:103D400030E040E150E06FE570E086E395E00E94EE
:103D5000D51201E110E021EE30E041E150E06DE5E7
:103D600070E086E395E00E94D5122EEE30E041E14E
:103D700050E062EE70E086E395E00E94D51202E129
:103D800010E027E630E042E150E06DE570E086E3C8
:103D900095E00E94D5122EEE30E042E150E066EE52
:103DA00070E086E395E00E94D51203E110E025E67D
:103DB00030E043E150E06CE570E086E395E00E947E
:103DC000D5122FEE30E043E150E067EE70E086E37D
:103DD00095E00E94D51204E110E024E630E044E1D1
:103DE00050E06DE570E086E395E00E94D5122FEE7D
:103DF00030E044E150E068EE70E086E395E00E9438
:103E0000D51205E110E023E630E045E150E06CE535
:103E100070E086E395E00E94D5122FEE30E045E198
:103E200050E069EE70E086E395E00E94D51206E16D
:103E300010E022E630E046E150E06CE570E086E319
:103E400095E00E94D5122FEE30E046E150E06AEE98
:103E500070E086E395E00E94D51207E110E022E6CB
:103E600030E047E150E06CE570E086E395E00E94C9
:103E7000D5122FEE30E047E150E06AEE70E086E3C5
:103E800095E00E94D51208E110E022E630E048E11A
:103E900050E06AE570E086E395E00E94D5122FEECF
:103EA00030E048E150E06BEE70E086E395E00E9480
:103EB000D51209E110E022E630E049E150E06AE580
:103EC00070E086E395E00E94D512E12CF12C28EDFC
:103ED00030E049E150E064ED70E086E395E00E9457
:103EE000D51230E2E32E3BEFF32E2FEE30E049E126
:103EF00050E06BEE70E086E395E00E94D5120AE197
:103F000010E022E630E04AE150E06AE570E086E346
:103F100095E00E94D512E12CF12C2AED30E04AE127
:103F200050E062ED70E086E395E00E94D51240E239
:103F3000E42E4BEFF42E2FEE30E04AE150E06BEE32
:103F400070E086E395E00E94D5120BE110E022E6D6
:103F500030E04BE150E06AE570E086E395E00E94D6
:103F6000D512E12CF12C24ED30E04BE150E061ED75
:103F700070E086E395E00E94D5122BED30E04BE136
:103F800050E06AED70E086E395E00E94D51220EEE5
:103F900030E04BE150E06FED70E086E395E00E9489
:103FA000D51250E2E52E5BEFF52E2FEE30E04BE11F
:103FB00050E06BEE70E086E395E00E94D5120CE1D4
:103FC00010E022E630E04CE150E06AE570E086E384
:103FD00095E00E94D512E12CF12C22ED30E04CE16D
:103FE00050E060ED70E086E395E00E94D51221EE8E
:103FF00030E04CE150E06FED70E086E395E00E9428
:10400000D51260E2E62E6BEFF62E2FEE30E04CE19B
:1040100050E06BEE70E086E395E00E94D5120DE172
:1040200010E022E630E04DE150E06AE570E086E322
:1040300095E00E94D512E12CF12C22E730E04DE111
:1040400050E06CE670E086E395E00E94D51223E82C
:1040500030E04DE150E06CE770E086E395E00E94CF
:10406000D51223E930E04DE150E06CE870E086E3E2
:1040700095E00E94D51222EA30E04DE150E06BE974
:1040800070E086E395E00E94D51227EB30E04DE129
:1040900050E06FEA70E086E395E00E94D51228ECCC
:1040A00030E04DE150E060EC70E086E395E00E9486
:1040B000D51222ED30E04DE150E06FEC70E086E388
:1040C00095E00E94D51228ED30E04DE150E066ED1C
:1040D00070E086E395E00E94D5122CED30E04DE1D2
:1040E00050E06BED70E086E395E00E94D51222EE81
:1040F00030E04DE150E060EE70E086E395E00E9434
:10410000D51270E2E72E7BEFF72E2FEE30E04DE177
:1041100050E06BEE70E086E395E00E94D5120EE170
:1041200010E022E630E04EE150E06AE570E086E320
:1041300095E00E94D512E12CF12C23E730E04EE10E
:1041400050E06BE670E086E395E00E94D51225E82A
:1041500030E04EE150E06AE770E086E395E00E94CF
:10416000D51223E930E04EE150E06CE870E086E3E0
:1041700095E00E94D51223EA30E04EE150E06AE972
:1041800070E086E395E00E94D51229EB30E04EE125
:1041900050E06FEA70E086E395E00E94D51228ECCB
:1041A00030E04EE150E060EC70E086E395E00E9484
:1041B000D51222ED30E04EE150E06FEC70E086E386
:1041C00095E00E94D5122CED30E04EE150E067ED15
:1041D00070E086E395E00E94D51223EE30E04EE1D8
:1041E00050E061EE70E086E395E00E94D512E0E2D7
:1041F000EE2EEBEFFE2E2FEE30E04EE150E06BEEB8
:1042000070E086E395E00E94D5120FE110E022E60F
:1042100030E04FE150E06AE570E086E395E00E940F
:10422000D512E12CF12C23E730E04FE150E06AE6B3
:1042300070E086E395E00E94D51226E830E04FE179
:1042400050E069E770E086E395E00E94D51223E92B
:1042500030E04FE150E06BE870E086E395E00E94CB
:10426000D51224EA30E04FE150E069E970E086E3DE
:1042700095E00E94D5122AEB30E04FE150E06FEA62
:1042800070E086E395E00E94D51228EC30E04FE123
:1042900050E060EC70E086E395E00E94D51222EDDC
:1042A00030E04FE150E06FEC70E086E395E00E9473
:1042B000D5122BED30E04FE150E069ED70E086E380
:1042C00095E00E94D51223EE30E04FE150E061EE20
:1042D00070E086E395E00E94D512F0E2EF2EFBEF4E
:1042E000FF2E2FEE30E04FE150E06BEE70E086E302
:1042F00095E00E94D51200E210E022E630E040E2B4
:1043000050E06AE570E086E395E00E94D512E12C6A
:10431000F12C2EE630E040E250E06AE670E086E301
:1043200095E00E94D51222E730E040E250E061E7DC
:1043300070E086E395E00E94D51226E830E040E286
:1043400050E068E770E086E395E00E94D5122FE820
:1043500030E040E250E06BE870E086E395E00E94D8
:10436000D51225EA30E040E250E068E970E086E3EB
:1043700095E00E94D5122BEB30E040E250E06FEA6E
:1043800070E086E395E00E94D51225EC30E040E233
:1043900050E060EC70E086E395E00E94D51222EDDB
:1043A00030E040E250E060ED70E086E395E00E948E
:1043B000D51224EE30E040E250E061EE70E086E39A
:1043C00095E00E94D512A0E2EA2EABEFFA2E2FEE76
:1043D00030E040E250E06BEE70E086E395E00E9452
:1043E000D51201E210E022E630E041E250E06AE559
:1043F00070E086E395E00E94D512E12CF12C2DE6C9
:1044000030E041E250E06AE670E086E395E00E9429
:10441000D5122CE730E041E250E068E770E086E337
:1044200095E00E94D51227E830E041E250E062E8D2
:1044300070E086E395E00E94D5122EE830E041E27C
:1044400050E06BE870E086E395E00E94D5122BE91E
:1044500030E041E250E067E970E086E395E00E94D9
:10446000D51225EA30E041E250E062EA70E086E3EE
:1044700095E00E94D51222EB30E041E250E06FEA75
:1044800070E086E395E00E94D5122CEB30E041E22B
:1044900050E067EB70E086E395E00E94D51223ECD4
:1044A00030E041E250E060EC70E086E395E00E948D
:1044B000D51222ED30E041E250E060ED70E086E39D
:1044C00095E00E94D51224EE30E041E250E061EE2A
:1044D00070E086E395E00E94D512B0E2EB2EBBEFD0
:1044E000FB2E2FEE30E041E250E06BEE70E086E311
:1044F00095E00E94D51202E210E022E630E042E2AE
:1045000050E06AE570E086E395E00E94D512E12C68
:10451000F12C2EE630E042E250E06AE670E086E3FD
:1045200095E00E94D5122BE730E042E250E067E7C9
:1045300070E086E395E00E94D51227E830E042E281
:1045400050E064E870E086E395E00E94D5122EE822
:1045500030E042E250E06BE870E086E395E00E94D4
:10456000D5122AE930E042E250E067E970E086E3E4
:1045700095E00E94D51222EB30E042E250E06FEA73
:1045800070E086E395E00E94D5122CEB30E042E229
:1045900050E068EB70E086E395E00E94D51223ECD2
:1045A00030E042E250E060EC70E086E395E00E948B
:1045B000D51222ED30E042E250E060ED70E086E39B
:1045C00095E00E94D5122BED30E042E250E06AED1A
:1045D00070E086E395E00E94D51223EE30E042E2DF
:1045E00050E061EE70E086E395E00E94D51280E233
:1045F000E82E8BEFF82E2FEE30E042E250E06BEE2B
:1046000070E086E395E00E94D51203E210E022E616
:1046100030E043E250E06AE570E086E395E00E9416
:10462000D512E12CF12C21E730E043E250E06AE6BC
:1046300070E086E395E00E94D5122BE730E043E27C
:1046400050E067E770E086E395E00E94D51228E825
:1046500030E043E250E064E870E086E395E00E94D9
:10466000D51223E930E043E250E06BE870E086E3E6
:1046700095E00E94D5122AE930E043E250E067E974
:1046800070E086E395E00E94D51222EB30E043E231
:1046900050E06FEA70E086E395E00E94D5122CEBC3
:1046A00030E043E250E069EB70E086E395E00E9481
:1046B000D51227EC30E043E250E060EC70E086E396
:1046C00095E00E94D51222ED30E043E250E060ED2B
:1046D00070E086E395E00E94D5122BED30E043E2D6
:1046E00050E068ED70E086E395E00E94D51222EE7E
:1046F00030E043E250E060EE70E086E395E00E9437
:10470000D51290E2E92E9BEFF92E2FEE30E043E236
:1047100050E06BEE70E086E395E00E94D51204E273
:1047200010E022E630E044E250E06AE570E086E323
:1047300095E00E94D512E12CF12C22E730E044E212
:1047400050E06AE670E086E395E00E94D5122AE721
:1047500030E044E250E067E770E086E395E00E94D5
:10476000D51228E830E044E250E065E870E086E3E6
:1047700095E00E94D51223E930E044E250E06BE876
:1047800070E086E395E00E94D5122AE930E044E229
:1047900050E066E970E086E395E00E94D51226EAD3
:1047A00030E044E250E06FE970E086E395E00E947B
:1047B000D51222EB30E044E250E06FEA70E086E38D
:1047C00095E00E94D5122CEB30E044E250E069EB1A
:1047D00070E086E395E00E94D51227EC30E044E2D9
:1047E00050E060EC70E086E395E00E94D51222ED87
:1047F00030E044E250E060ED70E086E395E00E9436
:10480000D5122AED30E044E250E068ED70E086E336
:1048100095E00E94D51222EE30E044E250E06EEDC9
:1048200070E086E395E00E94D51220E2E22E2BEFA5
:10483000F22E2FEE30E044E250E06BEE70E086E3C3
:1048400095E00E94D51205E210E022E630E045E254
:1048500050E06AE570E086E395E00E94D512E12C15
:10486000F12C23E730E045E250E06AE670E086E3B1
:1048700095E00E94D5122AE730E045E250E067E774
:1048800070E086E395E00E94D51228E830E045E22A
:1048900050E065E870E086E395E00E94D51223E9D8
:1048A00030E045E250E06BE870E086E395E00E947E
:1048B000D5122AE930E045E250E066E970E086E38F
:1048C00095E00E94D51226EA30E045E250E06FE91B
:1048D00070E086E395E00E94D51222EB30E045E2DD
:1048E00050E06FEA70E086E395E00E94D5122CEB71
:1048F00030E045E250E069EB70E086E395E00E942D
:10490000D51227EC30E045E250E060EC70E086E341
:1049100095E00E94D51222ED30E045E250E060EDD6
:1049200070E086E395E00E94D51229ED30E045E283
:1049300050E067ED70E086E395E00E94D51221EE2D
:1049400030E045E250E06FED70E086E395E00E94D4
:10495000D51230E2E32E3BEFF32E2FEE30E045E2AE
:1049600050E06BEE70E086E395E00E94D51206E21F
:1049700010E022E630E046E250E06AE570E086E3CF
:1049800095E00E94D512E12CF12C24E730E046E2BC
:1049900050E06EE670E086E395E00E94D5122AE7CB
:1049A00030E046E250E067E770E086E395E00E9481
:1049B000D51228E830E046E250E064E870E086E393
:1049C00095E00E94D5122FE830E046E250E06BE817
:1049D00070E086E395E00E94D5122AE930E046E2D5
:1049E00050E067E970E086E395E00E94D51226EA80
:1049F00030E046E250E06FE970E086E395E00E9427
:104A0000D51222EB30E046E250E06FEA70E086E338
:104A100095E00E94D5122CEB30E046E250E069EBC5
:104A200070E086E395E00E94D51225EC30E046E286
:104A300050E060EC70E086E395E00E94D51223ED33
:104A400030E046E250E061ED70E086E395E00E94E0
:104A5000D51229ED30E046E250E067ED70E086E3E4
:104A600095E00E94D51221EE30E046E250E06FED75
:104A700070E086E395E00E94D51240E2E42E4BEF11
:104A8000F42E2FEE30E046E250E06BEE70E086E36D
:104A900095E00E94D51207E210E022E630E047E2FE
:104AA00050E06AE570E086E395E00E94D512E12CC3
:104AB000F12C24E730E047E250E060E770E086E365
:104AC00095E00E94D5122BE730E047E250E067E71F
:104AD00070E086E395E00E94D51227E830E047E2D7
:104AE00050E064E870E086E395E00E94D5122EE87D
:104AF00030E047E250E06BE870E086E395E00E942A
:104B0000D5122AE930E047E250E067E970E086E339
:104B100095E00E94D51220EA30E047E250E06FE9CC
:104B200070E086E395E00E94D51226EA30E047E285
:104B300050E061EA70E086E395E00E94D51222EB36
:104B400030E047E250E06FEA70E086E395E00E94D3
:104B5000D5122CEB30E047E250E068EB70E086E3E2
:104B600095E00E94D51223EC30E047E250E060EC83
:104B700070E086E395E00E94D51223ED30E047E235
:104B800050E061ED70E086E395E00E94D5122BEDD8
:104B900030E047E250E067ED70E086E395E00E9488
:104BA000D51221EE30E047E250E06FED70E086E391
:104BB00095E00E94D51250E2E52E5BEFF52E2FEE28
:104BC00030E047E250E06BEE70E086E395E00E9453
:104BD000D51208E210E022E630E048E250E06AE553
:104BE00070E086E395E00E94D512E12CF12C24E7D9
:104BF00030E048E250E061E770E086E395E00E9433
:104C0000D5122CE730E048E250E068E770E086E338
:104C100095E00E94D51227E830E048E250E063E8D2
:104C200070E086E395E00E94D5122EE830E048E27D
:104C300050E06BE870E086E395E00E94D5122BE926
:104C400030E048E250E067E970E086E395E00E94DA
:104C5000D51225EA30E048E250E062EA70E086E3EF
:104C600095E00E94D51222EB30E048E250E06FEA76
:104C700070E086E395E00E94D5122BEB30E048E22D
:104C800050E067EB70E086E395E00E94D51223ECDC
:104C900030E048E250E060EC70E086E395E00E948E
:104CA000D51223ED30E048E250E061ED70E086E39C
:104CB00095E00E94D5122BED30E048E250E067ED20
:104CC00070E086E395E00E94D51221EE30E048E2E4
:104CD00050E06FED70E086E395E00E94D51260E24F
:104CE000E62E6BEFF62E2FEE30E048E250E06BEE52
:104CF00070E086E395E00E94D51209E210E022E61A
:104D000030E049E250E06AE570E086E395E00E9419
:104D1000D512E12CF12C2DE630E049E250E06AE6B4
:104D200070E086E395E00E94D51224E730E049E286
:104D300050E060E770E086E395E00E94D5122EE730
:104D400030E049E250E068E770E086E395E00E94D9
:104D5000D51226E830E049E250E061E870E086E3F1
:104D600095E00E94D5122EE830E049E250E06BE871
:104D700070E086E395E00E94D5122CE930E049E22C
:104D800050E068E970E086E395E00E94D51225EADC
:104D900030E049E250E061EA70E086E395E00E948D
:104DA000D51223EB30E049E250E06FEA70E086E391
:104DB00095E00E94D5122BEB30E049E250E066EB23
:104DC00070E086E395E00E94D51223EC30E049E2E2
:104DD00050E060EC70E086E395E00E94D51223ED90
:104DE00030E049E250E061ED70E086E395E00E943A
:104DF000D51228ED30E049E250E066ED70E086E340
:104E000095E00E94D5122BED30E049E250E069EDCB
:104E100070E086E395E00E94D51221EE30E049E291
:104E200050E06FED70E086E395E00E94D51270E2ED
:104E3000E72E7BEFF72E2FEE30E049E250E06BEEED
:104E400070E086E395E00E94D5120AE210E022E6C7
:104E500030E04AE250E06AE570E086E395E00E94C7
:104E6000D512E12CF12C23E730E04AE250E06AE66B
:104E700070E086E395E00E94D51226E830E04AE231
:104E800050E069E770E086E395E00E94D5122EE8D5
:104E900030E04AE250E06BE870E086E395E00E9483
:104EA000D51224EA30E04AE250E068E970E086E397
:104EB00095E00E94D5122AEB30E04AE250E06FEA1A
:104EC00070E086E395E00E94D51228EC30E04AE2DB
:104ED00050E060EC70E086E395E00E94D51223ED8F
:104EE00030E04AE250E061ED70E086E395E00E9438
:104EF000D51228ED30E04AE250E066ED70E086E33E
:104F000095E00E94D5122CED30E04AE250E069EDC8
:104F100070E086E395E00E94D51221EE30E04AE28F
:104F200050E06FED70E086E395E00E94D512E0E27C
:104F3000EE2EEBEFFE2E2FEE30E04AE250E06BEE6D
:104F400070E086E395E00E94D5120BE210E022E6C5
:104F500030E04BE250E06AE570E086E395E00E94C5
:104F6000D512E12CF12C23E730E04BE250E06AE669
:104F700070E086E395E00E94D51225E830E04BE230
:104F800050E06AE770E086E395E00E94D5122EE8D3
:104F900030E04BE250E06BE870E086E395E00E9481
:104FA000D51224EA30E04BE250E069E970E086E394
:104FB00095E00E94D5122BEA30E04BE250E069EA1E
:104FC00070E086E395E00E94D51229EB30E04BE2D9
:104FD00050E06FEA70E086E395E00E94D51228EC7D
:104FE00030E04BE250E060EC70E086E395E00E9438
:104FF000D51223ED30E04BE250E061ED70E086E346
:1050000095E00E94D51228ED30E04BE250E066EDCD
:1050100070E086E395E00E94D5122CED30E04BE283
:1050200050E06BED70E086E395E00E94D51222EE31
:1050300030E04BE250E06FED70E086E395E00E94D7
:10504000D512F0E2EF2EFBEFFF2E2FEE30E04BE219
:1050500050E06BEE70E086E395E00E94D5120CE222
:1050600010E022E630E04CE250E06AE570E086E3D2
:1050700095E00E94D512E12CF12C23E730E04CE2C0
:1050800050E06AE670E086E395E00E94D51224E8DD
:1050900030E04CE250E06BE770E086E395E00E9480
:1050A000D5122EE830E04CE250E06CE870E086E388
:1050B00095E00E94D51222EA30E04CE250E06BE924
:1050C00070E086E395E00E94D5122BEA30E04CE2D6
:1050D00050E069EA70E086E395E00E94D51227EB84
:1050E00030E04CE250E06FEA70E086E395E00E9429
:1050F000D51228EC30E04CE250E060EC70E086E342
:1051000095E00E94D51223ED30E04CE250E062EDD4
:1051100070E086E395E00E94D51228ED30E04CE285
:1051200050E066ED70E086E395E00E94D5122DED2B
:1051300030E04CE250E06CED70E086E395E00E94D8
:10514000D51222EE30E04CE250E060EE70E086E3F3
:1051500095E00E94D512A0E2EA2EABEFFA2E2FEED8
:1051600030E04CE250E06BEE70E086E395E00E94A8
:10517000D5120DE210E022E630E04DE250E06AE5A3
:1051800070E086E395E00E94D512E12CF12C21E736
:1051900030E04DE250E06BE670E086E395E00E947F
:1051A000D51222E830E04DE250E06EE770E086E391
:1051B00095E00E94D51220EA30E04DE250E06DE922
:1051C00070E086E395E00E94D51224ED30E04DE2D8
:1051D00050E062ED70E086E395E00E94D51228ED84
:1051E00030E04DE250E065ED70E086E395E00E942E
:1051F000D51222EE30E04DE250E06DED70E086E336
:1052000095E00E94D512B0E2EB2EBBEFFB2E2FEE05
:1052100030E04DE250E06BEE70E086E395E00E94F6
:10522000D5120EE210E022E630E04EE250E06AE5F0
:1052300070E086E395E00E94D512E12CF12C28ED78
:1052400030E04EE250E063ED70E086E395E00E94CE
:10525000D51222EE30E04EE250E06EED70E086E3D3
:1052600095E00E94D51280E2E82E8BEFF82E2FEE0B
:1052700030E04EE250E06BEE70E086E395E00E9495
:10528000D5120FE210E022E630E04FE250E06AE58E
:1052900070E086E395E00E94D512E12CF12C28ED18
:1052A00030E04FE250E064ED70E086E395E00E946C
:1052B000D51221EE30E04FE250E06FED70E086E372
:1052C00095E00E94D51290E2E92E9BEFF92E2FEE89
:1052D00030E04FE250E06BEE70E086E395E00E9434
:1052E000D51200E310E022E630E040E350E06AE54A
:1052F00070E086E395E00E94D512E12CF12C28EDB8
:1053000030E040E350E065ED70E086E395E00E9418
:10531000D51220E2E22E2BEFF22E2FEE30E040E30A
:1053200050E06BEE70E086E395E00E94D51201E359
:1053300010E022E630E041E350E06AE570E086E309
:1053400095E00E94D5122FEE30E041E350E06BEE85
:1053500070E086E395E00E94D51202E310E022E6B9
:1053600030E042E350E06CE570E086E395E00E94B7
:10537000D5122FEE30E042E350E06AEE70E086E3B3
:1053800095E00E94D51203E310E022E630E043E30B
:1053900050E06CE570E086E395E00E94D5122FEEB8
:1053A00030E043E350E06BEE70E086E395E00E946E
:1053B000D51204E310E023E630E044E350E06CE56E
:1053C00070E086E395E00E94D5122FEE30E044E3D2
:1053D00050E06AEE70E086E395E00E94D51205E3A6
:1053E00010E024E630E045E350E06DE570E086E350
:1053F00095E00E94D5122FEE30E045E350E069EED3
:1054000070E086E395E00E94D51206E310E025E601
:1054100030E046E350E06DE570E086E395E00E9401
:10542000D5122EEE30E046E350E068EE70E086E301
:1054300095E00E94D51207E310E026E630E047E34E
:1054400050E06EE570E086E395E00E94D5122EEE06
:1054500030E047E350E067EE70E086E395E00E94BD
:10546000D51208E310E028E630E048E350E06EE5AE
:1054700070E086E395E00E94D5122DEE30E048E31F
:1054800050E064EE70E086E395E00E94D51209E3F7
:1054900010E02CEE30E049E350E06FE570E086E389
:1054A00095E00E94D5120AE310E02BEE30E04AE3CB
:1054B00050E060E670E086E395E00E94D5120BE3D1
:1054C00010E02AEE30E04BE350E061E670E086E366
:1054D00095E00E94D5120CE310E029EE30E04CE399
:1054E00050E062E670E086E395E00E94D5120DE39D
:1054F00010E027EE30E04DE350E064E670E086E334
:1055000095E00E94D5128EE190E090934305809340
:1055100042058AEA90E0909345058093440582E035
:1055200080934A051092490510924805109247054C
:105530001092460567EC71E086E395E00E94C51A7B
:105540000E94F50C60E087E00E94241864EF71E08F
:1055500080E090E00E94C31860E086E00E9424187A
:1055600064EF71E080E090E00E94C31860E085E0A5
:105570000E94241864EF71E080E090E00E94C3185C
:1055800060E084E00E94241864EF71E080E090E025
:105590000E94C31861E084E00E94241861E087E063
:1055A0000E94241861E086E00E94241861E085E0F2
:1055B0000E9424181092BB031092BA036DEC71E0A4
:1055C0008FE794E00E94C51A38EEC32E33E0D32E45
:1055D000E12CF12C4CE3A42EB12C01E010E081E091
:1055E0000E949D0B0E94FE0A1092B9031092B8030C
:1055F0008091B8039091B903892B09F072C0209172
:10560000B0033091B1034091B2035091B303609164
:10561000B4037091B5038091B6039091B7030E94D3
:105620009B2E2B013C0120E030E040E85FE36091DD
:10563000AC037091AD038091AE039091AF030E94D3
:10564000CB2C9B01AC01C301B2010E949B2E0E9496
:10565000AE2D7093BD036093BC030E94F50C2091A6
:10566000B0033091B1034091B2035091B303609104
:10567000B4037091B5038091B6039091B7030E9473
:105680009B2E2B013C0120E030E040E85FE360917D
:10569000AC037091AD038091AE039091AF030E9473
:1056A000CB2C9B01AC01C301B2010E949B2E2B01AC
:1056B0003C016091BC037091BD03072E000C880B68
:1056C000990B0E94E62D9B01AC01C301B2010E941F
:1056D000372D81110E94FE0A0E94170C0E940F0AAA
:1056E00087CF64EF71E080E090E00E94C3181092D1
:1056F000B9031092B80382E00E949D0B6091B00341
:105700007091B1038091B2039091B3030E94AE2DCA
:10571000DC01CB0160E070E00E94760A8091AA0370
:105720009091AB03892B49F18091B8039091B90313
:10573000019719F185EE91E00E9482160E94170CE4
:105740000E940F0A80E090E00E947D098132934020
:105750002CF01093B9030093B80304C01092B9035E
:105760001092B80368E873E180E090E00E94C318EB
:105770001092AB031092AA03D1CF83E00E949D0B3D
:105780000E94FD180E94E42D2B013C0120E030E036
:1057900040E752E46091B0037091B1038091B2038D
:1057A0009091B3030E949B2E20E030E04AE754E43E
:1057B0000E949B2E9B01AC01C301B2010E94CB2C25
:1057C0000E94B52D2B013C010E94FD186415750542
:1057D0008605970530F48091B8039091B90301973D
:1057E000C1F480E090E00E94D1098091B8039091CB
:1057F000B903892B09F0F3CE60E087E00E942418FA
:1058000060E086E00E94241860E085E00E94241891
:10581000E6CE8CE092E00E9482166091AC0370911B
:10582000AD038091AE039091AF030E94AE2DCB01EA
:105830000E94D1090E94FD18A3019201261B370B7B
:10584000480B590BCA01B901A70196010E94212FEB
:10585000C901B5010E940D2F9B01BC01C9010E9425
:10586000760A60E273E080E090E00E94C3180E9434
:10587000170C0E940F0A80E090E00E947D0981329F
:1058800093402CF01093B9030093B8039DCF10926E
:10589000B9031092B80398CF0895EFE7F4E01382AC
:1058A000128288EE93E0A0E0B0E084839583A68323
:1058B000B78321E131E03183208325EC30E0358767
:1058C000248724EC30E03787268720EC30E0318BCA
:1058D000208B21EC30E0338B228B22EC30E0358BB7
:1058E000248B26EC30E0378B268B118E128E138E94
:1058F000148EECE1F5E01382128284839583A683F3
:10590000B78383E291E091838083E6E3F5E013823D
:10591000128220EF30E03583248380E491E0978386
:1059200086833187208793878287158A1586148618
:105930001786168681E0848B2FEF3FEF338B228B07
:10594000318B208B868B178A118E108E21E531E0EA
:10595000318320839AE096A398E097A391E190A7E2
:10596000838F13A611A6E8E2F5E085E391E0918329
:10597000808389E3838314821582178216821186BD
:10598000108689E390E3A0E0B0E082879387A48744
:10599000B58708955058BB27AA270E94E22C0C9483
:1059A0005C2E0E944E2E38F00E94552E20F039F4C5
:1059B0009F3F19F426F40C944B2E0EF4E095E7FB70
:1059C0000C94452EE92F0E946D2E58F3BA176207EA
:1059D00073078407950720F079F4A6F50C948F2EB1
:1059E0000EF4E0950B2EBA2FA02D0B01B9019001FA
:1059F0000C01CA01A0011124FF27591B99F0593F3E
:105A000050F4503E68F11A16F040A22F232F342F85
:105A10004427585FF3CF469537952795A795F040D3
:105A20005395C9F77EF41F16BA0B620B730B840BE8
:105A3000BAF09150A1F0FF0FBB1F661F771F881FA0
:105A4000C2F70EC0BA0F621F731F841F48F48795F8
:105A500077956795B795F7959E3F08F0B0CF9395EA
:105A6000880F08F09927EE0F9795879508950E9463
:105A7000212E08F481E008950E94502D0C945C2E94
:105A80000E94552E58F00E944E2E40F029F45F3FA0
:105A900029F00C94452E51110C94902E0C944B2E01
:105AA0000E946D2E68F39923B1F3552391F3951B52
:105AB000550BBB27AA2762177307840738F09F5F2F
:105AC0005F4F220F331F441FAA1FA9F335D00E2E9C
:105AD0003AF0E0E832D091505040E695001CCAF709
