:100000000C94E6020C940E030C940E030C940E0355
:100010000C940E030C940E030C940E030C940E031C
:100020000C940E030C940E030C940E030C940E030C
:100030000C940E030C940E030C940E030C940E03FC
:100040000C9477190C940E030C94BF140C9499140F
:100050000C940E030C940E030C940E030C940E03DC
:100060000C94F1140C940E03CD0DCF0DDC0DDE0DB0
:10007000E00DE60DEC0DF60D00000000003E5B4FBC
:100080005B3E3E6B4F6B3E1C3E7C3E1C183C7E3CF8
:10009000181C577D571C1C5E7F5E1C00183C180006
:1000A000FFE7C3E7FF0018241800FFE7DBE7FF3096
:1000B000483A060E2629792926407F050507407F04
:1000C00005253F5A3CE73C5A7F3E1C1C08081C1C77
:1000D0003E7F14227F22145F5F005F5F06097F016D
:1000E0007F006689956A606060606094A2FFA29458
:1000F00008047E040810207E201008082A1C080826
:100100001C2A08081E101010100C1E0C1E0C303873
:100110003E3830060E3E0E06000000000000005F74
:1001200000000007000700147F147F14242A7F2A90
:100130001223130864623649562050000807030052
:10014000001C2241000041221C002A1C7F1C2A089E
:10015000083E080800807030000808080808000001
:1001600060600020100804023E5149453E00427F75
:10017000400072494949462141494D331814127FC4
:100180001027454545393C4A494931412111090764
:100190003649494936464949291E000014000000E5
:1001A00040340000000814224114141414140041B7
:1001B00022140802015909063E415D594E7C121174
:1001C000127C7F494949363E414141227F414141AC
:1001D0003E7F494949417F090909013E4141517327
:1001E0007F0808087F00417F41002040413F017F98
:1001F000081422417F404040407F021C027F7F0460
:1002000008107F3E4141413E7F090909063E4151A8
:10021000215E7F09192946264949493203017F0198
:10022000033F4040403F1F2040201F3F4038403F99
:10023000631408146303047804036159494D4300AF
:100240007F4141410204081020004141417F0402E6
:10025000010204404040404000030708002054547D
:1002600078407F284444383844444428384444285B
:100270007F385454541800087E090218A4A49C78AE
:100280007F0804047800447D40002040403D007F0A
:100290001028440000417F40007C047804787C08EA
:1002A0000404783844444438FC18242418182424BE
:1002B00018FC7C08040408485454542404043F44A3
:1002C000243C4040207C1C2040201C3C4030403CD2
:1002D00044281028444C9090907C4464544C440032
:1002E0000836410000007700000041360800020196
:1002F0000204023C2623263C1EA1A161123A404082
:10030000207A3854545559215555794122545478FE
:1003100042215554784020545579400C1E52721297
:100320003955555559395454545939555454580020
:1003300000457C410002457D420001457C407D1224
:1003400011127DF0282528F07C5455450020545486
:100350007C547C0A097F4932494949323A44444431
:100360003A324A4848303A4141217A3A424020786C
:10037000009DA0A07D3D4242423D3D4040403D3C6D
:1003800024FF2424487E4943662B2FFC2F2BFF0992
:1003900029F620C0887E0903205454794100004486
:1003A0007D413048484A32384040227A007A0A0A71
:1003B000727D0D19317D2629292F282629292926E4
:1003C00030484D4020380808080808080808382F29
:1003D00010C8ACBA2F102834FA00007B00000814B3
:1003E0002A142222142A14085500550055AA55AA89
:1003F00055AAFF55FF55FF000000FF00101010FF29
:1004000000141414FF001010FF00FF1010F010F083
:10041000141414FC001414F700FF0000FF00FF1474
:1004200014F404FC141417101F10101F101F1414C0
:10043000141F00101010F0000000001F101010100A
:100440001F10101010F010000000FF1010101010FE
:1004500010101010FF10000000FF140000FF00FF3C
:1004600000001F10170000FC04F4141417101714D8
:1004700014F404F40000FF00F714141414141414FA
:10048000F700F7141414171410101F101F1414146D
:10049000F4141010F010F000001F101F0000001FD7
:1004A00014000000FC140000F010F01010FF10FF0A
:1004B000141414FF141010101F00000000F010FF9F
:1004C000FFFFFFFFF0F0F0F0F0FFFFFF0000000083
:1004D00000FFFF0F0F0F0F0F3844443844FC4A4A07
:1004E0004A347E02020606027E027E0263554941BC
:1004F000633844443C04407E201E2006027E0202F3
:1005000099A5E7A5991C2A492A1C4C7201724C3006
:100510004A4D4D303048784830BC625A463D3E49DD
:100520004949007E0101017E2A2A2A2A2A44445F81
:10053000444440514A444040444A51400000FF0175
:1005400003E080FF000008086B6B08361236243683
:10055000060F090F060000181800000010100030E8
:1005600040FF0101001F01011E00191D1712003C70
:100570003C3C3C000000000000000000240027007C
:100580002A0000000000250028002B0004040404B9
:10059000040404040202020202020303030303032D
:1005A000010204081020408001020408102001020A
:1005B00004081020000000080002010000030407E6
:1005C00000000000000000008C2C8B2C11241FBEAA
:1005D000CFEFD8E0DEBFCDBF12E0A0E0B1E0E8E0B1
:1005E000F2E602C005900D92A63EB107D9F724E0CD
:1005F000A6EEB2E001C01D92A93AB207E1F712E0FF
:10060000C5EED2E004C02197FE010E94822FC43EB5
:10061000D107C9F70E940A1B0C94F7300C94000014
:100620006F927F928F929F92AF92BF92CF92DF9202
:10063000EF92FF920F931F93CF93DF93EC014B0147
:100640005A0169013801E881F9810284F385E02DBE
:100650000995E881F9810288F389E02D87019601E7
:10066000A501B401CE010995E881F981A501460DE6
:10067000571D415051090288F389E02D9601B401BC
:10068000CE010995E881F9810088F189E02D930177
:10069000A501B401CE010995E881F981C80CD91CE6
:1006A000B601615071090088F189E02D9301A5011F
:1006B000CE010995E881F9810688F789E02DCE0100
:1006C000DF91CF911F910F91FF90EF90DF90CF902E
:1006D000BF90AF909F908F907F906F900994CF9232
:1006E000DF92EF92FF920F931F93CF93DF9300D08F
:1006F00000D000D0CDB7DEB76C01DC01ED91FC91EC
:100700006217730789F4041715072CF4942F852FAB
:10071000A801092F182F041B150B98012F5F3F4FBD
:10072000048CF58DE02D12C04017510709F52617EE
:1007300037072CF4962F872FB901292F382F261B26
:10074000370B2F5F3F4F068CF78DE02D8701C601D9
:10075000099526960FB6F894DEBF0FBECDBFDF9188
:10076000CF911F910F91FF90EF90DF90CF90089560
:100770000284F385E02D2D833E834B835C83698364
:100780007A830995D601ED91FC910488F589E02DD5
:100790002D813E814B815C8169817A81C6010995F9
:1007A000D601ED91FC910688F789E02DC6012696C9
:1007B0000FB6F894DEBF0FBECDBFDF91CF911F9172
:1007C0000F91FF90EF90DF90CF900994EF92FF92FE
:1007D0000F931F93DC01ED91FC9111971A960D91E7
:1007E0001C911B9718962D913C91199700A0F1A18F
:1007F000E02D7B0140E050E060E070E009951F9142
:100800000F91FF90EF9008954F925F926F927F92B9
:100810008F929F92AF92BF92CF92DF92EF92FF9210
:100820000F931F93CF93DF9300D0CDB7DEB76C014A
:100830005A0139014801DC01ED91FC910284F385F4
:10084000E02D69837A8309956981462E7A81572E36
:10085000640C751CD601ED91FC91461457046CF4A0
:100860000088F189E02D87019401A501B201C6013C
:100870000995BFEF4B1A5B0AEDCF0688F789E02D8B
:10088000C6010F900F90DF91CF911F910F91FF90B4
:10089000EF90DF90CF90BF90AF909F908F907F9020
:1008A0006F905F904F900994AF92BF92CF92DF927A
:1008B000EF92FF920F931F93CF93DF9300D000D05E
:1008C000CDB7DEB75C016901DC01ED91FC910284DA
:1008D000F385E02D4B835C8369837A830995D50189
:1008E000ED91FC9169817A819B012C0D3D1D215078
:1008F00031090488F589E02D78014B815C818A01FA
:10090000C5010995D501ED91FC910688F789E02D87
:10091000C5010F900F900F900F90DF91CF911F9115
:100920000F91FF90EF90DF90CF90BF90AF90099420
:10093000AF92BF92CF92DF92EF92FF920F931F93ED
:10094000CF93DF9300D000D0CDB7DEB75C01690153
:10095000DC01ED91FC910284F385E02D4B835C83F7
:1009600069837A830995D501ED91FC914B815C8176
:10097000C40ED51EB1E0CB1AD1080488F589E02D4C
:100980007801860169817A819B01C5010995D501AC
:10099000ED91FC910688F789E02DC5010F900F902D
:1009A0000F900F90DF91CF911F910F91FF90EF90DB
:1009B000DF90CF90BF90AF9009940895EF92FF928F
:1009C0000F931F93DC01ED91FC9100A0F1A1E02DAC
:1009D00009951F910F91FF90EF9008950F931F932A
:1009E000DC01ED91FC91068CF78DE02D09951F91AE
:1009F0000F9108950F931F93DC01ED91FC91048CEE
:100A0000F58DE02D09951F910F910895DC01ED9171
:100A1000FC910084F185E02D099408952F923F9276
:100A20004F925F926F927F928F929F92AF92BF92FE
:100A3000CF92DF92EF92FF920F931F93CF93DF93AA
:100A400000D01F92CDB7DEB74C017B836A836A0169
:100A5000590117019801241B350B37FF03C031954D
:100A600021953109C5014A815B81841B950B97FF54
:100A700003C091958195910951E05983821793079D
:100A800014F019820BC09A2D8B2D5801092F182FA5
:100A90009A818B81DB82CA82C92ED82E8A819B8162
:100AA000A816B9065CF49C2D8D2D6801092F182F0E
:100AB0009A818B81BB82AA82A92EB82E2501AA8198
:100AC000BB814A1A5B0A38016C187D0877FE03C0A7
:100AD000719461947108720157FE03C0BFEFEB1A65
:100AE000FB0AF594E794C016D1061CF00FEF1FEF38
:100AF0001FC001E010E01CC0D401ED91FC91B98150
:100B00000484F585E02D9101BB23C1F04A815B810E
:100B1000B601C4010995E618F708F7FE04C0C00E37
:100B2000D11EE40CF51CEA81FB813196FB83EA833C
:100B30004A815B81A416B506FCF604C0A6016A8151
:100B40007B81E7CF0F900F900F90DF91CF911F9196
:100B50000F91FF90EF90DF90CF90BF90AF909F905C
:100B60008F907F906F905F904F903F902F9008955F
:100B7000EF92FF920F931F93DC01ED91FC9111977F
:100B80001A960D911C911B9718962D913C911997CF
:100B900000A0F1A1E02D7B0140E050E060E070E0BA
:100BA00009951F910F91FF90EF900895FC01838D9F
:100BB000811122C028E030E090E8A48DB58D84A595
:100BC000492F462319F04C91842B03C04C918095FA
:100BD00084238C93A68DB78D4C9185A5842B8C9303
:100BE000A68DB78D4C9185A5809584238C93969581
:100BF0002150310911F708956EBD0DB407FEFDCFE8
:100C00000895089580E090E00895FC0165830895BB
:100C10000F931F93CF93DF938C01EB0188E2FB01CD
:100C200011928A95E9F74BE050E06BE072E0CE015B
:100C30000E94E8301B8681E090E0A0E0B0E08C8765
:100C40009D87AE87BF87F80182859385A485B5858A
:100C5000888B998BAA8BBB8B85E090E0A0E0B0E0FD
:100C60008C8B9D8BAE8BBF8B1CA21DA21EA21FA2C4
:100C700080E090EDA4E8B6E4888F998FAA8FBB8FAF
:100C80001C8E1D8E1E8E1F8E80E090E0A0E8BFE3BC
:100C900088A399A3AAA3BBA3DF91CF911F910F9122
:100CA00008952F923F924F925F926F927F928F9210
:100CB0009F92AF92BF92CF92DF92EF92FF920F93EB
:100CC0001F93CF93DF93CDB7DEB76C970FB6F89431
:100CD000DEBF0FBECDBF9C8F8B8F5B011A011F83C0
:100CE0000E833701C982DC0158964D915C9159976A
:100CF0004115510509F0E5C018968D919C91199701
:100D0000681779070CF0CAC11A968D919C911B97B0
:100D1000281639060CF0C2C18C2C912CFB0136E050
:100D2000C39EE00DF11D1124FB87EA871E161F06E6
:100D30000CF0B4C1C40133E0880F991F3A95E1F774
:100D40009D878C87820D931D181619060CF0A6C17D
:100D500057968C91811103C0203B08F02F5FAB8D1B
:100D6000BC8DED91FC9111970284F385E02DCD01AE
:100D70002A8F09952A8DB5E02B9F90011124F5014A
:100D80003596FF87EE87BB82AA822501A9014A1901
:100D90005B09598B488BC10108969B8B8A8BE8892C
:100DA000F989E40DF51DE858FF4F9491988761018A
:100DB0003D822C82A885A0FF13C0AB8DBC8DED9128
:100DC000FC91B981B13031F40484F585E02D2E8198
:100DD0003F8116C00684F785E02DEE80FF801AC0A3
:100DE000EE81FF816E167F06F1F0AB8DBC8DED912B
:100DF000FC91B981B13051F40484F585E02D930163
:100E0000A601B2018B8D9C8D09950DC00684F785D6
:100E1000E02D7301840194014C815D816A817B81A5
:100E20008B8D9C8D0995E885E695E887FFEFCF1AB5
:100E3000DF0A2C813D81280D391D3D832C834A8991
:100E40005B89C416D50609F0B5CF5FEF451A550A80
:100E50008A819B81880D991D9B838A83AE85BF857E
:100E60004A165B0609F09BCFEE81FF816E167F0666
:100E700009F4F2C0EB8DFC8DA081B181F981F130D4
:100E800079F4B5016B5F7F4F5096ED91FC915197CE
:100E9000830128E030E0A1018B8D9C8D0995DCC099
:100EA0006A857B85681979091E96ED91FC911F97DB
:100EB00073010C851D859401A1018B8D9C8D099575
:100EC000CBC0FA0134969491329765917491291BA5
:100ED000CB01B7E02B9F800D911D1124FA012591C4
:100EE00034913B8B2A8BFC01459154915B834A835F
:100EF000FC013296C490319654915E8732961491DB
:100F00003196D4908981823058F0612E012E000CE8
:100F10007708AD2D0D2C000CBB0BB987A88704C03A
:100F200019861886612C712CAB8DBC8DED91FC91CE
:100F300011970284F385E02DCD010995B9818B2E9F
:100F4000912C689CC001699C900D789C900D112497
:100F5000FC01EA0DFB1DFD87EC871C82712C612CC6
:100F6000E12F110FFF0B95012E0F3F1F3B872A87A3
:100F7000AC0CB11CA5014E0F5F1F5F8B4E8BC101E6
:100F80008D0D911DD7FC9A95998F888F4E8564168B
:100F900008F062C0862D90E048855985480F591F9A
:100FA000489D9001499D300D589D300D1124D90167
:100FB000A20DB31DB98BA88BAA84BB844C845D841D
:100FC000DC80BA85DB1AE88DF98DE80FF91FFD8BFF
:100FD000EC8B8D2D8A0D2E893F89A216B306B9F1AF
:100FE000877061F48A819B810196EA89FB89AA81D5
:100FF000BB81EA0FFB1F74909B838A8377FE20C01E
:10100000AB8DBC8DED91FC91B981B13061F404845C
:10101000F585E02D2E813F814C895D89B5018B8D51
:101020009C8D09950DC00684F785E02DEE80FF802C
:101030008401940148895989B2018B8D9C8D099551
:10104000770CEFEFAE1ABE0A480C591CC2CF3C8198
:101050003C0D3C8363949ACFAB8DBC8DED91FC919C
:1010600011970688F789E02DCD016C960FB6F8949C
:10107000DEBF0FBECDBFDF91CF911F910F91FF90CB
:10108000EF90DF90CF90BF90AF909F908F907F9028
:101090006F905F904F903F902F9009946C960FB691
:1010A000F894DEBF0FBECDBFDF91CF911F910F919E
:1010B000FF90EF90DF90CF90BF90AF909F908F9078
:1010C0007F906F905F904F903F902F900895CF93B7
:1010D000DF93EC01E8A1F9A190818FA5892B808392
:1010E000EE8DFF8D90818DA5809589238083ECA165
:1010F000FDA190818EA5809589238083CE010E94D9
:10110000D605ECA1FDA190818EA5892B8083DF916E
:10111000CF910895CF93DF93EC01E8A1F9A19081DD
:101120008FA5809589238083EE8DFF8D90818DA57D
:10113000809589238083ECA1FDA190818EA5809567
:1011400089238083CE010E94D605ECA1FDA1908168
:101150008EA5892B8083DF91CF910895611102C004
:1011600060E201C061E20C948A081F93CF93DF9381
:10117000EC01162F66E30E948A08612F63706D8B65
:10118000623041F0633089F0613011F068E403C0EF
:1011900068E20CC068E8CE010E94670880EF90E02A
:1011A0009987888780E491E00AC068EECE010E94AA
:1011B000670880E491E09987888780EF90E09B87BB
:1011C0008A87DF91CF911F910895CF92DF92FF928E
:1011D0000F931F93CF93DF9300D000D01F92CDB712
:1011E000DEB76C01F62E6AE22B833A834D835C8373
:1011F00079830E948A087981672FC6010E94670857
:101200006F2DC6010E9467083A81632FC6010E94B4
:1012100067082B81622FC6010E9467086BE2C60136
:101220000E948A085C81652FC6010E9467084D8173
:10123000642FC6010E946708612FC6010E946708DB
:10124000602FC6010E9467086CE2C6010F900F90E4
:101250000F900F900F90DF91CF911F910F91FF9002
:10126000DF90CF900C948A08AF92BF92CF92DF921A
:10127000EF92FF920F931F93CF93DF93EC015901ED
:10128000680128853985621773070CF04EC08A857E
:101290009B85481759070CF048C0FB01EA0DFB1D60
:1012A0002E173F071CF45901A61AB70A9A012C0DF4
:1012B0003D1D821793071CF46C01C41AD50A8A01DC
:1012C0000C0D1D1D015011099B012A0D3B1D2150C4
:1012D0003109CE010E94E508E8A1F9A190818FA50E
:1012E000892B8083ECA1FDA190818EA58095892317
:1012F00080831C141D049CF48501101611065CF4F7
:101300006F2DCE010E94D6056E2DCE010E94D6050E
:1013100001501109F2CF81E0C81AD108EACFECA13F
:10132000FDA190818EA5892B8083DF91CF911F91A4
:101330000F91FF90EF90DF90CF90BF90AF90089506
:10134000CF92DF92EF92FF920F931F93CF93DF9391
:10135000EC017901D02EC12E88859985681779070F
:10136000CCF52A853B8542175307A4F59B012E0D2A
:101370003F1D821793071CF47C01E61AF70A9B01B4
:101380002E0D3F1D215031098A01CE010E94E50832
:10139000E8A1F9A190818FA5892B8083ECA1FDA103
:1013A00090818EA5809589238083E114F10461F0FA
:1013B0006C2DCE010E94D6056D2DCE010E94D60562
:1013C00081E0E81AF108F1CFECA1FDA190818EA592
:1013D000892B8083DF91CF911F910F91FF90EF9028
:1013E000DF90CF900895CF92DF92EF92FF920F930C
:1013F0001F93CF93DF93EC017901D02EC12E888506
:10140000998568177907CCF58A859B854817590710
:10141000A4F59A012E0D3F1D821793071CF47C0141
:10142000E41AF50A8A010E0D1F1D015011099B01D6
:10143000CE010E94E508E8A1F9A190818FA5892B32
:101440008083ECA1FDA190818EA580958923808366
:10145000E114F10461F06C2DCE010E94D6056D2DD2
:10146000CE010E94D60581E0E81AF108F1CFECA187
:10147000FDA190818EA5892B8083DF91CF911F9153
:101480000F91FF90EF90DF90CF900895EF92FF9231
:101490000F931F93CF93DF93EC0177FD32C08885C4
:1014A0009985681779076CF557FD2BC08A859B8550
:1014B0004817590734F5E32EF22E8A010F5F1F4FAC
:1014C0009B012F5F3F4FCE010E94E508E8A1F9A1E3
:1014D00090818FA5892B8083ECA1FDA190818EA5A1
:1014E0008095892380836E2DCE010E94D6056F2DB5
:1014F000CE010E94D605ECA1FDA190818EA5892B7D
:101500008083DF91CF911F910F91FF90EF9008950D
:101510000F931F93CF93DF93EC018B018C8181118B
:1015200003C0CE010E94BD0C23E030E040E050E05B
:1015300060E8CE010E94960C2E813F81202B312B3A
:10154000032E000C440B550B61E8CE010E94960C53
:1015500019870887CE01DF91CF911F910F910C94CD
:10156000B70C4F925F926F927F928F929F92AF9241
:10157000BF92CF92DF92EF92FF920F931F93CF9380
:10158000DF93CDB7DEB729970FB6F894DEBF0FBE55
:10159000CDBF8C017B0184E2FB0111928A95E9F7B2
:1015A00084E290E0A0E0B0E0FB0180839183A2831D
:1015B000B383F80182859385A485B585FB01848377
:1015C0009583A683B78385E090E0A0E0B0E08087B4
:1015D0009187A287B3870E944019F701608B718BB6
:1015E000828B938BF8018481811103C0C8010E9412
:1015F000BD0CF801858181110AC0AE014B5F5F4FC0
:10160000BE01695F7F4FC8010E94340D59C020E0C0
:10161000F80186819781009799F0019741F478EC61
:10162000872E912CE0EAAE2EECE8BE2E10C054EFCF
:10163000852E9924939468E1A62E66EFB62E07C0F6
:1016400034E6832E912C42EFA42E42E1B42EAE015B
:101650004F5F5F4FBE016D5F7F4FC80129870E94BA
:10166000340D8B819C812985211124C08815990511
:1016700040F4F80120853185232BE1F460E170E02E
:101680000BC0A816B906B0F4F801208531852031C9
:10169000310581F460E070E0C8010E94880AAE0163
:1016A0004F5F5F4FBE016D5F7F4FC8010E94340DD9
:1016B00021E0AECF98878F8389819A819E838D8325
:1016C000CD80DE80AF81B885F80186819781009753
:1016D00049F08130910519F428E830E905C028EE79
:1016E0003DEF02C024E233E12A173B0708F4CBC0E8
:1016F0002C153D0508F4C7C0009779F0019739F41F
:1017000097EE492E9FE0592E612C712C0CC0412C74
:1017100084E0582E612C712C06C0F7E14F2EF5E7BE
:101720005F2E612C712CF80180859185892B39F40D
:10173000E4E0440C551C661C771CEA95D1F7A30124
:1017400092010E94882F4B015C016AE0B694A79435
:10175000979487946A95D1F7D6010E94882F2B0120
:101760003C017AE076946794579447947A95D1F740
:1017700081149104A104B10471F0C301B2014AE0E3
:10178000660F771F881F991F4A95D1F7A50194010D
:101790000E94602F03C020E030E0A901DA01C901F6
:1017A0000196A11DB11DB695A79597958795813492
:1017B0009105A105B10530F181389105A105B1056B
:1017C00030F1813C9105A105B10530F18130F1E0A6
:1017D0009F07A105B10528F1893321E09207A105F2
:1017E000B10520F18B3931E09307A105B10518F15E
:1017F0008B399240A105B10518F1E0E0F0E0A0E0DE
:10180000B0E022C0EEEBF1E0A2EFB1E01DC0E1EDEF
:10181000F2E0A4E1B2E018C0EBE7F3E0AFE3B2E03E
:1018200013C0EEEFF3E0A0E7B2E00EC0ECEFF1E0A2
:10183000AFE6B1E009C0EBEFF0E0A2EDB0E004C02C
:10184000E2E1F0E0A8E1B0E0A50194010E94882F58
:101850004B015C0150E2950EA11CB11CDF01A301FC
:1018600092010E94882FA5019401261B370B480B7B
:10187000590BCA01B9012EE0969587957795679522
:101880002A95D1F703C060E070E0CB010E94232EBF
:10189000F701648B758B868B978B81E029960FB649
:1018A000F894DEBF0FBECDBFDF91CF911F910F9196
:1018B000FF90EF90DF90CF90BF90AF909F908F9070
:1018C0007F906F905F904F9008950895CF93DF932E
:1018D000EC018B8191E0909399038093BB0310926C
:1018E0009A031092BC038AE594E00E947C1381E085
:1018F0000E94BF178B8162E070E0082E000C990BEC
:101900000E941C188AE594E00E943013EC018AE5DD
:1019100094E00E94301320E030E0382FC9018C2B76
:101920009D2BDF91CF9108950C944B30CF93DF9393
:101930001F92CDB7DEB7FC01838191E090939903AC
:101940008093BB0310929A031092BC038AE594E043
:1019500029830E947C132981622F8AE594E00E94EA
:101960007C1381E00F90DF91CF910C94BF1720E0A2
:1019700030E0A90160E80C94960C0F931F93CF936D
:10198000DF93EC01109251031092500310929A03CE
:101990001092BC031092980311E0109397031092D9
:1019A000720361E082E10E94671861E083E10E94B6
:1019B00067188091B9008E7F8093B9008091B9003B
:1019C0008D7F8093B90088E48093B80085E480938C
:1019D000BC008B81109399038093BB0310929A03F0
:1019E0001092BC036AE08AE594E00E947C1381E0D7
:1019F0000E94BF178B8161E070E0082E000C990BEC
:101A00000E941C188AE594E00E9430138A7031F11C
:101A10001C830E811F8123E030E040E050E060E84D
:101A2000CE010E94960C28853985202B312B032E60
:101A3000000C440B550B61E8CE010E94960C1F83ED
:101A40000E83CE010E94B70C68857985CE010E9475
:101A5000880ACE010E94B70C81E001C080E0DF91CE
:101A6000CF911F910F910895EF92FF920F931F93C3
:101A7000CF93DF93EC017B018A0123E030E040E06B
:101A800050E060E80E94960C8E819F81009739F0AB
:101A9000019751F468E770E080E090E009C06FE0E2
:101AA00070E080E090E004C062EC71E080E090E0E3
:101AB0000E9406196CEACE010E94660CF701918320
:101AC00080836EEACE010E94660CF80191838083C8
:101AD000CE01DF91CF911F910F91FF90EF900C9469
:101AE000B70C0F931F93CF93DF93EC0160E089E075
:101AF0000E946718AE014770552793E0440F551FA9
:101B00009A95E1F7406C4EBD00000DB407FEFDCF85
:101B10008EB58170182F110F00E01EBC00000DB4AF
:101B200007FEFDCF9EB5292F30E0220F331F1EBCCC
:101B300000000DB407FEFDCF8EB5881F8827881FD3
:101B4000282B022B132B61E089E00E94671863E1C8
:101B500072E08DEB93E00E94081BBE018DEB93E0D9
:101B60000E947A1661E272E08DEB93E00E94081BFE
:101B700065E272E08DEB93E00E94081BC801DF91E3
:101B8000CF911F910F910895089588309105D0F558
:101B9000FC01EC5CFF4F0C94822F60E001C061E01F
:101BA00087E00E94671860E086E00E94671860E0A6
:101BB00085E00E946718089560E003C060E007C0F8
:101BC00061E087E00E94671861E0EECF61E087E0A6
:101BD0000E94671860E005C060E087E00E94671817
:101BE00061E086E00E94671861E0E2CF61E087E093
:101BF0000E94671861E086E00E94671861E085E056
:101C00000E94671808958F929F92AF92BF92CF92D1
:101C1000DF92EF92FF928091FE029091FF028B354E
:101C2000910564F060E084E00E94671860E084E061
:101C30000E94671880E090E00E94F7306091FC02FB
:101C40007091FD02072E000C880B990B0E94252E27
:101C50006B017C018090F0029090F102A090F20262
:101C6000B090F30220E030E040E050E4C501B40160
:101C70000E940A2D9B01AC01C701B6010E94D52E1E
:101C800018165CF460E084E00E94671860E083E06E
:101C90000E9467188FEF9FEF12C0A5019401C70142
:101CA000B6010E94762D87FF0FC061E084E00E949C
:101CB000671860E083E00E94671881E090E09093ED
:101CC000E7028093E60204C01092E7021092E60257
:101CD0008091FA029091FB02899714F060E001C0B4
:101CE00061E082E00E946718FF90EF90DF90CF9054
:101CF000BF90AF909F908F900895CF92DF92EF9218
:101D0000FF920F931F93CF93DF936C01EB01209110
:101D10007C0430917D04EE24EA94FE2C08E210E06D
:101D20004BE450E060E070E084E794E00E94340906
:101D300085E08093880410928704109286041092A4
:101D40008504109284048AE0C816D1043CF084E62D
:101D5000C816D10434F024EE3FEF05C02CE130E08A
:101D600002C020E030E02B583F4F30938104209395
:101D700080040BE410E01093830400938204B60106
:101D800084E794E00E947A168CE890E090938104B6
:101D90008093800410938304009382046CE272E0C9
:101DA00084E794E00E94081BCA30D1059CF48EEBB6
:101DB00090E09093810480938004109383040093B7
:101DC000820460E070E084E794E00E947A168CE17F
:101DD00090E002C080E090E082549F4F9093810495
:101DE000809380048BE490E090938304809382043A
:101DF000BE0184E794E0DF91CF911F910F91FF9096
:101E0000EF90DF90CF900C947A16CF92DF92EF9202
:101E1000FF920F931F93CF93DF9360E372E08DEBFC
:101E200093E00E94081BC4E7D4E00A851B8528853F
:101E30003985A801425351098FEEE82E8BE7F82E21
:101E400060E070E0CE010E943409EE24EA94FE2C9A
:101E5000FB8AEA8AF98AE88A83E08C8B8AE090E040
:101E60009D878C8728ECC22ED12CDF86CE864091B0
:101E7000F0025091F1026091F2027091F30220E0C1
:101E8000CE010E94261A28E136EC43E050E06BECCC
:101E900070E082E390E00E94D81688E390E09D878E
:101EA0008C87DF86CE8608E116EC1B8B0A8B198B9C
:101EB000088B6FE372E0CE010E94081B8AE590E078
:101EC0009D878C87DF86CE86FB8AEA8AF98AE88A34
:101ED0004091E8025091E9026091EA027091EB02B0
:101EE00020E0CE010E94261A1B8B0A8B198B088BCF
:101EF00061E472E0CE010E94081B82ED90E09D87B4
:101F00008C87DF86CE86FB8AEA8AF98AE88A409146
:101F1000EC025091ED026091EE027091EF0220E030
:101F2000CE010E94261A1B8B0A8B198B088B65E445
:101F300072E0CE01DF91CF911F910F91FF90EF9052
:101F4000DF90CF900C94081BEF92FF920F931F939A
:101F5000CF93C82F20917C0430917D04EE24EA9425
:101F6000FE2C04E610E04CE350E060E070E084E713
:101F700094E00E94340983E08093880410928704DF
:101F8000109286041092850410928404C23021F1CC
:101F9000C33089F1C13009F045C08CE390E09093E3
:101FA00081048093800486E490E09093830480937E
:101FB000820469E472E084E794E00E94081B84E6EE
:101FC00090E09093810480938004909383048093A5
:101FD000820466E572E01DC080E590E09093810484
:101FE0008093800482E890E090938304809382043D
:101FF0006FE572E00EC08DE290E0909381048093D3
:10200000800482E890E090938304809382046AE6DF
:1020100072E084E794E0CF911F910F91FF90EF90D1
:102020000C94081BCF911F910F91FF90EF90089592
:102030008F929F92AF92BF92EF92FF920F931F9356
:10204000CF93DF93C091FC02D091FD028EE00E94FD
:10205000EF18BC01990F880B990B0E94252E20E0E8
:1020600030E040EA50E40E94DA2E20E030E040E820
:102070005AE30E94DA2E20E030E040E05FE30E9465
:10208000092D20E030E048EC52E40E94DA2E0E9454
:10209000ED2D4B015C017093FD026093FC028FE01B
:1020A0000E94EF18BC01990F880B990B0E94252EF6
:1020B00020E030E040EA50E40E94DA2E20E030E0F8
:1020C00040E85AE30E94DA2E20E030E040E05FE38F
:1020D0000E94092D20E030E048EC52E40E94DA2E04
:1020E0000E94ED2D7093FB026093FA0280E10E9442
:1020F000EF18BC01990F880B990B0E94252E20E048
:1021000030E040EA50E40E94DA2E20E030E040E87F
:102110005AE30E94DA2E20E030E040E05FE30E94C4
:10212000092D20E030E048EC52E40E94DA2E0E94B3
:10213000ED2D7093FF026093FE028C169D0609F44C
:1021400080C0109287041092860410928504109229
:10215000840482E080938804EE24EA94FE2C04E157
:1021600010E029E130E04AEA50E064E670E084E7FC
:1021700094E00E94340984E690E090938104809377
:1021800080048AEA90E09093830480938204B401EF
:1021900084E794E00E947A1668E772E084E794E0AE
:1021A0000E94081B20E030E042E050E06CEA70E062
:1021B00082E890E00E94D81626E930E04AEA50E032
:1021C0006AEA70E084E794E00E9434098091E602B4
:1021D0009091E7028130910569F480E098EF909347
:1021E00087048093860490938504809384046EE72B
:1021F00072E019C0019669F48FE190E09093870432
:1022000080938604909385048093840466E872E04A
:102210000AC01092870410928604109285041092CE
:10222000840460E972E084E794E0DF91CF911F912C
:102230000F91FF90EF90BF90AF909F908F900C9474
:10224000081BDF91CF911F910F91FF90EF90BF90EE
:10225000AF909F908F90089580E090E00E94710D64
:10226000813293404CF081E090E09093F5028093AE
:10227000F40288E992E006C01092F5021092F4028E
:1022800086EA92E00E94C51681E090E00E94710DFE
:10229000BC0180E090E00E94232E9B01AC0160E035
:1022A00070E080E894E40E94092D20E030E040E8EE
:1022B0005AE30E94DA2E20E030E044E352E40E9428
:1022C000DA2E20E030E040EA51E40E940A2D0E941C
:1022D000ED2D072E000C880B990B0E94252E609384
:1022E000F0027093F1028093F2029093F30264EB98
:1022F00072E08DEB93E00E94081B6091F0027091F8
:10230000F1028091F2029091F3020E94B01683E0F4
:1023100090E00E94710DBC0180E090E00E94232EAD
:102320009B01AC0160E070E080E894E40E94092D1C
:1023300020E030E040E85AE30E94DA2E20E030E06E
:102340004BE653E40E94DA2E20E030E040EA50E40D
:102350000E947B2D0E94ED2D072E000C880B990BFF
:102360000E94252E20E030E040EA50E40E94DA2E60
:1023700020E030E040EA50E40E940A2D6093EC0235
:102380007093ED028093EE029093EF026FEB72E098
:102390008DEB93E00E94081B6091EC027091ED02BE
:1023A0008091EE029091EF020E94B01682E090E0E0
:1023B0000E94710DBC0180E090E00E94232E9B01E1
:1023C000AC0160E070E080E894E40E94092D20E018
:1023D00030E040E85AE30E94DA2E20E030E040EEA0
:1023E00050E40E94DA2E0E94ED2D072E000C880B7F
:1023F000990B0E94252E6093E8027093E902809366
:10240000EA029093EB026BEC72E08DEB93E00E949A
:10241000081B6091EC027091ED028091EE029091A8
:10242000EF020C94B016FC01538D448D252F30E043
:10243000842F90E0821B930B541710F0CF960895D1
:1024400001970895FC01918D828D981761F0828D1E
:10245000DF01A80FB11D5D968C91928D9F5F9F73D8
:10246000928F90E008958FEF9FEF0895FC01918D7A
:10247000828D981731F0828DE80FF11D858D90E0E7
:1024800008958FEF9FEF0895FC01918D228D892F84
:1024900090E0805C9F4F821B91098F73992708956C
:1024A0008DEB93E00E94441221E0892B09F420E097
:1024B000822F0895FC01848DDF01A80FB11DA35A5E
:1024C000BF4F2C91848D90E001968F739927848F54
:1024D000A689B7892C93A089B1898C9180648C934B
:1024E000938D848D981306C00288F389E02D808136
:1024F0008F7D80830895EF92FF920F931F93CF9368
:10250000DF93EC0181E0888F9B8D8C8D981305C043
:10251000E889F989808185FD24C0F62E0B8D10E0B5
:102520000F5F1F4F0F731127E02E8C8DE8120CC028
:102530000FB607FCFACFE889F989808185FFF5CFCE
:10254000CE010E945A12F1CF8B8DFE01E80FF11DD2
:10255000E35AFF4FF0820B8FEA89FB89808180620A
:1025600007C0EE89FF896083E889F98980818064EA
:10257000808381E090E0DF91CF911F910F91FF90D8
:10258000EF900895CF93DF93EC01888D8823C9F0F5
:10259000EA89FB89808185FD05C0A889B9898C916C
:1025A00086FD0FC00FB607FCF5CF808185FFF2CF07
:1025B000A889B9898C9185FFEDCFCE010E945A126E
:1025C000E7CFDF91CF91089580E090E0892B29F04B
:1025D0000E94501281110C940000089585ED8093A3
:1025E000BC008091BC0084FDFCCF1092980308953C
:1025F00040912303262F30E0240F311D2132310575
:10260000DCF4209198032430C9F4FC0180E090E0D0
:10261000861758F4309123032191DC01AF5FBC4F42
:10262000A30FB11D2C930196F3CF80912303680F64
:102630006093230380E0089581E0089582E0089587
:102640000895E091510380915003E81730F4F0E0D1
:10265000EE5AFC4F808190E008958FEF9FEF089530
:102660009091510380915003981750F4E92FF0E0B6
:10267000EE5AFC4F208130E09F5F9093510302C0DF
:102680002FEF3FEFC90108958091500390E0209112
:102690005103821B91090895CF92DF92EF92FF922E
:1026A0000F931F93CF93DF937C01262F972F8A01DF
:1026B00080919903882391F0C62FD72F6E01C40E05
:1026C000D51ECC15DD0571F06991D701ED91FC9116
:1026D0000190F081E02DC7010995F3CF642F822F7F
:1026E0000E94F812C801DF91CF911F910F91FF90C6
:1026F000EF90DF90CF900895CF93DF931F92CDB7E7
:10270000DEB76983209199032223D1F02091BC0385
:10271000203240F021E030E0FC013383228380E06E
:1027200090E015C080919A03E82FF0E0E556FC4F49
:10273000998190838F5F80939A038093BC0305C037
:1027400061E0CE0101960E94F81281E090E00F90C6
:10275000DF91CF9108950895FC016370658B8481AA
:10276000958126813781613039F0633029F0918776
:1027700080873387228708953187208793878287D0
:1027800008950E94E330AF92BF92CF92EF92FF92F2
:102790000F931F93CF93DF93EC01262F888D998D94
:1027A000009709F040C06A3059F41D861C862C89B8
:1027B0008E859F8538E0239F800D911D112441C097
:1027C0006D3009F4AAC08E898823C1F03C898C85BC
:1027D0009D8546E0349F800D911D112448855985C3
:1027E000481759075CF41D861C868E859F8548E036
:1027F000349F800D911D11249F878E87EA88FB8866
:10280000088919894E855F856C857D85CC88CE01C8
:102810000E9451062C898C859D8536E0239F800D72
:10282000911D112442C06A3079F41D861C862C89C2
:10283000FC013696E4918E859F852E9F800D911D1B
:1028400011249F878E8769C06D3009F466C0FC0132
:1028500034963491631708F460C03196E491E6171A
:1028600008F45BC0FC013296A590B490462F50E06E
:10287000431B510937E0349FB001359F700D11247F
:10288000A60EB71EF501329634913196E4913323AA
:1028900011F0E1110DC0F5013496E4912C898C857D
:1028A0009D85E29F800D911D11249D878C8735C0E9
:1028B000F501359644915E89552311F16C89E32F1A
:1028C000F0E0E40FF11D47FDFA956E9FD0016F9F78
:1028D000B00D11244C855D854A0F5B1FE885F98595
:1028E000E417F5076CF41D861C86FC013696E4910E
:1028F0008E859F856E9F800D911D11249F878E87E9
:10290000EA88FB88088919894E855F856C857D85F5
:10291000CC88CE010E945106BECF81E090E0DF91CD
:10292000CF911F910F91FF90EF90CF90BF90AF90FC
:1029300008951F920F920FB60F9211242F933F9379
:102940004F935F936F937F938F939F93AF93BF93B7
:10295000EF93FF938DEB93E00E945A12FF91EF915A
:10296000BF91AF919F918F917F916F915F914F91A7
:102970003F912F910F900FBE0F901F9018951F92AF
:102980000F920FB60F9211242F938F939F93EF9373
:10299000FF93E091CD03F091CE038081E091D303CA
:1029A000F091D40382FD12C090818091D6038F5F95
:1029B0008F732091D703821751F0E091D603F0E096
:1029C000E354FC4F958F8093D60301C08081FF9123
:1029D000EF919F918F912F910F900FBE0F901F90AD
:1029E00018951F920F920FB60F9211242F933F93B9
:1029F0004F935F936F937F938F939F93AF93BF9307
:102A0000EF93FF938091B900887F803609F49CC0D2
:102A100068F5883209F45BC090F4803109F454C041
:102A200038F4882309F4F6C0883009F44DC0F6C0A4
:102A3000883109F44CC0803209F45DC0EFC08034A5
:102A400009F468C048F4803309F455C0883309F0AC
:102A5000E5C080939603D8C0803509F44FC088350F
:102A600009F45DC0883409F0D9C0D6C0883909F4AA
:102A7000C7C0A8F4883709F467C038F4883609F469
:102A800063C0803709F460C0C9C0883809F4B8C091
:102A9000803909F45FC0803809F0C0C05BC0803B5A
:102AA00009F486C038F4803A09F466C0883A09F41B
:102AB0007FC0B4C0803C09F4A7C0883C09F4A4C01E
:102AC000883B09F48AC0AAC08091730310C090911A
:102AD000950380919403981770F5E091950381E038
:102AE0008E0F80939503F0E0EC58FC4F808180932B
:102AF000BB0085EC86C0809396038EC0E091950361
:102B000081E08E0F809395038091BB00F0E0EC583C
:102B1000FC4F808390919503809194036EC0E09167
:102B2000950381E08E0F809395038091BB00F0E0C8
:102B3000EC58FC4F80838091970381116DC081E038
:102B40008093720384EA61C083E0809398031092BB
:102B50004703CFCF80914703803208F051C0E09106
:102B6000470381E08E0F809347038091BB00F0E024
:102B7000E95DFC4F8083BDCF85EC8093BC00109253
:102B8000980380914703803230F4E0914703F0E0EE
:102B9000E95DFC4F10826091470370E0E0912503EE
:102BA000F091260387E293E009951092470336C01F
:102BB00084E0809398031092240310922303E09101
:102BC0002103F0912203099580912303811105C00F
:102BD00081E08093230310920103E091240381E0BC
:102BE0008E0F80932403F0E0EF5FFC4F8081809391
:102BF000BB009091240380912303981708F479CFA8
:102C000085E88093BC000AC085EC8093BC001092DC
:102C1000980304C0109296030E94EE12FF91EF9168
:102C2000BF91AF919F918F917F916F915F914F91E4
:102C30003F912F910F900FBE0F901F901895CF933B
:102C4000CFB7F89480910003811127C0E6E9F5E041
:102C50008491EAEAF5E09491E82FF0E0EE0FFF1F8F
:102C6000E858FA4FA591B491EC91E92321F461E081
:102C70008AE00E94671861E08AE00E94B3188CB570
:102C800080618CBD8CB580648CBD61E08DE00E945C
:102C9000B31861E08BE00E94B318809100038F5F4E
:102CA00080930003CFBFCF9108953FB7F8948091F0
:102CB0004C0390914D03A0914E03B0914F0326B564
:102CC000A89B05C02F3F19F00196A11DB11D3FBF64
:102CD000BA2FA92F982F8827820F911DA11DB11DF2
:102CE000BC01CD0142E0660F771F881F991F4A95EE
:102CF000D1F70895CF92DF92EF92FF920F931F9337
:102D0000CF93DF936B01770FEE08FF08F7FE1BC030
:102D1000EC016DE20E94C1198C0144275527BA01CC
:102D20004C195D096E097F092AE0CE010E94DD1968
:102D3000800F911FDF91CF911F910F91FF90EF9026
:102D4000DF90CF9008952AE0B701A601DF91CF91DF
:102D50001F910F91FF90EF90DF90CF900C94DD19B1
:102D6000CF93DF93AB01BC0122E08DEB93E00E9497
:102D7000261AEC0167ED72E08DEB93E00E94C81912
:102D80008C0F9D1FDF91CF910895CF93DF93BC01EE
:102D90008DEB93E00E94C819EC0167ED72E08DEBBA
:102DA00093E00E94C8198C0F9D1FDF91CF91089569
:102DB0002F923F924F925F926F927F928F929F924B
:102DC000AF92BF92CF92DF92EF92FF920F931F9339
:102DD000CF93DF9300D000D000D0CDB7DEB77C0119
:102DE0006B015E834D83890181E090E03C01641AB0
:102DF000750ACA019195819591099C01220F331F93
:102E00003A832983460F571F9801B70184E794E05E
:102E10000E940605A6018D819E81481B590B9801D1
:102E2000B70184E794E00E9406056D817E816E0DF6
:102E30007F1D9801A60184E794E00E940605B70172
:102E4000ED81FE816E1B7F0B9801A60184E794E063
:102E50000E940605A12CB12C21E030E03C832B839D
:102E60002D813E81A216B3060CF070C077FC0CC019
:102E70008D819E8101979E838D83E981FA813296AF
:102E8000FA83E9836E0E7F1EFFEFAF1ABF0A2B8114
:102E90003C812E5F3F4F3C832B83620E731E2501C6
:102EA0004E0C5F1C98018D809E808C0C9D1CA40193
:102EB000B20184E794E00E94060517012A183B0836
:102EC0009801A401B10184E794E00E9406059801ED
:102ED00046018D819E81881A990AA401B20184E776
:102EE00094E00E9406059801A401B10184E794E0F2
:102EF0000E94060545018C0C9D1C9801A4014D8083
:102F00005E804E0C5F1CB20184E794E00E940605CF
:102F10009801A4011701ED81FE812E1A3F0AB1012B
:102F200084E794E00E94060546018A189B089801F0
:102F3000A401B20184E794E00E9406059801A4016F
:102F4000B10184E794E00E9406058ACF26960FB669
:102F5000F894DEBF0FBECDBFDF91CF911F910F91CF
:102F6000FF90EF90DF90CF90BF90AF909F908F90A9
:102F70007F906F905F904F903F902F900895382FE3
:102F80002091BC039091BB03213208F049C080918D
:102F900098038111FCCF42E040939803309397034C
:102FA0003FEF309396031092950320939403ABE97F
:102FB000B3E044E753E0FA013E2F341B321718F414
:102FC0003D913193F9CF1092730320917303990FC0
:102FD000922B9093730390917203913061F410924D
:102FE0007203909173039093BB009091BC0093FD8A
:102FF000F8CF95EC01C095EE9093BC0090919803AA
:103000009230E1F3909196039F3F79F0809196037F
:10301000803241F080919603803331F084E005C026
:1030200081E003C082E001C083E010929A03109215
:10303000BC03109299030895909198039111FCCFCD
:10304000613208F060E291E09093980390939703C7
:103050002FEF2093960310929503260F209394034D
:103060009093730390917303880F892B809373035C
:1030700080917203813061F4109272038091730326
:103080008093BB008091BC0083FDF8CF85EC01C02C
:1030900085EE8093BC00809198038130E1F38091AC
:1030A0009503861710F460919503A4E7B3E022E539
:1030B00033E0F9018E2F821B861718F48D918193CE
:1030C000F9CF1092510360935003862F089590E03A
:1030D000FC01EC54FA4F3491FC01E056FA4F249174
:1030E000FC01E457FA4FE491EE2309F43BC033238B
:1030F00039F1333091F038F43130A9F0323001F544
:1031000084B58F7D12C0373091F03830A1F0343063
:10311000B9F4809180008F7D03C0809180008F770B
:10312000809380000DC084B58F7784BD09C08091E5
:10313000B0008F7703C08091B0008F7D8093B00086
:10314000F0E0EE0FFF1FEE57FA4FA591B4918FB745
:10315000F894EC91611103C020952E2301C02E2B11
:103160002C938FBF0895CF93DF9390E0FC01E0563E
:10317000FA4F2491FC01E457FA4F8491882361F1BE
:1031800090E0880F991FFC01E858FA4FC591D4913F
:10319000FC01EE57FA4FA591B491611109C09FB798
:1031A000F8948881209582238883EC912E230BC08C
:1031B000623061F49FB7F8943881822F8095832321
:1031C0008883EC912E2B2C939FBF06C08FB7F89469
:1031D000E8812E2B28838FBFDF91CF9108958E3009
:1031E00008F08E508770806480937C0080917A0014
:1031F000806480937A0080917A0086FDFCCF809174
:1032000078002091790090E0922B08958F929F9200
:10321000AF92BF92CF92DF92EF92FF926B017C014F
:103220000E9455164B015C01C114D104E104F10464
:10323000F1F00E945516DC01CB0188199909AA0901
:10324000BB09883E9340A105B10570F321E0C21A85
:10325000D108E108F10888EE880E83E0981EA11CD1
:10326000B11CC114D104E104F10419F7DDCFFF90C2
:10327000EF90DF90CF90BF90AF909F908F90089588
:103280002FB7F894609148037091490380914A03E5
:1032900090914B032FBF0895CF92DF92EF92FF9250
:1032A0000F931F93CF93DF936C017A018B01C0E0E2
:1032B000D0E0CE15DF0589F0D8016D918D01D601E2
:1032C000ED91FC910190F081E02DC6010995892BCB
:1032D00011F47E0102C02196ECCFC701DF91CF919E
:1032E0001F910F91FF90EF90DF90CF9008951F9264
:1032F0000F920FB60F9211242F933F938F939F93AA
:10330000AF93BF938091480390914903A0914A03E2
:10331000B0914B033091A40423E0230F2D3720F408
:103320000196A11DB11D05C026E8230F0296A11D1F
:10333000B11D2093A4048093480390934903A09364
:103340004A03B0934B0380914C0390914D03A0919D
:103350004E03B0914F030196A11DB11D80934C0304
:1033600090934D03A0934E03B0934F03BF91AF9141
:103370009F918F913F912F910F900FBE0F901F90B3
:103380001895DC01ED91FC910190F081E02D0994FC
:103390006115710579F0FB0101900020E9F7319783
:1033A000AF01461B570BDC01ED91FC910280F381CC
:1033B000E02D099480E090E008954F925F926F9223
:1033C0007F92EF92FF920F931F93CF93DF93CDB72E
:1033D000DEB7A1970FB6F894DEBF0FBECDBF7C015C
:1033E000FA01CB0119A2223008F42AE08E010F5D08
:1033F0001F4F422E512C612C712CBF01A301920151
:103400000E94602FF901CA01015011096A3014F4B9
:10341000605D01C0695CD8016C93232B242B252BA4
:1034200061F7B801C7010E94C819A1960FB6F894B8
:10343000DEBF0FBECDBFDF91CF911F910F91FF90E7
:10344000EF907F906F905F904F9008954F925F92B2
:103450006F927F928F929F92AF92BF92CF92DF92A4
:10346000EF92FF92CF93DF93EC016A017B01B22EC2
:103470009A01AB01C701B6010E94472F882319F0BA
:103480006AED72E027C026013701E89477F82FEF44
:103490003FEF4FE75FE7C301B2010E94472F811161
:1034A0000DC02FEF3FEF4FE75FE7C301B2010E946E
:1034B000762D18161CF46EED72E00CC02FEF3FEF66
:1034C0004FE75FE4C701B6010E94D52E18169CF4A1
:1034D00062EE72E0CE01DF91CF91FF90EF90DF902E
:1034E000CF90BF90AF909F908F907F906F905F90A4
:1034F0004F900C94C8192FEF3FEF4FE75FECC701D7
:10350000B6010E94762D87FDE3CF20E030E0A901CF
:10351000C701B6010E94762D87FF0AC06DE2CE0179
:103520000E94C1194C01F7FAF094F7F8F09402C028
:10353000812C912CA12C60E070E080E09FE3AB1423
:1035400041F020E030E040E251E40E947B2DA39462
:10355000F6CF9B01AC01C701B6010E940A2D2B01D9
:103560003C010E94F42D6B017C010E94232E9B01E3
:10357000AC01C301B2010E94092D2B013C012AE0DC
:10358000B701A601CE010E94DD197C01E80CF91CEF
:10359000BB2031F06EE2CE010E94C119E80EF91E87
:1035A000DB2CDD2029F120E030E040E251E4C301D2
:1035B000B2010E94DA2E2B013C010E94F42D4B0136
:1035C000A12CB12C2AE0B501A401CE010E94DD1985
:1035D000E80EF91EC501B4010E94232E9B01AC0127
:1035E000C301B2010E94092D2B013C01DA94D9CF0D
:1035F000C701DF91CF91FF90EF90DF90CF90BF9008
:10360000AF909F908F907F906F905F904F900895B4
:103610000C94C819CF93DF93CDB7DEB72B970FB6B5
:10362000F894DEBF0FBECDBF789484B5826084BDB0
:1036300084B5816084BD85B5826085BD85B58160B6
:1036400085BD80916E00816080936E001092810034
:1036500080918100826080938100809181008160EF
:1036600080938100809180008160809380008091B0
:10367000B10084608093B1008091B000816080933C
:10368000B00080917A00846080937A0080917A0003
:10369000826080937A0080917A00816080937A00C2
:1036A00080917A00806880937A001092C100E09146
:1036B000CD03F091CE0382E08083E091C903F091C5
:1036C000CA031082E091CB03F091CC038FEC80838E
:1036D0001092D503E091D103F091D20386E080836C
:1036E000E091CF03F091D003808180618083E091ED
:1036F000CF03F091D003808188608083E091CF0375
:10370000F091D003808180688083E091CF03F091B5
:10371000D00380818F7D808389E791E00E94C51668
:1037200087E0E6E0F1E0DE01119601900D928A95C6
:10373000E1F78EE088878FE0898780E18A8781E1E1
:103740008B8788E891E00E94C5168E010F5F1F4F9E
:103750006E0128E0C20ED11C0C151D0561F0F801A8
:10376000F1908F0161E08F2D0E94B31860E08F2DE2
:103770000E946718F1CF7E01FCE0EF0EF11C0E15E0
:103780001F0539F060E0F80181918F010E94B318A4
:10379000F6CF61E089E00E94671888E991E00E9415
:1037A000C51661E080919C040E94B31860E080918E
:1037B0009C040E94671861E080919B040E94B318EA
:1037C00061E080919A040E94B31820919A0430E03D
:1037D000F901E457FA4FE491F0E0EE0FFF1FEE57C6
:1037E000FA4F859194919093990480939804409115
:1037F0009B0450E0FA01E457FA4F8491E82FF0E07F
:10380000EE0FFF1FEE57FA4F859194919093950418
:1038100080939404F901E056FA4FE491E093A204F6
:10382000FA01E056FA4FE491E093A30480918F04EB
:10383000882379F00E941F168CB58C7F8CBD8DB5C6
:1038400081608DBD8CB58F7D8CBD8CB5837F8CBD2B
:103850004EC061E080919F040E94B31861E08091A6
:103860009D040E94B31860E080919E040E94B318EA
:1038700080919F0490E0FC01E457FA4FE491F0E05E
:10388000EE0FFF1FEE57FA4FA591B491B09393043A
:10389000A093920420919D0430E0F901E457FA4F7F
:1038A000E491F0E0EE0FFF1FEE57FA4F459154916F
:1038B0005093910440939004FC01E056FA4F849198
:1038C0008093A104F901E056FA4FE491E093A0043B
:1038D0009C91E82FE095E923EC93E0919004F0911E
:1038E000910490818091A00480958923808361E078
:1038F00080919C040E94671865E070E080E090E091
:103900000E94061960E080919C040E94671864E19F
:1039100070E080E090E00E94061961E080919C04D4
:103920000E94671866E970E080E090E00E94061946
:103930006FEE84E794E00E948A0863E084E794E0F5
:103940000E94670860E884E794E00E94670862E0EC
:1039500084E794E00E9467086FEC84E794E00E949B
:103960008A0860E084E794E00E94670861EC84E7DD
:1039700094E00E94670860E384E794E00E9467088F
:103980006DEE84E794E00E948A0864E684E794E0A0
:103990000E94670863E084E794E00E94670862E1A0
:1039A00084E794E00E94670861E884E794E00E945D
:1039B000670868EE84E794E00E948A0865E884E777
:1039C00094E00E94670860E084E794E00E94670842
:1039D00068E784E794E00E9467086BEC84E794E072
:1039E0000E948A0869E384E794E00E9467086CE219
:1039F00084E794E00E94670860E084E794E00E9416
:103A0000670864E384E794E00E94670862E084E763
:103A100094E00E94670867EF84E794E00E948A08B8
:103A200060E284E794E00E9467086AEE84E794E02D
:103A30000E948A0860E084E794E00E94670860E0E2
:103A400084E794E00E94670860EC84E794E00E94B9
:103A50008A0863E284E794E00E94670861EC84E7E7
:103A600094E00E948A0860E184E794E00E9467087D
:103A700065EC84E794E00E948A086EE384E794E0B2
:103A80000E94670868E284E794E00E94670867EC98
:103A900084E794E00E948A0866E884E794E00E9444
:103AA000670866E384E794E00E948A0868E484E794
:103AB00094E00E9467086AE384E794E00E948A0821
:103AC00065E584E794E00E94670861EB84E794E091
:103AD0000E948A0860E084E794E00E94670868E139
:103AE00084E794E00E94670866EB84E794E00E9414
:103AF0008A0868E084E794E00E94670862E884E747
:103B000094E00E94670867E284E794E00E946708F7
:103B100062EF84E794E00E948A0860E084E794E022
:103B20000E94670866E284E794E00E948A0861E0E8
:103B300084E794E00E94670860EE84E794E00E94C6
:103B40008A086FE084E794E00E94670861E384E7F5
:103B500094E00E9467086BE284E794E00E946708A3
:103B60006CE084E794E00E9467086EE084E794E0EC
:103B70000E94670868E084E794E00E9467086EE4AA
:103B800084E794E00E94670861EF84E794E00E9474
:103B9000670867E384E794E00E94670867E084E7CA
:103BA00094E00E94670860E184E794E00E9467085F
:103BB00063E084E794E00E9467086EE084E794E0A5
:103BC0000E94670869E084E794E00E94670860E06B
:103BD00084E794E00E94670861EE84E794E00E9425
:103BE0008A0860E084E794E00E9467086EE084E75A
:103BF00094E00E94670864E184E794E00E9467080B
:103C000063E084E794E00E94670861E184E794E060
:103C10000E94670867E084E794E00E94670861E318
:103C200084E794E00E94670861EC84E794E00E94D6
:103C3000670868E484E794E00E94670868E084E726
:103C400094E00E9467086FE084E794E00E946708B0
:103C50006CE084E794E00E94670861E384E794E005
:103C60000E94670866E384E794E00E9467086FE0BB
:103C700084E794E00E94670861E184E794E00E9491
:103C80008A0868E770E080E090E00E94061969E227
:103C900084E794E00E948A080E941F168CB58C7FEE
:103CA00081608CBD8DB581608DBD84EB91E00E94FB
:103CB000C51661E084E794E00E94B5086FEF7FEFDE
:103CC00084E794E00E94B80520917C0430917D0443
:103CD0008FEEE82E8BE7F82E03E210E040E050E094
:103CE00060E070E084E794E00E94340900917E0473
:103CF00010917F0420917C0430917D04A8014253EF
:103D0000510960E070E084E794E00E943409EE24F9
:103D1000EA94FE2C0BE410E02EE830E04FE050E097
:103D20006FE570E084E794E00E94340920E2E22E1F
:103D30002BEFF22E0AE010E025EE30E04AE050E0F2
:103D400066E670E084E794E00E946F030BE010E009
:103D500027EE30E04BE050E063E670E084E794E06B
:103D60000E946F030CE010E029EE30E04CE050E0E0
:103D700062E670E084E794E00E946F030DE010E0DB
:103D80002AEE30E04DE050E060E670E084E794E039
:103D90000E946F030EE010E02BEE30E04EE050E0AA
:103DA0006FE570E084E794E00E946F030FE010E09D
:103DB0002CEE30E04FE050E06FE570E084E794E0F7
:103DC0000E946F0300E110E02DEE30E040E150E092
:103DD0006FE570E084E794E00E946F0301E110E07A
:103DE00021EE30E041E150E06DE570E084E794E0E1
:103DF0000E946F032EEE30E041E150E062EE70E091
:103E000084E794E00E946F0302E110E027E630E0CF
:103E100042E150E06DE570E084E794E00E946F03BA
:103E20002EEE30E042E150E066EE70E084E794E090
:103E30000E946F0303E110E025E630E043E150E02B
:103E40006CE570E084E794E00E946F032FEE30E0B1
:103E500043E150E067EE70E084E794E00E946F0376
:103E600004E110E024E630E044E150E06DE570E06C
:103E700084E794E00E946F032FEE30E044E150E0CD
:103E800068EE70E084E794E00E946F0305E110E0C3
:103E900023E630E045E150E06CE570E084E794E033
:103EA0000E946F032FEE30E045E150E069EE70E0D4
:103EB00084E794E00E946F0306E110E022E630E020
:103EC00046E150E06CE570E084E794E00E946F0307
:103ED0002FEE30E046E150E06AEE70E084E794E0D7
:103EE0000E946F0307E110E022E630E047E150E076
:103EF0006CE570E084E794E00E946F032FEE30E001
:103F000047E150E06AEE70E084E794E00E946F03BE
:103F100008E110E022E630E048E150E06AE570E0B8
:103F200084E794E00E946F032FEE30E048E150E018
:103F30006BEE70E084E794E00E946F0309E110E00B
:103F400022E630E049E150E06AE570E084E794E081
:103F50000E946F03E12CF12C28ED30E049E150E0A4
:103F600064ED70E084E794E00E946F0330E2E32E9A
:103F70003BEFF32E2FEE30E049E150E06BEE70E0C6
:103F800084E794E00E946F030AE110E022E630E04B
:103F90004AE150E06AE570E084E794E00E946F0334
:103FA000E12CF12C2AED30E04AE150E062ED70E0C6
:103FB00084E794E00E946F0340E2E42E4BEFF42E7E
:103FC0002FEE30E04AE150E06BEE70E084E794E0E1
:103FD0000E946F030BE110E022E630E04BE150E07D
:103FE0006AE570E084E794E00E946F03E12CF12C15
:103FF00024ED30E04BE150E061ED70E084E794E0C7
:104000000E946F032BED30E04BE150E06AED70E071
:1040100084E794E00E946F0320EE30E04BE150E033
:104020006FED70E084E794E00E946F0350E2E52EAC
:104030005BEFF52E2FEE30E04BE150E06BEE70E0E1
:1040400084E794E00E946F030CE110E022E630E088
:104050004CE150E06AE570E084E794E00E946F0371
:10406000E12CF12C22ED30E04CE150E060ED70E00D
:1040700084E794E00E946F0321EE30E04CE150E0D1
:104080006FED70E084E794E00E946F0360E2E62E3B
:104090006BEFF62E2FEE30E04CE150E06BEE70E06F
:1040A00084E794E00E946F030DE110E022E630E027
:1040B0004DE150E06AE570E084E794E00E946F0310
:1040C000E12CF12C22E730E04DE150E06CE670E0AD
:1040D00084E794E00E946F0323E830E04DE150E074
:1040E0006CE770E084E794E00E946F0323E930E01E
:1040F0004DE150E06CE870E084E794E00E946F03CB
:1041000022EA30E04DE150E06BE970E084E794E0B2
:104110000E946F0327EB30E04DE150E06FEA70E062
:1041200084E794E00E946F0328EC30E04DE150E01A
:1041300060EC70E084E794E00E946F0322ED30E0D1
:104140004DE150E06FEC70E084E794E00E946F0373
:1041500028ED30E04DE150E066ED70E084E794E05A
:104160000E946F032CED30E04DE150E06BED70E00C
:1041700084E794E00E946F0322EE30E04DE150E0CE
:1041800060EE70E084E794E00E946F0370E2E72E37
:104190007BEFF72E2FEE30E04DE150E06BEE70E05C
:1041A00084E794E00E946F030EE110E022E630E025
:1041B0004EE150E06AE570E084E794E00E946F030E
:1041C000E12CF12C23E730E04EE150E06BE670E0AB
:1041D00084E794E00E946F0325E830E04EE150E070
:1041E0006AE770E084E794E00E946F0323E930E01F
:1041F0004EE150E06CE870E084E794E00E946F03C9
:1042000023EA30E04EE150E06AE970E084E794E0B0
:104210000E946F0329EB30E04EE150E06FEA70E05E
:1042200084E794E00E946F0328EC30E04EE150E018
:1042300060EC70E084E794E00E946F0322ED30E0D0
:104240004EE150E06FEC70E084E794E00E946F0371
:104250002CED30E04EE150E067ED70E084E794E053
:104260000E946F0323EE30E04EE150E061EE70E01B
:1042700084E794E00E946F03E0E2EE2EEBEFFE2E67
:104280002FEE30E04EE150E06BEE70E084E794E01A
:104290000E946F030FE110E022E630E04FE150E0B2
:1042A0006AE570E084E794E00E946F03E12CF12C52
:1042B00023E730E04FE150E06AE670E084E794E005
:1042C0000E946F0326E830E04FE150E069E770E0BC
:1042D00084E794E00E946F0323E930E04FE150E06F
:1042E0006BE870E084E794E00E946F0324EA30E01A
:1042F0004FE150E069E970E084E794E00E946F03C9
:104300002AEB30E04FE150E06FEA70E084E794E0A0
:104310000E946F0328EC30E04FE150E060EC70E069
:1043200084E794E00E946F0322ED30E04FE150E01B
:104330006FEC70E084E794E00E946F032BED30E0B7
:104340004FE150E069ED70E084E794E00E946F0374
:1043500023EE30E04FE150E061EE70E084E794E05E
:104360000E946F03F0E2EF2EFBEFFF2E2FEE30E006
:104370004FE150E06BEE70E084E794E00E946F0341
:1043800000E210E022E630E040E250E06AE570E052
:1043900084E794E00E946F03E12CF12C2EE630E0DC
:1043A00040E250E06AE670E084E794E00E946F0328
:1043B00022E730E040E250E061E770E084E794E01B
:1043C0000E946F0326E830E040E250E068E770E0CA
:1043D00084E794E00E946F032FE830E040E250E071
:1043E0006BE870E084E794E00E946F0325EA30E018
:1043F00040E250E068E970E084E794E00E946F03D7
:104400002BEB30E040E250E06FEA70E084E794E0AC
:104410000E946F0325EC30E040E250E060EC70E079
:1044200084E794E00E946F0322ED30E040E250E028
:1044300060ED70E084E794E00E946F0324EE30E0CA
:1044400040E250E061EE70E084E794E00E946F0388
:10445000A0E2EA2EABEFFA2E2FEE30E040E250E081
:104460006BEE70E084E794E00E946F0301E210E0DD
:1044700022E630E041E250E06AE570E084E794E053
:104480000E946F03E12CF12C2DE630E041E250E078
:104490006AE670E084E794E00E946F032CE730E066
:1044A00041E250E068E770E084E794E00E946F0327
:1044B00027E830E041E250E062E870E084E794E011
:1044C0000E946F032EE830E041E250E06BE870E0BC
:1044D00084E794E00E946F032BE930E041E250E072
:1044E00067E970E084E794E00E946F0325EA30E01A
:1044F00041E250E062EA70E084E794E00E946F03DA
:1045000022EB30E041E250E06FEA70E084E794E0B3
:104510000E946F032CEB30E041E250E067EB70E06B
:1045200084E794E00E946F0323EC30E041E250E026
:1045300060EC70E084E794E00E946F0322ED30E0CD
:1045400041E250E060ED70E084E794E00E946F0388
:1045500024EE30E041E250E061EE70E084E794E068
:104560000E946F03B0E2EB2EBBEFFB2E2FEE30E08C
:1045700041E250E06BEE70E084E794E00E946F034C
:1045800002E210E022E630E042E250E06AE570E04C
:1045900084E794E00E946F03E12CF12C2EE630E0DA
:1045A00042E250E06AE670E084E794E00E946F0324
:1045B0002BE730E042E250E067E770E084E794E008
:1045C0000E946F0327E830E042E250E064E870E0C8
:1045D00084E794E00E946F032EE830E042E250E06E
:1045E0006BE870E084E794E00E946F032AE930E012
:1045F00042E250E067E970E084E794E00E946F03D4
:1046000022EB30E042E250E06FEA70E084E794E0B1
:104610000E946F032CEB30E042E250E068EB70E068
:1046200084E794E00E946F0323EC30E042E250E024
:1046300060EC70E084E794E00E946F0322ED30E0CC
:1046400042E250E060ED70E084E794E00E946F0386
:104650002BED30E042E250E06AED70E084E794E058
:104660000E946F0323EE30E042E250E061EE70E022
:1046700084E794E00E946F0380E2E82E8BEFF82E2F
:104680002FEE30E042E250E06BEE70E084E794E021
:104690000E946F0303E210E022E630E043E250E0C4
:1046A0006AE570E084E794E00E946F03E12CF12C4E
:1046B00021E730E043E250E06AE670E084E794E00E
:1046C0000E946F032BE730E043E250E067E770E0C1
:1046D00084E794E00E946F0328E830E043E250E072
:1046E00064E870E084E794E00E946F0323E930E01F
:1046F00043E250E06BE870E084E794E00E946F03CF
:104700002AE930E043E250E067E970E084E794E0B2
:104710000E946F0322EB30E043E250E06FEA70E06A
:1047200084E794E00E946F032CEB30E043E250E01A
:1047300069EB70E084E794E00E946F0327EC30E0BF
:1047400043E250E060EC70E084E794E00E946F0385
:1047500022ED30E043E250E060ED70E084E794E069
:104760000E946F032BED30E043E250E068ED70E013
:1047700084E794E00E946F0322EE30E043E250E0D1
:1047800060EE70E084E794E00E946F0390E2E92E0F
:104790009BEFF92E2FEE30E043E250E06BEE70E03D
:1047A00084E794E00E946F0304E210E022E630E028
:1047B00044E250E06AE570E084E794E00E946F0311
:1047C000E12CF12C22E730E044E250E06AE670E0B0
:1047D00084E794E00E946F032AE730E044E250E06F
:1047E00067E770E084E794E00E946F0328E830E018
:1047F00044E250E065E870E084E794E00E946F03D3
:1048000023E930E044E250E06BE870E084E794E0B4
:104810000E946F032AE930E044E250E066E970E06C
:1048200084E794E00E946F0326EA30E044E250E01F
:104830006FE970E084E794E00E946F0322EB30E0C0
:1048400044E250E06FEA70E084E794E00E946F0376
:104850002CEB30E044E250E069EB70E084E794E058
:104860000E946F0327EC30E044E250E060EC70E01F
:1048700084E794E00E946F0322ED30E044E250E0D0
:1048800060ED70E084E794E00E946F032AED30E071
:1048900044E250E068ED70E084E794E00E946F032A
:1048A00022EE30E044E250E06EED70E084E794E008
:1048B0000E946F0320E2E22E2BEFF22E2FEE30E06B
:1048C00044E250E06BEE70E084E794E00E946F03F6
:1048D00005E210E022E630E045E250E06AE570E0F3
:1048E00084E794E00E946F03E12CF12C23E730E091
:1048F00045E250E06AE670E084E794E00E946F03CE
:104900002AE730E045E250E067E770E084E794E0B2
:104910000E946F0328E830E045E250E065E870E06F
:1049200084E794E00E946F0323E930E045E250E021
:104930006BE870E084E794E00E946F032AE930E0BE
:1049400045E250E066E970E084E794E00E946F037E
:1049500026EA30E045E250E06FE970E084E794E059
:104960000E946F0322EB30E045E250E06FEA70E016
:1049700084E794E00E946F032CEB30E045E250E0C6
:1049800069EB70E084E794E00E946F0327EC30E06D
:1049900045E250E060EC70E084E794E00E946F0331
:1049A00022ED30E045E250E060ED70E084E794E015
:1049B0000E946F0329ED30E045E250E067ED70E0C2
:1049C00084E794E00E946F0321EE30E045E250E07E
:1049D0006FED70E084E794E00E946F0330E2E32E15
:1049E0003BEFF32E2FEE30E045E250E06BEE70E04F
:1049F00084E794E00E946F0306E210E022E630E0D4
:104A000046E250E06AE570E084E794E00E946F03BC
:104A1000E12CF12C24E730E046E250E06EE670E055
:104A200084E794E00E946F032AE730E046E250E01A
:104A300067E770E084E794E00E946F0328E830E0C5
:104A400046E250E064E870E084E794E00E946F037F
:104A50002FE830E046E250E06BE870E084E794E055
:104A60000E946F032AE930E046E250E067E970E017
:104A700084E794E00E946F0326EA30E046E250E0CB
:104A80006FE970E084E794E00E946F0322EB30E06E
:104A900046E250E06FEA70E084E794E00E946F0322
:104AA0002CEB30E046E250E069EB70E084E794E004
:104AB0000E946F0325EC30E046E250E060EC70E0CD
:104AC00084E794E00E946F0323ED30E046E250E07B
:104AD00061ED70E084E794E00E946F0329ED30E01F
:104AE00046E250E067ED70E084E794E00E946F03D7
:104AF00021EE30E046E250E06FED70E084E794E0B4
:104B00000E946F0340E2E42E4BEFF42E2FEE30E0D4
:104B100046E250E06BEE70E084E794E00E946F03A1
:104B200007E210E022E630E047E250E06AE570E09C
:104B300084E794E00E946F03E12CF12C24E730E03D
:104B400047E250E060E770E084E794E00E946F0382
:104B50002BE730E047E250E067E770E084E794E05D
:104B60000E946F0327E830E047E250E064E870E01D
:104B700084E794E00E946F032EE830E047E250E0C3
:104B80006BE870E084E794E00E946F032AE930E06C
:104B900047E250E067E970E084E794E00E946F0329
:104BA00020EA30E047E250E06FE970E084E794E00B
:104BB0000E946F0326EA30E047E250E061EA70E0CD
:104BC00084E794E00E946F0322EB30E047E250E07C
:104BD0006FEA70E084E794E00E946F032CEB30E012
:104BE00047E250E068EB70E084E794E00E946F03D6
:104BF00023EC30E047E250E060EC70E084E794E0C2
:104C00000E946F0323ED30E047E250E061ED70E079
:104C100084E794E00E946F032BED30E047E250E020
:104C200067ED70E084E794E00E946F0321EE30E0CE
:104C300047E250E06FED70E084E794E00E946F037C
:104C400050E2E52E5BEFF52E2FEE30E047E250E02C
:104C50006BEE70E084E794E00E946F0308E210E0DE
:104C600022E630E048E250E06AE570E084E794E054
:104C70000E946F03E12CF12C24E730E048E250E081
:104C800061E770E084E794E00E946F032CE730E076
:104C900048E250E068E770E084E794E00E946F0328
:104CA00027E830E048E250E063E870E084E794E011
:104CB0000E946F032EE830E048E250E06BE870E0BD
:104CC00084E794E00E946F032BE930E048E250E073
:104CD00067E970E084E794E00E946F0325EA30E022
:104CE00048E250E062EA70E084E794E00E946F03DB
:104CF00022EB30E048E250E06FEA70E084E794E0B5
:104D00000E946F032BEB30E048E250E067EB70E06D
:104D100084E794E00E946F0323EC30E048E250E027
:104D200060EC70E084E794E00E946F0323ED30E0D4
:104D300048E250E061ED70E084E794E00E946F0388
:104D40002BED30E048E250E067ED70E084E794E05E
:104D50000E946F0321EE30E048E250E06FED70E01A
:104D600084E794E00E946F0360E2E62E6BEFF62E7C
:104D70002FEE30E048E250E06BEE70E084E794E024
:104D80000E946F0309E210E022E630E049E250E0C1
:104D90006AE570E084E794E00E946F03E12CF12C57
:104DA0002DE630E049E250E06AE670E084E794E006
:104DB0000E946F0324E730E049E250E060E770E0D2
:104DC00084E794E00E946F032EE730E049E250E070
:104DD00068E770E084E794E00E946F0326E830E023
:104DE00049E250E061E870E084E794E00E946F03DC
:104DF0002EE830E049E250E06BE870E084E794E0B0
:104E00000E946F032CE930E049E250E068E970E06D
:104E100084E794E00E946F0325EA30E049E250E025
:104E200061EA70E084E794E00E946F0323EB30E0D6
:104E300049E250E06FEA70E084E794E00E946F037B
:104E40002BEB30E049E250E066EB70E084E794E061
:104E50000E946F0323EC30E049E250E060EC70E028
:104E600084E794E00E946F0323ED30E049E250E0D4
:104E700061ED70E084E794E00E946F0328ED30E07C
:104E800049E250E066ED70E084E794E00E946F0331
:104E90002BED30E049E250E069ED70E084E794E00A
:104EA0000E946F0321EE30E049E250E06FED70E0C8
:104EB00084E794E00E946F0370E2E72E7BEFF72E09
:104EC0002FEE30E049E250E06BEE70E084E794E0D2
:104ED0000E946F030AE210E022E630E04AE250E06E
:104EE0006AE570E084E794E00E946F03E12CF12C06
:104EF00023E730E04AE250E06AE670E084E794E0BD
:104F00000E946F0326E830E04AE250E069E770E073
:104F100084E794E00E946F032EE830E04AE250E01C
:104F20006BE870E084E794E00E946F0324EA30E0CD
:104F30004AE250E068E970E084E794E00E946F0381
:104F40002AEB30E04AE250E06FEA70E084E794E058
:104F50000E946F0328EC30E04AE250E060EC70E021
:104F600084E794E00E946F0323ED30E04AE250E0D2
:104F700061ED70E084E794E00E946F0328ED30E07B
:104F80004AE250E066ED70E084E794E00E946F032F
:104F90002CED30E04AE250E069ED70E084E794E007
:104FA0000E946F0321EE30E04AE250E06FED70E0C6
:104FB00084E794E00E946F03E0E2EE2EEBEFFE2E1A
:104FC0002FEE30E04AE250E06BEE70E084E794E0D0
:104FD0000E946F030BE210E022E630E04BE250E06B
:104FE0006AE570E084E794E00E946F03E12CF12C05
:104FF00023E730E04BE250E06AE670E084E794E0BB
:105000000E946F0325E830E04BE250E06AE770E071
:1050100084E794E00E946F032EE830E04BE250E01A
:105020006BE870E084E794E00E946F0324EA30E0CC
:105030004BE250E069E970E084E794E00E946F037E
:105040002BEA30E04BE250E069EA70E084E794E05C
:105050000E946F0329EB30E04BE250E06FEA70E012
:1050600084E794E00E946F0328EC30E04BE250E0CC
:1050700060EC70E084E794E00E946F0323ED30E081
:105080004BE250E061ED70E084E794E00E946F0332
:1050900028ED30E04BE250E066ED70E084E794E00C
:1050A0000E946F032CED30E04BE250E06BED70E0BE
:1050B00084E794E00E946F0322EE30E04BE250E080
:1050C0006FED70E084E794E00E946F03F0E2EF2E52
:1050D000FBEFFF2E2FEE30E04BE250E06BEE70E086
:1050E00084E794E00E946F030CE210E022E630E0D7
:1050F0004CE250E06AE570E084E794E00E946F03C0
:10510000E12CF12C23E730E04CE250E06AE670E05D
:1051100084E794E00E946F0324E830E04CE250E022
:105120006BE770E084E794E00E946F032EE830E0C4
:105130004CE250E06CE870E084E794E00E946F037A
:1051400022EA30E04CE250E06BE970E084E794E062
:105150000E946F032BEA30E04CE250E069EA70E015
:1051600084E794E00E946F0327EB30E04CE250E0CC
:105170006FEA70E084E794E00E946F0328EC30E06F
:105180004CE250E060EC70E084E794E00E946F0332
:1051900023ED30E04CE250E062ED70E084E794E013
:1051A0000E946F0328ED30E04CE250E066ED70E0C5
:1051B00084E794E00E946F032DED30E04CE250E074
:1051C0006CED70E084E794E00E946F0322EE30E023
:1051D0004CE250E060EE70E084E794E00E946F03E0
:1051E000A0E2EA2EABEFFA2E2FEE30E04CE250E0D8
:1051F0006BEE70E084E794E00E946F030DE210E034
:1052000022E630E04DE250E06AE570E084E794E0A9
:105210000E946F03E12CF12C21E730E04DE250E0D9
:105220006BE670E084E794E00E946F0322E830E0D0
:105230004DE250E06EE770E084E794E00E946F0377
:1052400020EA30E04DE250E06DE970E084E794E060
:105250000E946F0324ED30E04DE250E062ED70E01B
:1052600084E794E00E946F0328ED30E04DE250E0C7
:1052700065ED70E084E794E00E946F0322EE30E079
:105280004DE250E06DED70E084E794E00E946F0322
:10529000B0E2EB2EBBEFFB2E2FEE30E04DE250E004
:1052A0006BEE70E084E794E00E946F030EE210E082
:1052B00022E630E04EE250E06AE570E084E794E0F8
:1052C0000E946F03E12CF12C28ED30E04EE250E01B
:1052D00063ED70E084E794E00E946F0322EE30E01B
:1052E0004EE250E06EED70E084E794E00E946F03C0
:1052F00080E2E82E8BEFF82E2FEE30E04EE250E009
:105300006BEE70E084E794E00E946F030FE210E020
:1053100022E630E04FE250E06AE570E084E794E096
:105320000E946F03E12CF12C28ED30E04FE250E0B9
:1053300064ED70E084E794E00E946F0321EE30E0BA
:105340004FE250E06FED70E084E794E00E946F035D
:1053500090E2E92E9BEFF92E2FEE30E04FE250E085
:105360006BEE70E084E794E00E946F0300E310E0CE
:1053700022E630E040E350E06AE570E084E794E044
:105380000E946F03E12CF12C28ED30E040E350E067
:1053900065ED70E084E794E00E946F0320E2E22E66
:1053A0002BEFF22E2FEE30E040E350E06BEE70E09A
:1053B00084E794E00E946F0301E310E022E630E00E
:1053C00041E350E06AE570E084E794E00E946F03F7
:1053D0002FEE30E041E350E06BEE70E084E794E0C4
:1053E0000E946F0302E310E022E630E042E350E067
:1053F0006CE570E084E794E00E946F032FEE30E0EC
:1054000042E350E06AEE70E084E794E00E946F03AC
:1054100003E310E022E630E043E350E06CE570E0A7
:1054200084E794E00E946F032FEE30E043E350E006
:105430006BEE70E084E794E00E946F0304E310E0F9
:1054400023E630E044E350E06CE570E084E794E06C
:105450000E946F032FEE30E044E350E06AEE70E00C
:1054600084E794E00E946F0305E310E024E630E057
:1054700045E350E06DE570E084E794E00E946F033F
:105480002FEE30E045E350E069EE70E084E794E011
:105490000E946F0306E310E025E630E046E350E0AB
:1054A0006DE570E084E794E00E946F032EEE30E03B
:1054B00046E350E068EE70E084E794E00E946F03FA
:1054C00007E310E026E630E047E350E06EE570E0E9
:1054D00084E794E00E946F032EEE30E047E350E053
:1054E00067EE70E084E794E00E946F0308E310E049
:1054F00028E630E048E350E06EE570E084E794E0B1
:105500000E946F032DEE30E048E350E064EE70E05F
:1055100084E794E00E946F0309E310E02CEE30E092
:1055200049E350E06FE570E084E794E00E946F0388
:105530000AE310E02BEE30E04AE350E060E670E072
:1055400084E794E00E946F030BE310E02AEE30E062
:105550004BE350E061E670E084E794E00E946F0363
:105560000CE310E029EE30E04CE350E062E670E03E
:1055700084E794E00E946F030DE310E027EE30E033
:105580004DE350E064E670E084E794E00E946F032E
:105590008EE190E090938104809380048AEA90E009
:1055A000909383048093820482E080938804109215
:1055B000870410928604109285041092840467EC8C
:1055C00071E084E794E00E94081B0E942C1160E0C7
:1055D00087E00E94671864EF71E080E090E00E942D
:1055E000061960E086E00E94671864EF71E080E0D1
:1055F00090E00E94061960E085E00E94671864EF61
:1056000071E080E090E00E94061960E084E00E9472
:10561000671864EF71E080E090E00E94061961E095
:1056200084E00E94671861E087E00E94671861E0EB
:1056300086E00E94671861E085E00E94671810927A
:10564000F7021092F60238EEC32E33E0D32EE12C8F
:10565000F12C4CE3A42EB12C01E010E081E00E947B
:10566000A40F0E94050F1092F5021092F40280918F
:10567000F4029091F502892B09F072C02091EC029E
:105680003091ED024091EE025091EF026091F002F4
:105690007091F1028091F2029091F3020E94DA2E51
:1056A0002B013C0120E030E040E85FE36091E8023C
:1056B0007091E9028091EA029091EB020E940A2D1A
:1056C0009B01AC01C301B2010E94DA2E0E94ED2DB4
:1056D0007093F9026093F8020E942C112091EC0261
:1056E0003091ED024091EE025091EF026091F00294
:1056F0007091F1028091F2029091F3020E94DA2EF1
:105700002B013C0120E030E040E85FE36091E802DB
:105710007091E9028091EA029091EB020E940A2DB9
:105720009B01AC01C301B2010E94DA2E2B013C01A6
:105730006091F8027091F902072E000C880B990B0A
:105740000E94252E9B01AC01C301B2010E94762D5F
:1057500081110E94050F0E9418100E94030E87CF2E
:1057600064EF71E080E090E00E9406191092F5026B
:105770001092F40282E00E94A40F6091EC027091FA
:10578000ED028091EE029091EF020E94ED2DDC017E
:10579000CB0160E070E00E947D0E8091E602909166
:1057A000E702892B49F18091F4029091F50201976B
:1057B00019F18DEC91E00E94C5160E9418100E940C
:1057C000030E80E090E00E94710D813293402CF036
:1057D0001093F5020093F40204C01092F5021092A7
:1057E000F40268E873E180E090E00E9406191092EC
:1057F000E7021092E602D1CF83E00E94A40F0E943C
:1058000040190E94232E2B013C0120E030E040E7AC
:1058100052E46091EC027091ED028091EE02909161
:10582000EF020E94DA2E20E030E04AE754E40E94C2
:10583000DA2E9B01AC01C301B2010E940A2D0E9425
:10584000F42D2B013C010E94401964157505860555
:10585000970530F48091F4029091F5020197C1F41C
:1058600080E090E00E94C50D8091F4029091F502D5
:10587000892B09F0F3CE60E087E00E94671860E0B2
:1058800086E00E94671860E085E00E946718E6CE17
:1058900084EF91E00E94C5166091E8027091E902E0
:1058A0008091EA029091EB020E94ED2DCB010E94C3
:1058B000C50D0E944019A3019201261B370B480B0E
:1058C000590BCA01B901A70196010E94602FC901B5
:1058D000B5010E944C2F9B01BC01C9010E947D0EA5
:1058E00060E273E080E090E00E9406190E941810C8
:1058F0000E94030E80E090E00E94710D813293407F
:105900002CF01093F5020093F4029DCF1092F50253
:105910001092F40298CF0895EDEBF3E01382128217
:1059200088EE93E0A0E0B0E084839583A683B783FC
:1059300021E131E03183208325EC30E03587248775
:1059400024EC30E03787268720EC30E0318B208B49
:1059500021EC30E0338B228B22EC30E0358B248B32
:1059600026EC30E0378B268B118E128E138E148E20
:10597000EAE5F4E01382128284839583A683B783D9
:1059800083E291E091838083E4E7F4E01382128262
:1059900020EF30E03583248380E491E09783868391
:1059A0003187208793878287158A15861486178604
:1059B000168681E0848B2FEF3FEF338B228B318B68
:1059C000208B868B178A118E108E21E531E0318372
:1059D00020839AE096A398E097A391E190A7838F04
:1059E00013A611A6E6E6F4E085E391E091838083B7
:1059F00089E38383148215821782168211861086AA
:105A000089E390E3A0E0B0E082879387A487B5871D
:105A100008955058BB27AA270E94212D0C949B2E35
:105A20000E948D2E38F00E94942E20F039F49F3F72
:105A300019F426F40C948A2E0EF4E095E7FB0C94EE
:105A4000842EE92F0E94AC2E58F3BA176207730711
:105A50008407950720F079F4A6F50C94CE2E0EF469
:105A6000E0950B2EBA2FA02D0B01B90190010C016E
:105A7000CA01A0011124FF27591B99F0593F50F486
:105A8000503E68F11A16F040A22F232F342F4427DE
:105A9000585FF3CF469537952795A795F0405395D6
:105AA000C9F77EF41F16BA0B620B730B840BBAF0A6
:105AB0009150A1F0FF0FBB1F661F771F881FC2F711
:105AC0000EC0BA0F621F731F841F48F48795779525
:105AD0006795B795F7959E3F08F0B0CF9395880FDF
