:100000000C94E6020C940E030C940E030C940E0355
:100010000C940E030C940E030C940E030C940E031C
:100020000C940E030C940E030C940E030C940E030C
:100030000C940E030C940E030C940E030C940E03FC
:100040000C946A190C940E030C94B2140C948C1436
:100050000C940E030C940E030C940E030C940E03DC
:100060000C94E4140C940E03D909DB09E809EA099D
:10007000EC09F209F809020A00000000003E5B4F9B
:100080005B3E3E6B4F6B3E1C3E7C3E1C183C7E3CF8
:10009000181C577D571C1C5E7F5E1C00183C180006
:1000A000FFE7C3E7FF0018241800FFE7DBE7FF3096
:1000B000483A060E2629792926407F050507407F04
:1000C00005253F5A3CE73C5A7F3E1C1C08081C1C77
:1000D0003E7F14227F22145F5F005F5F06097F016D
:1000E0007F006689956A606060606094A2FFA29458
:1000F00008047E040810207E201008082A1C080826
:100100001C2A08081E101010100C1E0C1E0C303873
:100110003E3830060E3E0E06000000000000005F74
:1001200000000007000700147F147F14242A7F2A90
:100130001223130864623649562050000807030052
:10014000001C2241000041221C002A1C7F1C2A089E
:10015000083E080800807030000808080808000001
:1001600060600020100804023E5149453E00427F75
:10017000400072494949462141494D331814127FC4
:100180001027454545393C4A494931412111090764
:100190003649494936464949291E000014000000E5
:1001A00040340000000814224114141414140041B7
:1001B00022140802015909063E415D594E7C121174
:1001C000127C7F494949363E414141227F414141AC
:1001D0003E7F494949417F090909013E4141517327
:1001E0007F0808087F00417F41002040413F017F98
:1001F000081422417F404040407F021C027F7F0460
:1002000008107F3E4141413E7F090909063E4151A8
:10021000215E7F09192946264949493203017F0198
:10022000033F4040403F1F2040201F3F4038403F99
:10023000631408146303047804036159494D4300AF
:100240007F4141410204081020004141417F0402E6
:10025000010204404040404000030708002054547D
:1002600078407F284444383844444428384444285B
:100270007F385454541800087E090218A4A49C78AE
:100280007F0804047800447D40002040403D007F0A
:100290001028440000417F40007C047804787C08EA
:1002A0000404783844444438FC18242418182424BE
:1002B00018FC7C08040408485454542404043F44A3
:1002C000243C4040207C1C2040201C3C4030403CD2
:1002D00044281028444C9090907C4464544C440032
:1002E0000836410000007700000041360800020196
:1002F0000204023C2623263C1EA1A161123A404082
:10030000207A3854545559215555794122545478FE
:1003100042215554784020545579400C1E52721297
:100320003955555559395454545939555454580020
:1003300000457C410002457D420001457C407D1224
:1003400011127DF0282528F07C5455450020545486
:100350007C547C0A097F4932494949323A44444431
:100360003A324A4848303A4141217A3A424020786C
:10037000009DA0A07D3D4242423D3D4040403D3C6D
:1003800024FF2424487E4943662B2FFC2F2BFF0992
:1003900029F620C0887E0903205454794100004486
:1003A0007D413048484A32384040227A007A0A0A71
:1003B000727D0D19317D2629292F282629292926E4
:1003C00030484D4020380808080808080808382F29
:1003D00010C8ACBA2F102834FA00007B00000814B3
:1003E0002A142222142A14085500550055AA55AA89
:1003F00055AAFF55FF55FF000000FF00101010FF29
:1004000000141414FF001010FF00FF1010F010F083
:10041000141414FC001414F700FF0000FF00FF1474
:1004200014F404FC141417101F10101F101F1414C0
:10043000141F00101010F0000000001F101010100A
:100440001F10101010F010000000FF1010101010FE
:1004500010101010FF10000000FF140000FF00FF3C
:1004600000001F10170000FC04F4141417101714D8
:1004700014F404F40000FF00F714141414141414FA
:10048000F700F7141414171410101F101F1414146D
:10049000F4141010F010F000001F101F0000001FD7
:1004A00014000000FC140000F010F01010FF10FF0A
:1004B000141414FF141010101F00000000F010FF9F
:1004C000FFFFFFFFF0F0F0F0F0FFFFFF0000000083
:1004D00000FFFF0F0F0F0F0F3844443844FC4A4A07
:1004E0004A347E02020606027E027E0263554941BC
:1004F000633844443C04407E201E2006027E0202F3
:1005000099A5E7A5991C2A492A1C4C7201724C3006
:100510004A4D4D303048784830BC625A463D3E49DD
:100520004949007E0101017E2A2A2A2A2A44445F81
:10053000444440514A444040444A51400000FF0175
:1005400003E080FF000008086B6B08361236243683
:10055000060F090F060000181800000010100030E8
:1005600040FF0101001F01011E00191D1712003C70
:100570003C3C3C000000000000000000240027007C
:100580002A0000000000250028002B0004040404B9
:10059000040404040202020202020303030303032D
:1005A000010204081020408001020408102001020A
:1005B00004081020000000080002010000030407E6
:1005C0000000000000000000852C842C11241FBEB8
:1005D000CFEFD8E0DEBFCDBF13E0A0E0B1E0EAEF9F
:1005E000F1E602C005900D92AC3EB107D9F725E0C7
:1005F000ACEEB3E001C01D92AF3AB207E1F712E0F2
:10060000C5EED2E004C02197FE010E947B2FC43EBC
:10061000D107C9F70E94FD1A0C94F0300C94000029
:100620000F931F93DC01ED91FC91068CF78DE02D6B
:1006300009951F910F9108950F931F93DC01ED9180
:10064000FC91048CF58DE02D09951F910F91089573
:10065000DC01ED91FC910084F185E02D0994089571
:100660002F923F924F925F926F927F928F929F92C2
:10067000AF92BF92CF92DF92EF92FF920F931F93B0
:10068000CF93DF9300D01F92CDB7DEB74C017B83B1
:100690006A836A01590117019801241B350B37FF42
:1006A00003C0319521953109C5014A815B81841BC5
:1006B000950B97FF03C091958195910951E059835E
:1006C0008217930714F019820BC09A2D8B2D5801B5
:1006D000092F182F9A818B81DB82CA82C92ED82ECE
:1006E0008A819B81A816B9065CF49C2D8D2D68012A
:1006F000092F182F9A818B81BB82AA82A92EB82E2E
:100700002501AA81BB814A1A5B0A38016C187D0851
:1007100077FE03C0719461947108720157FE03C0A3
:10072000BFEFEB1AFB0AF594E794C016D1061CF054
:100730000FEF1FEF1FC001E010E01CC0D401ED91CE
:10074000FC91B9810484F585E02D9101BB23C1F0B2
:100750004A815B81B601C4010995E618F708F7FEE6
:1007600004C0C00ED11EE40CF51CEA81FB81319659
:10077000FB83EA834A815B81A416B506FCF604C0BC
:10078000A6016A817B81E7CF0F900F900F90DF91D8
:10079000CF911F910F91FF90EF90DF90CF90BF907E
:1007A000AF909F908F907F906F905F904F903F9011
:1007B0002F900895EF92FF920F931F93DC01ED911C
:1007C000FC9111971A960D911C911B9718962D91DB
:1007D0003C91199700A0F1A1E02D7B0140E050E091
:1007E00060E070E009951F910F91FF90EF900895E0
:1007F000FC01838D811122C028E030E090E8A48DB7
:10080000B58D84A5492F462319F04C91842B03C044
:100810004C91809584238C93A68DB78D4C9185A5A2
:10082000842B8C93A68DB78D4C9185A580958423C0
:100830008C9396952150310911F708956EBD0DB432
:1008400007FEFDCF0895089580E090E00895FC0133
:100850006583089508950F931F93CF93DF938C01C1
:10086000EB0188E2FB0111928A95E9F74BE050E039
:1008700063E272E0CE010E94E1301B8681E090E0ED
:10088000A0E0B0E08C879D87AE87BF87F8018285A6
:100890009385A485B585888B998BAA8BBB8B85E0C6
:1008A00090E0A0E0B0E08C8B9D8BAE8BBF8B1CA248
:1008B0001DA21EA21FA280E090EDA4E8B6E4888FDE
:1008C000998FAA8FBB8F1C8E1D8E1E8E1F8E80E06F
:1008D00090E0A0E8BFE388A399A3AAA3BBA3DF91FC
:1008E000CF911F910F910895CF93DF93EC018B81EE
:1008F00091E090939F048093C1041092A004109201
:10090000C20480E695E00E947B0F81E00E94B2174E
:100910008B8162E070E0082E000C990B0E940F188A
:1009200080E695E00E942F0FEC0180E695E00E94A2
:100930002F0F20E030E0382FC9018C2B9D2BDF9149
:10094000CF910895CF93DF931F92CDB7DEB7FC010F
:10095000838191E090939F048093C1041092A0043E
:100960001092C20480E695E029830E947B0F2981C2
:10097000622F80E695E00E947B0F81E00F90DF916F
:10098000CF910C94B21720E030E0A90160E80C94FC
:10099000A2040F931F93CF93DF93EC01109257049F
:1009A000109256041092A0041092C20410929E0459
:1009B00011E010939D041092780461E082E10E949E
:1009C0005A1861E083E10E945A188091B9008E7F25
:1009D0008093B9008091B9008D7F8093B90088E43D
:1009E0008093B80085E48093BC008B8110939F04B2
:1009F0008093C1041092A0041092C2046AE080E6C1
:100A000095E00E947B0F81E00E94B2178B8161E02C
:100A100070E0082E000C990B0E940F1880E695E0FC
:100A20000E942F0F8A7031F11C830E811F8123E0F9
:100A300030E040E050E060E8CE010E94A20428854A
:100A40003985202B312B032E000C440B550B61E80C
:100A5000CE010E94A2041F830E83CE010E94C30414
:100A600068857985CE010E944005CE010E94C304AD
:100A700081E001C080E0DF91CF911F910F91089537
:100A80000F931F93CF93DF93EC018B018C81811126
:100A900003C0CE010E94C90423E030E040E050E0F2
:100AA00060E8CE010E94A2042E813F81202B312BD1
:100AB000032E000C440B550B61E8CE010E94A204EA
:100AC00019870887CE01DF91CF911F910F910C9468
:100AD000C304EF92FF920F931F93CF93DF93EC0128
:100AE0007B018A0123E030E040E050E060E80E94B2
:100AF000A2048E819F81009739F0019751F468E735
:100B000070E080E090E009C06FE070E080E090E08D
:100B100004C062EC71E080E090E00E94F9186CEA99
:100B2000CE010E947404F701918380836EEACE01A6
:100B30000E947404F80191838083CE01DF91CF91EC
:100B40001F910F91FF90EF900C94C3044F925F920E
:100B50006F927F928F929F92AF92BF92CF92DF92CD
:100B6000EF92FF920F931F93CF93DF93CDB7DEB732
:100B700029970FB6F894DEBF0FBECDBF8C017B0165
:100B800084E2FB0111928A95E9F784E290E0A0E00B
:100B9000B0E0FB0180839183A283B383F801828557
:100BA0009385A485B585FB0184839583A683B7834C
:100BB00085E090E0A0E0B0E080879187A287B387CE
:100BC0000E943319F701608B718B828B938BF80134
:100BD0008481811103C0C8010E94C904F801858184
:100BE00081110AC0AE014B5F5F4FBE01695F7F4F4D
:100BF000C8010E94690559C020E0F80186819781EB
:100C0000009799F0019741F478EC872E912CE0EA57
:100C1000AE2EECE8BE2E10C054EF852E992493948E
:100C200068E1A62E66EFB62E07C034E6832E912C1F
:100C300042EFA42E42E1B42EAE014F5F5F4FBE01E2
:100C40006D5F7F4FC80129870E9469058B819C8158
:100C50002985211124C08815990540F4F8012085C3
:100C60003185232BE1F460E170E00BC0A816B906D2
:100C7000B0F4F801208531852031310581F460E040
:100C800070E0C8010E944005AE014F5F5F4FBE019A
:100C90006D5F7F4FC8010E94690521E0AECF988744
:100CA0008F8389819A819E838D83CD80DE80AF8101
:100CB000B885F80186819781009749F081309105C8
:100CC00019F428E830E905C028EE3DEF02C024E21F
:100CD00033E12A173B0708F4CBC02C153D0508F477
:100CE000C7C0009779F0019739F497EE492E9FE03D
:100CF000592E612C712C0CC0412C84E0582E612C93
:100D0000712C06C0F7E14F2EF5E75F2E612C712C98
:100D1000F80180859185892B39F4E4E0440C551C59
:100D2000661C771CEA95D1F7A30192010E94812FDE
:100D30004B015C016AE0B694A794979487946A95F6
:100D4000D1F7D6010E94812F2B013C017AE07694E5
:100D50006794579447947A95D1F781149104A1042C
:100D6000B10471F0C301B2014AE0660F771F881F1A
:100D7000991F4A95D1F7A50194010E94592F03C0EC
:100D800020E030E0A901DA01C9010196A11DB11DE1
:100D9000B695A7959795879581349105A105B105DD
:100DA00030F181389105A105B10530F1813C910503
:100DB000A105B10530F18130F1E09F07A105B10532
:100DC00028F1893321E09207A105B10520F18B3983
:100DD00031E09307A105B10518F18B399240A105C7
:100DE000B10518F1E0E0F0E0A0E0B0E022C0EEEBE9
:100DF000F1E0A2EFB1E01DC0E1EDF2E0A4E1B2E06C
:100E000018C0EBE7F3E0AFE3B2E013C0EEEFF3E0BE
:100E1000A0E7B2E00EC0ECEFF1E0AFE6B1E009C050
:100E2000EBEFF0E0A2EDB0E004C0E2E1F0E0A8E119
:100E3000B0E0A50194010E94812F4B015C0150E2BA
:100E4000950EA11CB11CDF01A30192010E94812F0C
:100E5000A5019401261B370B480B590BCA01B90198
:100E60002EE096958795779567952A95D1F703C0DB
:100E700060E070E0CB010E941C2EF701648B758B43
:100E8000868B978B81E029960FB6F894DEBF0FBE54
:100E9000CDBFDF91CF911F910F91FF90EF90DF9029
:100EA000CF90BF90AF909F908F907F906F905F900A
:100EB0004F9008950C944430CF93DF93EC01E8A158
:100EC000F9A190818FA5892B8083EE8DFF8D908174
:100ED0008DA5809589238083ECA1FDA190818EA5AD
:100EE000809589238083CE010E94F803ECA1FDA1A7
:100EF00090818EA5892B8083DF91CF910895CF9328
:100F0000DF93EC01E8A1F9A190818FA58095892359
:100F10008083EE8DFF8D90818DA5809589238083C0
:100F2000ECA1FDA190818EA5809589238083CE01BF
:100F30000E94F803ECA1FDA190818EA5892B8083EE
:100F4000DF91CF910895611102C060E201C061E2BA
:100F50000C947F071F93CF93DF93EC01162F66E36A
:100F60000E947F07612F63706D8B623041F06330A8
:100F700089F0613011F068E403C068E20CC068E8F1
:100F8000CE010E945C0780EF90E09987888780E41B
:100F900091E00AC068EECE010E945C0780E491E017
:100FA0009987888780EF90E09B878A87DF91CF9130
:100FB0001F910895CF92DF92FF920F931F93CF93CB
:100FC000DF9300D000D01F92CDB7DEB76C01F62EB4
:100FD0006AE22B833A834D835C8379830E947F0787
:100FE0007981672FC6010E945C076F2DC6010E94A0
:100FF0005C073A81632FC6010E945C072B81622F38
:10100000C6010E945C076BE2C6010E947F075C81FB
:10101000652FC6010E945C074D81642FC6010E94A6
:101020005C07612FC6010E945C07602FC6010E9409
:101030005C076CE2C6010F900F900F900F900F901D
:10104000DF91CF911F910F91FF90DF90CF900C9483
:101050007F07AF92BF92CF92DF92EF92FF920F93F2
:101060001F93CF93DF93EC015901680128853985DF
:10107000621773070CF04EC08A859B854817590785
:101080000CF048C0FB01EA0DFB1D2E173F071CF4B6
:101090005901A61AB70A9A012C0D3D1D8217930714
:1010A0001CF46C01C41AD50A8A010C0D1D1D0150D7
:1010B00011099B012A0D3B1D21503109CE010E94CF
:1010C000DA07E8A1F9A190818FA5892B8083ECA193
:1010D000FDA190818EA58095892380831C141D0419
:1010E0009CF48501101611065CF46F2DCE010E9450
:1010F000F8036E2DCE010E94F80301501109F2CFC2
:1011000081E0C81AD108EACFECA1FDA190818EA59B
:10111000892B8083DF91CF911F910F91FF90EF90EA
:10112000DF90CF90BF90AF900895CF92DF92EF9273
:10113000FF920F931F93CF93DF93EC017901D02E91
:10114000C12E8885998568177907CCF52A853B8556
:1011500042175307A4F59B012E0D3F1D82179307DD
:101160001CF47C01E61AF70A9B012E0D3F1D21504D
:1011700031098A01CE010E94DA07E8A1F9A1908124
:101180008FA5892B8083ECA1FDA190818EA58095F0
:1011900089238083E114F10461F06C2DCE010E945B
:1011A000F8036D2DCE010E94F80381E0E81AF108E2
:1011B000F1CFECA1FDA190818EA5892B8083DF91D9
:1011C000CF911F910F91FF90EF90DF90CF900895F6
:1011D000CF92DF92EF92FF920F931F93CF93DF9303
:1011E000EC017901D02EC12E888599856817790781
:1011F000CCF58A859B8548175907A4F59A012E0DD1
:101200003F1D821793071CF47C01E41AF50A8A013A
:101210000E0D1F1D015011099B01CE010E94DA071E
:10122000E8A1F9A190818FA5892B8083ECA1FDA174
:1012300090818EA5809589238083E114F10461F06B
:101240006C2DCE010E94F8036D2DCE010E94F80393
:1012500081E0E81AF108F1CFECA1FDA190818EA503
:10126000892B8083DF91CF911F910F91FF90EF9099
:10127000DF90CF900895EF92FF920F931F93CF933B
:10128000DF93EC0177FD32C088859985681779076F
:101290006CF557FD2BC08A859B854817590734F597
:1012A000E32EF22E8A010F5F1F4F9B012F5F3F4FEE
:1012B000CE010E94DA07E8A1F9A190818FA5892BC0
:1012C0008083ECA1FDA190818EA5809589238083E8
:1012D0006E2DCE010E94F8036F2DCE010E94F803FF
:1012E000ECA1FDA190818EA5892B8083DF91CF9108
:1012F0001F910F91FF90EF9008950F931F93CF933D
:10130000DF93EC0160E089E00E945A18AE0147705B
:10131000552793E0440F551F9A95E1F7406C4EBD59
:1013200000000DB407FEFDCF8EB58170182F110F90
:1013300000E01EBC00000DB407FEFDCF9EB5292FB6
:1013400030E0220F331F1EBC00000DB407FEFDCF9E
:101350008EB5881F8827881F282B022B132B61E04E
:1013600089E00E945A186BE272E083EC94E00E94DC
:10137000FB1ABE0183EC94E00E946D1669E372E0F3
:1013800083EC94E00E94FB1A6DE372E083EC94E03E
:101390000E94FB1AC801DF91CF911F910F91089510
:1013A000089588309105D0F5FC01EC5CFF4F0C945A
:1013B0007B2F60E001C061E087E00E945A1860E086
:1013C00086E00E945A1860E085E00E945A1808954D
:1013D00060E003C060E007C061E087E00E945A1847
:1013E00061E0EECF61E087E00E945A1860E005C03E
:1013F00060E087E00E945A1861E086E00E945A1877
:1014000061E0E2CF61E087E00E945A1861E086E087
:101410000E945A1861E085E00E945A1808958F9240
:101420009F92AF92BF92CF92DF92EF92FF92809104
:101430000404909105048B35910594F060E084E0FC
:101440000E945A1860E084E00E945A1864E472E036
:1014500083EC94E00E94FB1A80E090E00E94F03060
:101460006091020470910304072E000C880B990B05
:101470000E941E2E6B017C018090F6039090F70372
:10148000A090F803B090F90320E030E040E050E491
:10149000C501B4010E94032D9B01AC01C701B60137
:1014A0000E94CE2E18165CF460E084E00E945A1868
:1014B00060E083E00E945A188FEF9FEF12C0A501F1
:1014C0009401C701B6010E946F2D87FF0FC061E034
:1014D00084E00E945A1860E083E00E945A1881E07C
:1014E00090E09093ED038093EC0304C01092ED0321
:1014F0001092EC038091000490910104899714F0FC
:1015000060E001C061E082E00E945A18FF90EF9015
:10151000DF90CF90BF90AF909F908F900895CF9223
:10152000DF92EF92FF920F931F93CF93DF936C01A3
:10153000EB012091820530918305EE24EA94FE2C84
:1015400008E210E04BE450E060E070E08AE795E0EC
:101550000E94290885E080938E0510928D051092D7
:101560008C0510928B0510928A058AE0C816D1046A
:101570003CF084E6C816D10434F024EE3FEF05C0F9
:101580002CE130E002C020E030E02B583F4F309398
:101590008705209386050BE410E0109389050093DE
:1015A0008805B6018AE795E00E946D168CE890E008
:1015B000909387058093860510938905009388058D
:1015C0006DE672E08AE795E00E94FB1ACA30D10509
:1015D0009CF48EEB90E090938705809386051093A2
:1015E00089050093880560E070E08AE795E00E9435
:1015F0006D168CE190E002C080E090E082549F4F35
:1016000090938705809386058BE490E090938905FD
:1016100080938805BE018AE795E0DF91CF911F9105
:101620000F91FF90EF90DF90CF900C946D16CF92BA
:10163000DF92EF92FF920F931F93CF93DF9361E7B7
:1016400072E083EC94E00E94FB1ACAE7D5E00A85B9
:101650001B8528853985A801425351098FEEE82E54
:101660008BE7F82E60E070E0CE010E942908EE249E
:10167000EA94FE2CFB8AEA8AF98AE88A83E08C8B5A
:101680008AE090E09D878C8728ECC22ED12CDF86E3
:10169000CE864091F6035091F7036091F803709164
:1016A000F90320E0CE010E94191A28E136EC43E04C
:1016B00050E06BEC70E082E390E00E94CB1688E390
:1016C00090E09D878C87DF86CE8608E116EC1B8B29
:1016D0000A8B198B088B61E972E0CE010E94FB1A1C
:1016E0008AE590E09D878C87DF86CE86FB8AEA8A32
:1016F000F98AE88A4091EE035091EF036091F0037C
:101700007091F10320E0CE010E94191A1B8B0A8B05
:10171000198B088B63E972E0CE010E94FB1A82EDFF
:1017200090E09D878C87DF86CE86FB8AEA8AF98ADD
:10173000E88A4091F2035091F3036091F4037091B1
:10174000F50320E0CE010E94191A1B8B0A8B198B1E
:10175000088B67E972E0CE01DF91CF911F910F9165
:10176000FF90EF90DF90CF900C94FB1AEF92FF92D6
:101770000F931F93CF93C82F6BE972E083EC94E033
:101780000E94FB1A2091820530918305EE24EA9491
:10179000FE2C04E610E04CE350E060E070E08AE7E5
:1017A00095E00E94290883E080938E0510928D05B4
:1017B00010928C0510928B0510928A05C23021F18F
:1017C000C33089F1C13009F045C08CE390E09093BB
:1017D00087058093860586E490E090938905809341
:1017E000880565EB72E08AE795E00E94FB1A84E6C3
:1017F00090E0909387058093860590938905809368
:10180000880562EC72E01DC080E590E0909387054A
:101810008093860582E890E09093890580938805FF
:101820006BEC72E00EC08DE290E0909387058093A0
:10183000860582E890E0909389058093880566ED9F
:1018400072E08AE795E0CF911F910F91FF90EF90A2
:101850000C94FB1ACF911F910F91FF90EF90089578
:10186000EF92FF920F931F93CF93DF9364EE72E09A
:1018700083EC94E00E94FB1AC0910204D09103040F
:101880008EE00E94E21887E190E090930304809339
:10189000020464E073E083EC94E00E94FB1A609120
:1018A00002047091030483EC94E00E946D166EE1D3
:1018B00073E083EC94E00E94FB1A8FE00E94E21830
:1018C00088E190E0909301048093000463E273E068
:1018D00083EC94E00E94FB1A609100047091010473
:1018E00083EC94E00E946D166EE173E083EC94E06B
:1018F0000E94FB1A80E10E94E21889E190E0909337
:101900000504809304046DE373E083EC94E00E948B
:10191000FB1A609104047091050483EC94E00E942A
:101920006D166EE173E083EC94E00E94FB1A8091E7
:101930000204909103048C179D0709F485C067E5A4
:1019400073E083EC94E00E94FB1A10928D051092D4
:101950008C0510928B0510928A0582E080938E058B
:10196000EE24EA94FE2C04E110E029E130E04AEA9A
:1019700050E064E670E08AE795E00E94290884E67A
:1019800090E090938705809386058AEA90E0909393
:1019900089058093880560910204709103048AE7A9
:1019A00095E00E946D166EE773E08AE795E00E946D
:1019B000FB1A20E030E042E050E06CEA70E082E8A0
:1019C00090E00E94CB1626E930E04AEA50E06AEA4D
:1019D00070E08AE795E00E9429088091EC039091DD
:1019E000ED038130910569F480E098EF90938D05C7
:1019F00080938C0590938B0580938A0564E873E04F
:101A000019C0019669F48FE190E090938D05809361
:101A10008C0590938B0580938A056CE873E00AC06F
:101A200010928D0510928C0510928B0510928A05EC
:101A300066E973E08AE795E0DF91CF911F910F91FE
:101A4000FF90EF900C94FB1ADF91CF911F910F91B3
:101A5000FF90EF90089580E090E00E947D09813230
:101A600093404CF081E090E09093FB038093FA0365
:101A70008EE993E006C01092FB031092FA038CEA01
:101A800093E00E94B81681E090E00E947D09BC01BD
:101A900080E090E00E941C2E9B01AC0160E070E0B1
:101AA00080E894E40E94022D20E030E040E85AE310
:101AB0000E94D32E20E030E044E352E40E94D32E73
:101AC00020E030E040EA51E40E94032D0E94E62D20
:101AD000072E000C880B990B0E941E2E6093F603B4
:101AE0007093F7038093F8039093F9036AEB73E024
:101AF00083EC94E00E94FB1A6091F6037091F70367
:101B00008091F8039091F9030E94A31683E090E07E
:101B10000E947D09BC0180E090E00E941C2E9B0188
:101B2000AC0160E070E080E894E40E94022D20E0C7
:101B300030E040E85AE30E94D32E20E030E04BE64C
:101B400053E40E94D32E20E030E040EA50E40E94AB
:101B5000742D0E94E62D072E000C880B990B0E9415
:101B60001E2E20E030E040EA50E40E94D32E20E018
:101B700030E040EA50E40E94032D6093F20370933A
:101B8000F3038093F4039093F50365EC73E083EC27
:101B900094E00E94FB1A6091F2037091F30380912C
:101BA000F4039091F5030E94A31682E090E00E9456
:101BB0007D09BC0180E090E00E941C2E9B01AC01DD
:101BC00060E070E080E894E40E94022D20E030E0C4
:101BD00040E85AE30E94D32E20E030E040EE50E48B
:101BE0000E94D32E0E94E62D072E000C880B990B25
:101BF0000E941E2E6093EE037093EF038093F00318
:101C00009093F10361ED73E083EC94E00E94FB1A82
:101C10006091F2037091F3038091F4039091F503C6
:101C20000C94A316FC01538D448D252F30E0842F96
:101C300090E0821B930B541710F0CF9608950197F4
:101C40000895FC01918D828D981761F0828DDF01DE
:101C5000A80FB11D5D968C91928D9F5F9F73928F9F
:101C600090E008958FEF9FEF0895FC01918D828D94
:101C7000981731F0828DE80FF11D858D90E0089561
:101C80008FEF9FEF0895FC01918D228D892F90E0B9
:101C9000805C9F4F821B91098F739927089583EC75
:101CA00094E00E94430E21E0892B09F420E0822F6A
:101CB0000895FC01848DDF01A80FB11DA35ABF4F09
:101CC0002C91848D90E001968F739927848FA6893B
:101CD000B7892C93A089B1898C9180648C93938D62
:101CE000848D981306C00288F389E02D80818F7D52
:101CF00080830895EF92FF920F931F93CF93DF930A
:101D0000EC0181E0888F9B8D8C8D981305C0E8894C
:101D1000F989808185FD24C0F62E0B8D10E00F5FC0
:101D20001F4F0F731127E02E8C8DE8120CC00FB6D9
:101D300007FCFACFE889F989808185FFF5CFCE01CC
:101D40000E94590EF1CF8B8DFE01E80FF11DE35A71
:101D5000FF4FF0820B8FEA89FB898081806207C088
:101D6000EE89FF896083E889F989808180648083B6
:101D700081E090E0DF91CF911F910F91FF90EF9064
:101D80000895CF93DF93EC01888D8823C9F0EA8909
:101D9000FB89808185FD05C0A889B9898C9186FD64
:101DA0000FC00FB607FCF5CF808185FFF2CFA88961
:101DB000B9898C9185FFEDCFCE010E94590EE7CFF6
:101DC000DF91CF91089580E090E0892B29F00E9467
:101DD0004F0E81110C940000089585ED8093BC0096
:101DE0008091BC0084FDFCCF10929E040895409128
:101DF0002904262F30E0240F311D21323105DCF477
:101E000020919E042430C9F4FC0180E090E0861704
:101E100058F4309129042191DC01A95FBB4FA30F35
:101E2000B11D2C930196F3CF80912904680F609324
:101E3000290480E0089581E0089582E008950895DE
:101E4000E091570480915604E81730F4F0E0E85A26
:101E5000FB4F808190E008958FEF9FEF0895909160
:101E6000570480915604981750F4E92FF0E0E85A8F
:101E7000FB4F208130E09F5F9093570402C02FEF0B
:101E80003FEFC90108958091560490E020915704D6
:101E9000821B91090895CF92DF92EF92FF920F93E8
:101EA0001F93CF93DF937C01262F972F8A01809178
:101EB0009F04882391F0C62FD72F6E01C40ED51E24
:101EC000CC15DD0571F06991D701ED91FC91019080
:101ED000F081E02DC7010995F3CF642F822F0E9476
:101EE000F70EC801DF91CF911F910F91FF90EF90F6
:101EF000DF90CF900895CF93DF931F92CDB7DEB7D9
:101F0000698320919F042223D1F02091C2042032C2
:101F100040F021E030E0FC013383228380E090E058
:101F200015C08091A004E82FF0E0EF55FB4F998198
:101F300090838F5F8093A0048093C20405C061E00A
:101F4000CE0101960E94F70E81E090E00F90DF91A4
:101F5000CF9108950895FC016370658B848195810C
:101F600026813781613039F0633029F0918780878D
:101F70003387228708953187208793878287089542
:101F80002F923F924F925F926F927F928F929F9289
:101F9000AF92BF92CF92DF92EF92FF920F931F9377
:101FA000CF93DF93CDB7DEB76C970FB6F894DEBF53
:101FB0000FBECDBF9C8F8B8F5B011A011F830E83D9
:101FC0003701C982DC0158964D915C9159974115B2
:101FD000510509F0E5C018968D919C9119976817E5
:101FE00079070CF0CAC11A968D919C911B972816FF
:101FF00039060CF0C2C18C2C912CFB0136E0C39E3B
:10200000E00DF11D1124FB87EA871E161F060CF058
:10201000B4C1C40133E0880F991F3A95E1F79D8759
:102020008C87820D931D181619060CF0A6C15796C1
:102030008C91811103C0203B08F02F5FAB8DBC8DCC
:10204000ED91FC9111970284F385E02DCD012A8F4B
:1020500009952A8DB5E02B9F90011124F501359645
:10206000FF87EE87BB82AA822501A9014A195B0975
:10207000598B488BC10108969B8B8A8BE889F9891B
:10208000E40DF51DE858FF4F9491988761013D825A
:102090002C82A885A0FF13C0AB8DBC8DED91FC9167
:1020A000B981B13031F40484F585E02D2E813F8172
:1020B00016C00684F785E02DEE80FF801AC0EE8101
:1020C000FF816E167F06F1F0AB8DBC8DED91FC911A
:1020D000B981B13051F40484F585E02D9301A60156
:1020E000B2018B8D9C8D09950DC00684F785E02D7E
:1020F0007301840194014C815D816A817B818B8DA8
:102100009C8D0995E885E695E887FFEFCF1ADF0AF1
:102110002C813D81280D391D3D832C834A895B89A3
:10212000C416D50609F0B5CF5FEF451A550A8A8166
:102130009B81880D991D9B838A83AE85BF854A1636
:102140005B0609F09BCFEE81FF816E167F0609F4D6
:10215000F2C0EB8DFC8DA081B181F981F13079F471
:10216000B5016B5F7F4F5096ED91FC9151978301C4
:1021700028E030E0A1018B8D9C8D0995DCC06A853B
:102180007B85681979091E96ED91FC911F97730163
:102190000C851D859401A1018B8D9C8D0995CBC06B
:1021A000FA0134969491329765917491291BCB0171
:1021B000B7E02B9F800D911D1124FA0125913491D8
:1021C0003B8B2A8BFC01459154915B834A83FC0134
:1021D0003296C490319654915E873296149131961E
:1021E000D4908981823058F0612E012E000C77083E
:1021F000AD2D0D2C000CBB0BB987A88704C0198628
:102200001886612C712CAB8DBC8DED91FC911197D2
:102210000284F385E02DCD010995B9818B2E912C97
:10222000689CC001699C900D789C900D1124FC0164
:10223000EA0DFB1DFD87EC871C82712C612CE12FC0
:10224000110FFF0B95012E0F3F1F3B872A87AC0C08
:10225000B11CA5014E0F5F1F5F8B4E8BC1018D0D11
:10226000911DD7FC9A95998F888F4E85641608F03A
:1022700062C0862D90E048855985480F591F489DBA
:102280009001499D300D589D300D1124D901A20DAA
:10229000B31DB98BA88BAA84BB844C845D84DC807D
:1022A000BA85DB1AE88DF98DE80FF91FFD8BEC8BF1
:1022B0008D2D8A0D2E893F89A216B306B9F187703C
:1022C00061F48A819B810196EA89FB89AA81BB819D
:1022D000EA0FFB1F74909B838A8377FE20C0AB8D2F
:1022E000BC8DED91FC91B981B13061F40484F58528
:1022F000E02D2E813F814C895D89B5018B8D9C8DB0
:1023000009950DC00684F785E02DEE80FF808401DD
:10231000940148895989B2018B8D9C8D0995770C60
:10232000EFEFAE1ABE0A480C591CC2CF3C813C0DDF
:102330003C8363949ACFAB8DBC8DED91FC9111974A
:102340000688F789E02DCD016C960FB6F894DEBFB4
:102350000FBECDBFDF91CF911F910F91FF90EF90F6
:10236000DF90CF90BF90AF909F908F907F906F90B5
:102370005F904F903F902F9009946C960FB6F89411
:10238000DEBF0FBECDBFDF91CF911F910F91FF90A8
:10239000EF90DF90CF90BF90AF909F908F907F9005
:1023A0006F905F904F903F902F900895AF92BF92A3
:1023B000CF92EF92FF920F931F93CF93DF93EC0195
:1023C000262F888D998D009709F040C06A3059F406
:1023D0001D861C862C898E859F8538E0239F800D65
:1023E000911D112441C06D3009F4AAC08E89882343
:1023F000C1F03C898C859D8546E0349F800D911D00
:10240000112448855985481759075CF41D861C8698
:102410008E859F8548E0349F800D911D11249F87F4
:102420008E87EA88FB88088919894E855F856C85C7
:102430007D85CC88CE010E94C00F2C898C859D851E
:1024400036E0239F800D911D112442C06A3079F43B
:102450001D861C862C89FC013696E4918E859F850D
:102460002E9F800D911D11249F878E8769C06D302E
:1024700009F466C0FC0134963491631708F460C017
:102480003196E491E61708F45BC0FC013296A59002
:10249000B490462F50E0431B510937E0349FB00100
:1024A000359F700D1124A60EB71EF501329634919A
:1024B0003196E491332311F0E1110DC0F50134960A
:1024C000E4912C898C859D85E29F800D911D1124BE
:1024D0009D878C8735C0F501359644915E895523DB
:1024E00011F16C89E32FF0E0E40FF11D47FDFA953F
:1024F0006E9FD0016F9FB00D11244C855D854A0FF2
:102500005B1FE885F985E417F5076CF41D861C86CA
:10251000FC013696E4918E859F856E9F800D911DFE
:1025200011249F878E87EA88FB88088919894E8540
:102530005F856C857D85CC88CE010E94C00FBECFA3
:1025400081E090E0DF91CF911F910F91FF90EF908C
:10255000CF90BF90AF9008956F927F928F929F928D
:10256000AF92BF92CF92DF92EF92FF920F931F93A1
:10257000CF93DF93EC014B015A0169013801E881E7
:10258000F9810284F385E02D0995E881F9810288BB
:10259000F389E02D87019601A501B401CE010995CB
:1025A000E881F981A501460D571D41505109028866
:1025B000F389E02D9601B401CE010995E881F981F6
:1025C0000088F189E02D9301A501B401CE010995A0
:1025D000E881F981C80CD91CB601615071090088E5
:1025E000F189E02D9301A501CE010995E881F981DA
:1025F0000688F789E02DCE01DF91CF911F910F91D1
:10260000FF90EF90DF90CF90BF90AF909F908F9012
:102610007F906F900994CF92DF92EF92FF920F9389
:102620001F93CF93DF9300D000D000D0CDB7DEB79B
:102630006C01DC01ED91FC916217730789F40417BA
:1026400015072CF4942F852FA801092F182F041B90
:10265000150B98012F5F3F4F048CF58DE02D12C0B4
:102660004017510709F5261737072CF4962F872FA7
:10267000B901292F382F261B370B2F5F3F4F068CB0
:10268000F78DE02D8701C601099526960FB6F894BF
:10269000DEBF0FBECDBFDF91CF911F910F91FF9095
:1026A000EF90DF90CF9008950284F385E02D2D8385
:1026B0003E834B835C8369837A830995D601ED91D0
:1026C000FC910488F589E02D2D813E814B815C8150
:1026D00069817A81C6010995D601ED91FC91068840
:1026E000F789E02DC60126960FB6F894DEBF0FBE1F
:1026F000CDBFDF91CF911F910F91FF90EF90DF90B1
:10270000CF900994EF92FF920F931F93DC01ED910C
:10271000FC9111971A960D911C911B9718962D916B
:102720003C91199700A0F1A1E02D7B0140E050E021
:1027300060E070E009951F910F91FF90EF90089570
:102740004F925F926F927F928F929F92AF92BF92C1
:10275000CF92DF92EF92FF920F931F93CF93DF936D
:1027600000D0CDB7DEB76C015A0139014801DC0158
:10277000ED91FC910284F385E02D69837A830995BC
:102780006981462E7A81572E640C751CD601ED9115
:10279000FC91461457046CF40088F189E02D870100
:1027A0009401A501B201C6010995BFEF4B1A5B0A5E
:1027B000EDCF0688F789E02DC6010F900F90DF91CD
:1027C000CF911F910F91FF90EF90DF90CF90BF902E
:1027D000AF909F908F907F906F905F904F900994F3
:1027E000AF92BF92CF92DF92EF92FF920F931F931F
:1027F000CF93DF9300D000D0CDB7DEB75C01690185
:10280000DC01ED91FC910284F385E02D4B835C8328
:1028100069837A830995D501ED91FC9169817A816B
:102820009B012C0D3D1D215031090488F589E02DB7
:1028300078014B815C818A01C5010995D501ED9133
:10284000FC910688F789E02DC5010F900F900F903D
:102850000F90DF91CF911F910F91FF90EF90DF903C
:10286000CF90BF90AF900994AF92BF92CF92DF927A
:10287000EF92FF920F931F93CF93DF9300D000D07E
:10288000CDB7DEB75C016901DC01ED91FC910284FA
:10289000F385E02D4B835C8369837A830995D501A9
:1028A000ED91FC914B815C81C40ED51EB1E0CB1A39
:1028B000D1080488F589E02D7801860169817A8143
:1028C0009B01C5010995D501ED91FC910688F78919
:1028D000E02DC5010F900F900F900F90DF91CF91D9
:1028E0001F910F91FF90EF90DF90CF90BF90AF902E
:1028F00009940895EF92FF920F931F93DC01ED91DD
:10290000FC9100A0F1A1E02D09951F910F91FF907E
:10291000EF9008950E94DC301F920F920FB60F9235
:1029200011242F933F934F935F936F937F938F93D4
:102930009F93AF93BF93EF93FF9383EC94E00E9438
:10294000590EFF91EF91BF91AF919F918F917F9120
:102950006F915F914F913F912F910F900FBE0F900C
:102960001F9018951F920F920FB60F9211242F935C
:102970008F939F93EF93FF93E091D304F091D4044E
:102980008081E091D904F091DA0482FD12C0908137
:102990008091DC048F5F8F732091DD04821751F0EA
:1029A000E091DC04F0E0ED53FB4F958F8093DC0465
:1029B00001C08081FF91EF919F918F912F910F9096
:1029C0000FBE0F901F9018951F920F920FB60F9287
:1029D00011242F933F934F935F936F937F938F9324
:1029E0009F93AF93BF93EF93FF938091B900887F3C
:1029F000803609F49CC068F5883209F45BC090F415
:102A0000803109F454C038F4882309F4F6C08830C2
:102A100009F44DC0F6C0883109F44CC0803209F485
:102A20005DC0EFC0803409F468C048F4803309F415
:102A300055C0883309F0E5C080939C04D8C0803528
:102A400009F44FC0883509F45DC0883409F0D9C055
:102A5000D6C0883909F4C7C0A8F4883709F467C01C
:102A600038F4883609F463C0803709F460C0C9C0FF
:102A7000883809F4B8C0803909F45FC0803809F09B
:102A8000C0C05BC0803B09F486C038F4803A09F4CA
:102A900066C0883A09F47FC0B4C0803C09F4A7C07E
:102AA000883C09F4A4C0883B09F48AC0AAC080917C
:102AB000790410C090919B0480919A04981770F546
:102AC000E0919B0481E08E0F80939B04F0E0E65838
:102AD000FB4F80818093BB0085EC86C080939C0473
:102AE0008EC0E0919B0481E08E0F80939B048091C7
:102AF000BB00F0E0E658FB4F808390919B048091EF
:102B00009A046EC0E0919B0481E08E0F80939B0439
:102B10008091BB00F0E0E658FB4F808380919D04DC
:102B200081116DC081E08093780484EA61C083E004
:102B300080939E0410924D04CFCF80914D0480323B
:102B400008F051C0E0914D0481E08E0F80934D0458
:102B50008091BB00F0E0E35DFB4F8083BDCF85EC4F
:102B60008093BC0010929E0480914D04803230F41A
:102B7000E0914D04F0E0E35DFB4F108260914D0465
:102B800070E0E0912B04F0912C048DE294E0099523
:102B900010924D0436C084E080939E0410922A0463
:102BA00010922904E0912704F0912804099580915E
:102BB0002904811105C081E0809329041092070443
:102BC000E0912A0481E08E0F80932A04F0E0E95F0F
:102BD000FB4F80818093BB0090912A04809129044F
:102BE000981708F479CF85E88093BC000AC085EC7B
:102BF0008093BC0010929E0404C010929C040E941A
:102C0000ED0EFF91EF91BF91AF919F918F917F91C9
:102C10006F915F914F913F912F910F900FBE0F9049
:102C20001F901895CF93CFB7F89480910604811127
:102C300027C0E6E9F5E08491EAEAF5E09491E82F0F
:102C4000F0E0EE0FFF1FE858FA4FA591B491EC9118
:102C5000E92321F461E08AE00E945A1861E08AE0E9
:102C60000E94A6188CB580618CBD8CB580648CBD2B
:102C700061E08DE00E94A61861E08BE00E94A6183A
:102C8000809106048F5F80930604CFBFCF91089593
:102C90003FB7F8948091520490915304A09154044A
:102CA000B091550426B5A89B05C02F3F19F0019699
:102CB000A11DB11D3FBFBA2FA92F982F8827820FC2
:102CC000911DA11DB11DBC01CD0142E0660F771F12
:102CD000881F991F4A95D1F70895CF92DF92EF92FE
:102CE000FF920F931F93CF93DF936B01770FEE0843
:102CF000FF08F7FE1BC0EC016DE20E94B4198C01C5
:102D000044275527BA014C195D096E097F092AE04D
:102D1000CE010E94D019800F911FDF91CF911F919A
:102D20000F91FF90EF90DF90CF9008952AE0B701C8
:102D3000A601DF91CF911F910F91FF90EF90DF904F
:102D4000CF900C94D019CF93DF93AB01BC0122E05C
:102D500083EC94E00E94191AEC016DED73E083ECB2
:102D600094E00E94BB198C0F9D1FDF91CF910895B5
:102D7000CF93DF93BC0183EC94E00E94BB19EC017C
:102D80006DED73E083EC94E00E94BB198C0F9D1FE6
:102D9000DF91CF9108952F923F924F925F926F9261
:102DA0007F928F929F92AF92BF92CF92DF92EF92DB
:102DB000FF920F931F93CF93DF9300D000D000D0EA
:102DC000CDB7DEB77C016B015E834D83890181E065
:102DD00090E03C01641A750ACA01919581959109A8
:102DE0009C01220F331F3A832983460F571F9801F6
:102DF000B7018AE795E00E942803A6018D819E8194
:102E0000481B590B9801B7018AE795E00E942803F7
:102E10006D817E816E0D7F1D9801A6018AE795E088
:102E20000E942803B701ED81FE816E1B7F0B980184
:102E3000A6018AE795E00E942803A12CB12C21E08D
:102E400030E03C832B832D813E81A216B3060CF02B
:102E500070C077FC0CC08D819E8101979E838D830D
:102E6000E981FA813296FA83E9836E0E7F1EFFEFC5
:102E7000AF1ABF0A2B813C812E5F3F4F3C832B83CF
:102E8000620E731E25014E0C5F1C98018D809E8082
:102E90008C0C9D1CA401B2018AE795E00E942803D6
:102EA00017012A183B089801A401B1018AE795E0AF
:102EB0000E942803980146018D819E81881A990AF3
:102EC000A401B2018AE795E00E9428039801A401B9
:102ED000B1018AE795E00E94280345018C0C9D1CF6
:102EE0009801A4014D805E804E0C5F1CB2018AE700
:102EF00095E00E9428039801A4011701ED81FE814D
:102F00002E1A3F0AB1018AE795E00E942803460184
:102F10008A189B089801A401B2018AE795E00E94F3
:102F200028039801A401B1018AE795E00E942803D3
:102F30008ACF26960FB6F894DEBF0FBECDBFDF91C5
:102F4000CF911F910F91FF90EF90DF90CF90BF90A6
:102F5000AF909F908F907F906F905F904F903F9039
:102F60002F900895382F2091C2049091C1042132EE
:102F700008F049C080919E048111FCCF42E040934B
:102F80009E0430939D043FEF30939C0410929B0469
:102F900020939A04A1EAB4E04AE754E0FA013E2FF4
:102FA000341B321718F43D913193F9CF1092790404
:102FB00020917904990F922B909379049091780441
:102FC000913061F410927804909179049093BB0051
:102FD0009091BC0093FDF8CF95EC01C095EE9093D5
:102FE000BC0090919E049230E1F390919C049F3F2D
:102FF00079F080919C04803241F080919C04803370
:1030000031F084E005C081E003C082E001C083E0CC
:103010001092A0041092C20410929F0408959091FF
:103020009E049111FCCF613208F060E291E0909330
:103030009E0490939D042FEF20939C0410929B0478
:10304000260F20939A049093790490917904880F25
:10305000892B8093790480917804813061F41092F7
:103060007804809179048093BB008091BC0083FD3B
:10307000F8CF85EC01C085EE8093BC0080919E0462
:103080008130E1F380919B04861710F460919B04DA
:10309000AAE7B4E028E534E0F9018E2F821B8617F9
:1030A00018F48D918193F9CF1092570460935604D0
:1030B000862F089590E0FC01EC54FA4F3491FC0106
:1030C000E056FA4F2491FC01E457FA4FE491EE23C5
:1030D00009F43BC0332339F1333091F038F4313007
:1030E000A9F0323001F584B58F7D12C0373091F0F0
:1030F0003830A1F03430B9F4809180008F7D03C066
:10310000809180008F77809380000DC084B58F7789
:1031100084BD09C08091B0008F7703C08091B0005A
:103120008F7D8093B000F0E0EE0FFF1FEE57FA4F57
:10313000A591B4918FB7F894EC91611103C02095DB
:103140002E2301C02E2B2C938FBF0895CF93DF9396
:1031500090E0FC01E056FA4F2491FC01E457FA4F4D
:103160008491882361F190E0880F991FFC01E85851
:10317000FA4FC591D491FC01EE57FA4FA591B49145
:10318000611109C09FB7F8948881209582238883B4
:10319000EC912E230BC0623061F49FB7F894388114
:1031A000822F809583238883EC912E2B2C939FBFB5
:1031B00006C08FB7F894E8812E2B28838FBFDF914C
:1031C000CF9108958E3008F08E5087708064809380
:1031D0007C0080917A00806480937A0080917A00EC
:1031E00086FDFCCF809178002091790090E0922BB1
:1031F00008958F929F92AF92BF92CF92DF92EF92FB
:10320000FF926B017C010E9448164B015C01C114C6
:10321000D104E104F104F1F00E944816DC01CB0175
:1032200088199909AA09BB09883E9340A105B105EF
:1032300070F321E0C21AD108E108F10888EE880E87
:1032400083E0981EA11CB11CC114D104E104F10457
:1032500019F7DDCFFF90EF90DF90CF90BF90AF9048
:103260009F908F9008952FB7F89460914E047091BD
:103270004F0480915004909151042FBF0895CF9234
:10328000DF92EF92FF920F931F93CF93DF936C0126
:103290007A018B01C0E0D0E0CE15DF0589F0D801BE
:1032A0006D918D01D601ED91FC910190F081E02DA1
:1032B000C6010995892B11F47E0102C02196ECCF3D
:1032C000C701DF91CF911F910F91FF90EF90DF9099
:1032D000CF9008951F920F920FB60F9211242F9343
:1032E0003F938F939F93AF93BF9380914E049091A0
:1032F0004F04A0915004B09151043091AA0523E0ED
:10330000230F2D3720F40196A11DB11D05C026E81D
:10331000230F0296A11DB11D2093AA0580934E0490
:1033200090934F04A0935004B093510480915204A1
:1033300090915304A0915404B09155040196A11D9D
:10334000B11D8093520490935304A0935404B093FE
:103350005504BF91AF919F918F913F912F910F9005
:103360000FBE0F901F901895DC01ED91FC9101901C
:10337000F081E02D09946115710579F0FB01019050
:103380000020E9F73197AF01461B570BDC01ED91A7
:10339000FC910280F381E02D099480E090E0089593
:1033A0004F925F926F927F92EF92FF920F931F93D3
:1033B000CF93DF93CDB7DEB7A1970FB6F894DEBFFA
:1033C0000FBECDBF7C01FA01CB0119A2223008F457
:1033D0002AE08E010F5D1F4F422E512C612C712C63
:1033E000BF01A30192010E94592FF901CA010150A6
:1033F00011096A3014F4605D01C0695CD8016C93F6
:10340000232B242B252B61F7B801C7010E94BB1980
:10341000A1960FB6F894DEBF0FBECDBFDF91CF915E
:103420001F910F91FF90EF907F906F905F904F9062
:1034300008954F925F926F927F928F929F92AF9278
:10344000BF92CF92DF92EF92FF92CF93DF93EC0186
:103450006A017B01B22E9A01AB01C701B6010E943D
:10346000402F882319F060EE73E027C02601370152
:10347000E89477F82FEF3FEF4FE75FE7C301B20122
:103480000E94402F81110DC02FEF3FEF4FE75FE704
:10349000C301B2010E946F2D18161CF464EE73E094
:1034A0000CC02FEF3FEF4FE75FE4C701B6010E946A
:1034B000CE2E18169CF468EE73E0CE01DF91CF910A
:1034C000FF90EF90DF90CF90BF90AF909F908F9044
:1034D0007F906F905F904F900C94BB192FEF3FEF50
:1034E0004FE75FECC701B6010E946F2D87FDE3CF68
:1034F00020E030E0A901C701B6010E946F2D87FFCF
:103500000AC06DE2CE010E94B4194C01F7FAF094A2
:10351000F7F8F09402C0812C912CA12C60E070E0AF
:1035200080E09FE3AB1441F020E030E040E251E462
:103530000E94742DA394F6CF9B01AC01C701B60184
:103540000E94032D2B013C010E94ED2D6B017C019B
:103550000E941C2E9B01AC01C301B2010E94022DEE
:103560002B013C012AE0B701A601CE010E94D0192F
:103570007C01E80CF91CBB2031F06EE2CE010E9408
:10358000B419E80EF91EDB2CDD2029F120E030E033
:1035900040E251E4C301B2010E94D32E2B013C0151
:1035A0000E94ED2D4B01A12CB12C2AE0B501A40104
:1035B000CE010E94D019E80EF91EC501B4010E9487
:1035C0001C2E9B01AC01C301B2010E94022D2B01F4
:1035D0003C01DA94D9CFC701DF91CF91FF90EF90F2
:1035E000DF90CF90BF90AF909F908F907F906F9023
:1035F0005F904F9008950C94BB19CF93DF93CDB794
:10360000DEB72B970FB6F894DEBF0FBECDBF789410
:1036100084B5826084BD84B5816084BD85B58260D7
:1036200085BD85B5816085BD80916E008160809388
:103630006E001092810080918100826080938100F1
:103640008091810081608093810080918000816001
:10365000809380008091B10084608093B10080915C
:10366000B00081608093B00080917A008460809384
:103670007A0080917A00826080937A0080917A004B
:10368000816080937A0080917A00806880937A00CC
:103690001092C100E091D304F091D40482E08083C1
:1036A000E091CF04F091D0041082E091D104F09128
:1036B000D2048FEC80831092DB04E091D704F09168
:1036C000D80486E08083E091D504F091D60480810F
:1036D00080618083E091D504F091D6048081886078
:1036E0008083E091D504F091D60480818068808346
:1036F000E091D504F091D60480818F7D808389E7A5
:1037000091E00E94B81687E0E6E0F1E0DE01119654
:1037100001900D928A95E1F78EE088878FE0898786
:1037200080E18A8781E18B8788E891E00E94B81662
:103730008E010F5F1F4F6E0128E0C20ED11C0C15C9
:103740001D0561F0F801F1908F0161E08F2D0E945D
:10375000A61860E08F2D0E945A18F1CF7E01FCE080
:10376000EF0EF11C0E151F0539F060E0F801819194
:103770008F010E94A618F6CF61E089E00E945A18D6
:1037800088E991E00E94B81661E08091A2050E944C
:10379000A61860E08091A2050E945A1861E080910D
:1037A000A1050E94A61861E08091A0050E94A618BC
:1037B0002091A00530E0F901E457FA4FE491F0E0E0
:1037C000EE0FFF1FEE57FA4F8591949190939F054E
:1037D00080939E054091A10550E0FA01E457FA4F0D
:1037E0008491E82FF0E0EE0FFF1FEE57FA4F85911E
:1037F000949190939B0580939A05F901E056FA4FB6
:10380000E491E093A805FA01E056FA4FE491E093C1
:10381000A90580919505882379F00E9412168CB530
:103820008C7F8CBD8DB581608DBD8CB58F7D8CBD41
:103830008CB5837F8CBD4EC061E08091A5050E9450
:10384000A61861E08091A3050E94A61860E080910F
:10385000A4050E94A6188091A50590E0FC01E457FC
:10386000FA4FE491F0E0EE0FFF1FEE57FA4FA591EB
:10387000B491B0939905A09398052091A30530E0E9
:10388000F901E457FA4FE491F0E0EE0FFF1FEE5715
:10389000FA4F459154915093970540939605FC013A
:1038A000E056FA4F84918093A705F901E056FA4F4C
:1038B000E491E093A6059C91E82FE095E923EC9331
:1038C000E0919605F091970590818091A6058095ED
:1038D0008923808361E08091A2050E945A1865E0E7
:1038E00070E080E090E00E94F91860E08091A2050D
:1038F0000E945A1864E170E080E090E00E94F9189C
:1039000061E08091A2050E945A1866E970E080E0AB
:1039100090E00E94F9186FEE8AE795E00E947F0719
:1039200063E08AE795E00E945C0760E88AE795E03B
:103930000E945C0762E08AE795E00E945C076FECFA
:103940008AE795E00E947F0760E08AE795E00E94A1
:103950005C0761EC8AE795E00E945C0760E38AE718
:1039600095E00E945C076DEE8AE795E00E947F0774
:1039700064E68AE795E00E945C0763E08AE795E0E9
:103980000E945C0762E18AE795E00E945C0761E8BB
:103990008AE795E00E945C0768EE8AE795E00E945E
:1039A0007F0765E88AE795E00E945C0760E08AE7A8
:1039B00095E00E945C0768E78AE795E00E945C0753
:1039C0006BEC8AE795E00E947F0769E38AE795E060
:1039D0000E945C076CE28AE795E00E945C0760E069
:1039E0008AE795E00E945C0764E38AE795E00E941D
:1039F0005C0762E08AE795E00E945C0767EF8AE770
:103A000095E00E947F0760E28AE795E00E945C07EC
:103A10006AEE8AE795E00E947F0760E08AE795E01A
:103A20000E945C0760E08AE795E00E945C0760EC1A
:103A30008AE795E00E947F0763E28AE795E00E94AB
:103A40005C0761EC8AE795E00E947F0760E18AE706
:103A500095E00E945C0765EC8AE795E00E947F078D
:103A60006EE38AE795E00E945C0768E28AE795E0EA
:103A70000E945C0767EC8AE795E00E947F0766E892
:103A80008AE795E00E945C0766E38AE795E00E947A
:103A90007F0768E48AE795E00E945C076AE38AE7AB
:103AA00095E00E947F0765E58AE795E00E945C0744
:103AB00061EB8AE795E00E947F0760E08AE795E086
:103AC0000E945C0768E18AE795E00E945C0766EB6C
:103AD0008AE795E00E947F0768E08AE795E00E9408
:103AE0005C0762E88AE795E00E945C0767E28AE784
:103AF00095E00E945C0762EF8AE795E00E947F07ED
:103B000060E08AE795E00E945C0766E28AE795E05C
:103B10000E947F0761E08AE795E00E945C0760EE03
:103B20008AE795E00E947F076FE08AE795E00E94B0
:103B30005C0761E38AE795E00E945C076BE28AE735
:103B400095E00E945C076CE08AE795E00E945C07C4
:103B50006EE08AE795E00E945C0768E08AE795E0FE
:103B60000E945C076EE48AE795E00E945C0761EFC3
:103B70008AE795E00E945C0767E38AE795E00E9488
:103B80005C0767E08AE795E00E945C0760E18AE7EE
:103B900095E00E945C0763E08AE795E00E945C077D
:103BA0006EE08AE795E00E945C0769E08AE795E0AD
:103BB0000E945C0760E08AE795E00E945C0761EE86
:103BC0008AE795E00E947F0760E08AE795E00E941F
:103BD0005C076EE08AE795E00E945C0764E18AE793
:103BE00095E00E945C0763E08AE795E00E945C072D
:103BF00061E18AE795E00E945C0767E08AE795E06B
:103C00000E945C0761E38AE795E00E945C0761EC33
:103C10008AE795E00E945C0768E48AE795E00E94E5
:103C20005C0768E08AE795E00E945C076FE08AE73E
:103C300095E00E945C076CE08AE795E00E945C07D3
:103C400061E38AE795E00E945C0766E38AE795E016
:103C50000E945C076FE08AE795E00E945C0761E1E3
:103C60008AE795E00E947F0768E770E080E090E0D7
:103C70000E94F91869E28AE795E00E947F070E9496
:103C800012168CB58C7F81608CBD8DB581608DBD29
:103C900084EB91E00E94B81661E08AE795E00E940B
:103CA000AA076FEF7FEF8AE795E00E94DA03209181
:103CB0008205309183058FEEE82E8BE7F82E03E224
:103CC00010E040E050E060E070E08AE795E00E949C
:103CD0002908009184051091850520918205309175
:103CE0008305A8014253510960E070E08AE795E03E
:103CF0000E942908EE24EA94FE2C0BE410E02EE842
:103D000030E04FE050E06FE570E08AE795E00E9418
:103D1000290820E2E22E2BEFF22E0AE010E025EE39
:103D200030E04AE050E066E670E08AE795E00E9405
:103D30000B130BE010E027EE30E04BE050E063E6C1
:103D400070E08AE795E00E940B130CE010E029EE8A
:103D500030E04CE050E062E670E08AE795E00E94D7
:103D60000B130DE010E02AEE30E04DE050E060E68D
:103D700070E08AE795E00E940B130EE010E02BEE56
:103D800030E04EE050E06FE570E08AE795E00E9499
:103D90000B130FE010E02CEE30E04FE050E06FE549
:103DA00070E08AE795E00E940B1300E110E02DEE31
:103DB00030E040E150E06FE570E08AE795E00E9476
:103DC0000B1301E110E021EE30E041E150E06DE540
:103DD00070E08AE795E00E940B132EEE30E041E19F
:103DE00050E062EE70E08AE795E00E940B1302E17A
:103DF00010E027E630E042E150E06DE570E08AE750
:103E000095E00E940B132EEE30E042E150E066EEAA
:103E100070E08AE795E00E940B1303E110E025E6CD
:103E200030E043E150E06CE570E08AE795E00E9405
:103E30000B132FEE30E043E150E067EE70E08AE7CD
:103E400095E00E940B1304E110E024E630E044E129
:103E500050E06DE570E08AE795E00E940B132FEECD
:103E600030E044E150E068EE70E08AE795E00E94BF
:103E70000B1305E110E023E630E045E150E06CE58E
:103E800070E08AE795E00E940B132FEE30E045E1E9
:103E900050E069EE70E08AE795E00E940B1306E1BE
:103EA00010E022E630E046E150E06CE570E08AE7A1
:103EB00095E00E940B132FEE30E046E150E06AEEF1
:103EC00070E08AE795E00E940B1307E110E022E61C
:103ED00030E047E150E06CE570E08AE795E00E9451
:103EE0000B132FEE30E047E150E06AEE70E08AE716
:103EF00095E00E940B1308E110E022E630E048E173
:103F000050E06AE570E08AE795E00E940B132FEE1F
:103F100030E048E150E06BEE70E08AE795E00E9407
:103F20000B1309E110E022E630E049E150E06AE5D8
:103F300070E08AE795E00E940B13E12CF12C28ED4C
:103F400030E049E150E064ED70E08AE795E00E94DE
:103F50000B1330E2E32E3BEFF32E2FEE30E049E17E
:103F600050E06BEE70E08AE795E00E940B130AE1E7
:103F700010E022E630E04AE150E06AE570E08AE7CE
:103F800095E00E940B13E12CF12C2AED30E04AE180
:103F900050E062ED70E08AE795E00E940B1340E28A
:103FA000E42E4BEFF42E2FEE30E04AE150E06BEEC2
:103FB00070E08AE795E00E940B130BE110E022E627
:103FC00030E04BE150E06AE570E08AE795E00E945E
:103FD0000B13E12CF12C24ED30E04BE150E061EDCE
:103FE00070E08AE795E00E940B132BED30E04BE187
:103FF00050E06AED70E08AE795E00E940B1320EE36
:1040000030E04BE150E06FED70E08AE795E00E9410
:104010000B1350E2E52E5BEFF52E2FEE30E04BE177
:1040200050E06BEE70E08AE795E00E940B130CE124
:1040300010E022E630E04CE150E06AE570E08AE70B
:1040400095E00E940B13E12CF12C22ED30E04CE1C5
:1040500050E060ED70E08AE795E00E940B1321EEDE
:1040600030E04CE150E06FED70E08AE795E00E94AF
:104070000B1360E2E62E6BEFF62E2FEE30E04CE1F4
:1040800050E06BEE70E08AE795E00E940B130DE1C3
:1040900010E022E630E04DE150E06AE570E08AE7AA
:1040A00095E00E940B13E12CF12C22E730E04DE16A
:1040B00050E06CE670E08AE795E00E940B1323E87D
:1040C00030E04DE150E06CE770E08AE795E00E9457
:1040D0000B1323E930E04DE150E06CE870E08AE733
:1040E00095E00E940B1322EA30E04DE150E06BE9CD
:1040F00070E08AE795E00E940B1327EB30E04DE17A
:1041000050E06FEA70E08AE795E00E940B1328EC1C
:1041100030E04DE150E060EC70E08AE795E00E940D
:104120000B1322ED30E04DE150E06FEC70E08AE7D8
:1041300095E00E940B1328ED30E04DE150E066ED74
:1041400070E08AE795E00E940B132CED30E04DE122
:1041500050E06BED70E08AE795E00E940B1322EED1
:1041600030E04DE150E060EE70E08AE795E00E94BB
:104170000B1370E2E72E7BEFF72E2FEE30E04DE1D0
:1041800050E06BEE70E08AE795E00E940B130EE1C1
:1041900010E022E630E04EE150E06AE570E08AE7A8
:1041A00095E00E940B13E12CF12C23E730E04EE167
:1041B00050E06BE670E08AE795E00E940B1325E87B
:1041C00030E04EE150E06AE770E08AE795E00E9457
:1041D0000B1323E930E04EE150E06CE870E08AE731
:1041E00095E00E940B1323EA30E04EE150E06AE9CB
:1041F00070E08AE795E00E940B1329EB30E04EE176
:1042000050E06FEA70E08AE795E00E940B1328EC1B
:1042100030E04EE150E060EC70E08AE795E00E940B
:104220000B1322ED30E04EE150E06FEC70E08AE7D6
:1042300095E00E940B132CED30E04EE150E067ED6D
:1042400070E08AE795E00E940B1323EE30E04EE128
:1042500050E061EE70E08AE795E00E940B13E0E227
:10426000EE2EEBEFFE2E2FEE30E04EE150E06BEE47
:1042700070E08AE795E00E940B130FE110E022E660
:1042800030E04FE150E06AE570E08AE795E00E9497
:104290000B13E12CF12C23E730E04FE150E06AE60C
:1042A00070E08AE795E00E940B1326E830E04FE1CA
:1042B00050E069E770E08AE795E00E940B1323E97C
:1042C00030E04FE150E06BE870E08AE795E00E9453
:1042D0000B1324EA30E04FE150E069E970E08AE72F
:1042E00095E00E940B132AEB30E04FE150E06FEABB
:1042F00070E08AE795E00E940B1328EC30E04FE174
:1043000050E060EC70E08AE795E00E940B1322ED2C
:1043100030E04FE150E06FEC70E08AE795E00E94FA
:104320000B132BED30E04FE150E069ED70E08AE7D0
:1043300095E00E940B1323EE30E04FE150E061EE78
:1043400070E08AE795E00E940B13F0E2EF2EFBEF9E
:10435000FF2E2FEE30E04FE150E06BEE70E08AE789
:1043600095E00E940B1300E210E022E630E040E20C
:1043700050E06AE570E08AE795E00E940B13E12CBB
:10438000F12C2EE630E040E250E06AE670E08AE789
:1043900095E00E940B1322E730E040E250E061E735
:1043A00070E08AE795E00E940B1326E830E040E2D7
:1043B00050E068E770E08AE795E00E940B132FE871
:1043C00030E040E250E06BE870E08AE795E00E9460
:1043D0000B1325EA30E040E250E068E970E08AE73C
:1043E00095E00E940B132BEB30E040E250E06FEAC7
:1043F00070E08AE795E00E940B1325EC30E040E284
:1044000050E060EC70E08AE795E00E940B1322ED2B
:1044100030E040E250E060ED70E08AE795E00E9415
:104420000B1324EE30E040E250E061EE70E08AE7EA
:1044300095E00E940B13A0E2EA2EABEFFA2E2FEECE
:1044400030E040E250E06BEE70E08AE795E00E94D9
:104450000B1301E210E022E630E041E250E06AE5B1
:1044600070E08AE795E00E940B13E12CF12C2DE619
:1044700030E041E250E06AE670E08AE795E00E94B1
:104480000B132CE730E041E250E068E770E08AE788
:1044900095E00E940B1327E830E041E250E062E82B
:1044A00070E08AE795E00E940B132EE830E041E2CD
:1044B00050E06BE870E08AE795E00E940B132BE96F
:1044C00030E041E250E067E970E08AE795E00E9461
:1044D0000B1325EA30E041E250E062EA70E08AE73F
:1044E00095E00E940B1322EB30E041E250E06FEACE
:1044F00070E08AE795E00E940B132CEB30E041E27C
:1045000050E067EB70E08AE795E00E940B1323EC24
:1045100030E041E250E060EC70E08AE795E00E9414
:104520000B1322ED30E041E250E060ED70E08AE7ED
:1045300095E00E940B1324EE30E041E250E061EE82
:1045400070E08AE795E00E940B13B0E2EB2EBBEF20
:10455000FB2E2FEE30E041E250E06BEE70E08AE798
:1045600095E00E940B1302E210E022E630E042E206
:1045700050E06AE570E08AE795E00E940B13E12CB9
:10458000F12C2EE630E042E250E06AE670E08AE785
:1045900095E00E940B132BE730E042E250E067E722
:1045A00070E08AE795E00E940B1327E830E042E2D2
:1045B00050E064E870E08AE795E00E940B132EE873
:1045C00030E042E250E06BE870E08AE795E00E945C
:1045D0000B132AE930E042E250E067E970E08AE735
:1045E00095E00E940B1322EB30E042E250E06FEACC
:1045F00070E08AE795E00E940B132CEB30E042E27A
:1046000050E068EB70E08AE795E00E940B1323EC22
:1046100030E042E250E060EC70E08AE795E00E9412
:104620000B1322ED30E042E250E060ED70E08AE7EB
:1046300095E00E940B132BED30E042E250E06AED72
:1046400070E08AE795E00E940B1323EE30E042E22F
:1046500050E061EE70E08AE795E00E940B1380E283
:10466000E82E8BEFF82E2FEE30E042E250E06BEEBA
:1046700070E08AE795E00E940B1303E210E022E667
:1046800030E043E250E06AE570E08AE795E00E949E
:104690000B13E12CF12C21E730E043E250E06AE615
:1046A00070E08AE795E00E940B132BE730E043E2CD
:1046B00050E067E770E08AE795E00E940B1328E876
:1046C00030E043E250E064E870E08AE795E00E9461
:1046D0000B1323E930E043E250E06BE870E08AE737
:1046E00095E00E940B132AE930E043E250E067E9CD
:1046F00070E08AE795E00E940B1322EB30E043E282
:1047000050E06FEA70E08AE795E00E940B132CEB13
:1047100030E043E250E069EB70E08AE795E00E9408
:104720000B1327EC30E043E250E060EC70E08AE7E6
:1047300095E00E940B1322ED30E043E250E060ED83
:1047400070E08AE795E00E940B132BED30E043E226
:1047500050E068ED70E08AE795E00E940B1322EECE
:1047600030E043E250E060EE70E08AE795E00E94BE
:104770000B1390E2E92E9BEFF92E2FEE30E043E28F
:1047800050E06BEE70E08AE795E00E940B1304E2C4
:1047900010E022E630E044E250E06AE570E08AE7AB
:1047A00095E00E940B13E12CF12C22E730E044E26B
:1047B00050E06AE670E08AE795E00E940B132AE772
:1047C00030E044E250E067E770E08AE795E00E945D
:1047D0000B1328E830E044E250E065E870E08AE737
:1047E00095E00E940B1323E930E044E250E06BE8CF
:1047F00070E08AE795E00E940B132AE930E044E27A
:1048000050E066E970E08AE795E00E940B1326EA23
:1048100030E044E250E06FE970E08AE795E00E9402
:104820000B1322EB30E044E250E06FEA70E08AE7DD
:1048300095E00E940B132CEB30E044E250E069EB72
:1048400070E08AE795E00E940B1327EC30E044E229
:1048500050E060EC70E08AE795E00E940B1322EDD7
:1048600030E044E250E060ED70E08AE795E00E94BD
:104870000B132AED30E044E250E068ED70E08AE787
:1048800095E00E940B1322EE30E044E250E06EED22
:1048900070E08AE795E00E940B1320E2E22E2BEFF6
:1048A000F22E2FEE30E044E250E06BEE70E08AE74B
:1048B00095E00E940B1305E210E022E630E045E2AD
:1048C00050E06AE570E08AE795E00E940B13E12C66
:1048D000F12C23E730E045E250E06AE670E08AE739
:1048E00095E00E940B132AE730E045E250E067E7CD
:1048F00070E08AE795E00E940B1328E830E045E27B
:1049000050E065E870E08AE795E00E940B1323E928
:1049100030E045E250E06BE870E08AE795E00E9405
:104920000B132AE930E045E250E066E970E08AE7DF
:1049300095E00E940B1326EA30E045E250E06FE973
:1049400070E08AE795E00E940B1322EB30E045E22D
:1049500050E06FEA70E08AE795E00E940B132CEBC1
:1049600030E045E250E069EB70E08AE795E00E94B4
:104970000B1327EC30E045E250E060EC70E08AE792
:1049800095E00E940B1322ED30E045E250E060ED2F
:1049900070E08AE795E00E940B1329ED30E045E2D4
:1049A00050E067ED70E08AE795E00E940B1321EE7E
:1049B00030E045E250E06FED70E08AE795E00E945C
:1049C0000B1330E2E32E3BEFF32E2FEE30E045E207
:1049D00050E06BEE70E08AE795E00E940B1306E270
:1049E00010E022E630E046E250E06AE570E08AE757
:1049F00095E00E940B13E12CF12C24E730E046E215
:104A000050E06EE670E08AE795E00E940B132AE71B
:104A100030E046E250E067E770E08AE795E00E9408
:104A20000B1328E830E046E250E064E870E08AE7E3
:104A300095E00E940B132FE830E046E250E06BE86F
:104A400070E08AE795E00E940B132AE930E046E225
:104A500050E067E970E08AE795E00E940B1326EAD0
:104A600030E046E250E06FE970E08AE795E00E94AE
:104A70000B1322EB30E046E250E06FEA70E08AE789
:104A800095E00E940B132CEB30E046E250E069EB1E
:104A900070E08AE795E00E940B1325EC30E046E2D7
:104AA00050E060EC70E08AE795E00E940B1323ED84
:104AB00030E046E250E061ED70E08AE795E00E9468
:104AC0000B1329ED30E046E250E067ED70E08AE735
:104AD00095E00E940B1321EE30E046E250E06FEDCE
:104AE00070E08AE795E00E940B1340E2E42E4BEF62
:104AF000F42E2FEE30E046E250E06BEE70E08AE7F5
:104B000095E00E940B1307E210E022E630E047E256
:104B100050E06AE570E08AE795E00E940B13E12C13
:104B2000F12C24E730E047E250E060E770E08AE7EC
:104B300095E00E940B132BE730E047E250E067E777
:104B400070E08AE795E00E940B1327E830E047E227
:104B500050E064E870E08AE795E00E940B132EE8CD
:104B600030E047E250E06BE870E08AE795E00E94B1
:104B70000B132AE930E047E250E067E970E08AE78A
:104B800095E00E940B1320EA30E047E250E06FE925
:104B900070E08AE795E00E940B1326EA30E047E2D6
:104BA00050E061EA70E08AE795E00E940B1322EB87
:104BB00030E047E250E06FEA70E08AE795E00E945B
:104BC0000B132CEB30E047E250E068EB70E08AE733
:104BD00095E00E940B1323EC30E047E250E060ECDC
:104BE00070E08AE795E00E940B1323ED30E047E286
:104BF00050E061ED70E08AE795E00E940B132BED29
:104C000030E047E250E067ED70E08AE795E00E940F
:104C10000B1321EE30E047E250E06FED70E08AE7E1
:104C200095E00E940B1350E2E52E5BEFF52E2FEE80
:104C300030E047E250E06BEE70E08AE795E00E94DA
:104C40000B1308E210E022E630E048E250E06AE5AB
:104C500070E08AE795E00E940B13E12CF12C24E729
:104C600030E048E250E061E770E08AE795E00E94BA
:104C70000B132CE730E048E250E068E770E08AE789
:104C800095E00E940B1327E830E048E250E063E82B
:104C900070E08AE795E00E940B132EE830E048E2CE
:104CA00050E06BE870E08AE795E00E940B132BE977
:104CB00030E048E250E067E970E08AE795E00E9462
:104CC0000B1325EA30E048E250E062EA70E08AE740
:104CD00095E00E940B1322EB30E048E250E06FEACF
:104CE00070E08AE795E00E940B132BEB30E048E27E
:104CF00050E067EB70E08AE795E00E940B1323EC2D
:104D000030E048E250E060EC70E08AE795E00E9415
:104D10000B1323ED30E048E250E061ED70E08AE7EC
:104D200095E00E940B132BED30E048E250E067ED78
:104D300070E08AE795E00E940B1321EE30E048E234
:104D400050E06FED70E08AE795E00E940B1360E29F
:104D5000E62E6BEFF62E2FEE30E048E250E06BEEE1
:104D600070E08AE795E00E940B1309E210E022E66A
:104D700030E049E250E06AE570E08AE795E00E94A1
:104D80000B13E12CF12C2DE630E049E250E06AE60D
:104D900070E08AE795E00E940B1324E730E049E2D7
:104DA00050E060E770E08AE795E00E940B132EE781
:104DB00030E049E250E068E770E08AE795E00E9461
:104DC0000B1326E830E049E250E061E870E08AE742
:104DD00095E00E940B132EE830E049E250E06BE8CA
:104DE00070E08AE795E00E940B132CE930E049E27D
:104DF00050E068E970E08AE795E00E940B1325EA2D
:104E000030E049E250E061EA70E08AE795E00E9414
:104E10000B1323EB30E049E250E06FEA70E08AE7E1
:104E200095E00E940B132BEB30E049E250E066EB7B
:104E300070E08AE795E00E940B1323EC30E049E232
:104E400050E060EC70E08AE795E00E940B1323EDE0
:104E500030E049E250E061ED70E08AE795E00E94C1
:104E60000B1328ED30E049E250E066ED70E08AE790
:104E700095E00E940B132BED30E049E250E069ED24
:104E800070E08AE795E00E940B1321EE30E049E2E2
:104E900050E06FED70E08AE795E00E940B1370E23E
:104EA000E72E7BEFF72E2FEE30E049E250E06BEE7D
:104EB00070E08AE795E00E940B130AE210E022E618
:104EC00030E04AE250E06AE570E08AE795E00E944F
:104ED0000B13E12CF12C23E730E04AE250E06AE6C4
:104EE00070E08AE795E00E940B1326E830E04AE282
:104EF00050E069E770E08AE795E00E940B132EE826
:104F000030E04AE250E06BE870E08AE795E00E940A
:104F10000B1324EA30E04AE250E068E970E08AE7E7
:104F200095E00E940B132AEB30E04AE250E06FEA72
:104F300070E08AE795E00E940B1328EC30E04AE22B
:104F400050E060EC70E08AE795E00E940B1323EDDF
:104F500030E04AE250E061ED70E08AE795E00E94BF
:104F60000B1328ED30E04AE250E066ED70E08AE78E
:104F700095E00E940B132CED30E04AE250E069ED21
:104F800070E08AE795E00E940B1321EE30E04AE2E0
:104F900050E06FED70E08AE795E00E940B13E0E2CD
:104FA000EE2EEBEFFE2E2FEE30E04AE250E06BEEFD
:104FB00070E08AE795E00E940B130BE210E022E616
:104FC00030E04BE250E06AE570E08AE795E00E944D
:104FD0000B13E12CF12C23E730E04BE250E06AE6C2
:104FE00070E08AE795E00E940B1325E830E04BE281
:104FF00050E06AE770E08AE795E00E940B132EE824
:1050000030E04BE250E06BE870E08AE795E00E9408
:105010000B1324EA30E04BE250E069E970E08AE7E4
:1050200095E00E940B132BEA30E04BE250E069EA76
:1050300070E08AE795E00E940B1329EB30E04BE229
:1050400050E06FEA70E08AE795E00E940B1328ECCD
:1050500030E04BE250E060EC70E08AE795E00E94BF
:105060000B1323ED30E04BE250E061ED70E08AE796
:1050700095E00E940B1328ED30E04BE250E066ED26
:1050800070E08AE795E00E940B132CED30E04BE2D4
:1050900050E06BED70E08AE795E00E940B1322EE82
:1050A00030E04BE250E06FED70E08AE795E00E945F
:1050B0000B13F0E2EF2EFBEFFF2E2FEE30E04BE272
:1050C00050E06BEE70E08AE795E00E940B130CE273
:1050D00010E022E630E04CE250E06AE570E08AE75A
:1050E00095E00E940B13E12CF12C23E730E04CE219
:1050F00050E06AE670E08AE795E00E940B1324E82E
:1051000030E04CE250E06BE770E08AE795E00E9407
:105110000B132EE830E04CE250E06CE870E08AE7D8
:1051200095E00E940B1322EA30E04CE250E06BE97C
:1051300070E08AE795E00E940B132BEA30E04CE226
:1051400050E069EA70E08AE795E00E940B1327EBD4
:1051500030E04CE250E06FEA70E08AE795E00E94B0
:105160000B1328EC30E04CE250E060EC70E08AE792
:1051700095E00E940B1323ED30E04CE250E062ED2D
:1051800070E08AE795E00E940B1328ED30E04CE2D6
:1051900050E066ED70E08AE795E00E940B132DED7C
:1051A00030E04CE250E06CED70E08AE795E00E9460
:1051B0000B1322EE30E04CE250E060EE70E08AE744
:1051C00095E00E940B13A0E2EA2EABEFFA2E2FEE31
:1051D00030E04CE250E06BEE70E08AE795E00E9430
:1051E0000B130DE210E022E630E04DE250E06AE5FC
:1051F00070E08AE795E00E940B13E12CF12C21E787
:1052000030E04DE250E06BE670E08AE795E00E9406
:105210000B1322E830E04DE250E06EE770E08AE7E1
:1052200095E00E940B1320EA30E04DE250E06DE97A
:1052300070E08AE795E00E940B1324ED30E04DE228
:1052400050E062ED70E08AE795E00E940B1328EDD4
:1052500030E04DE250E065ED70E08AE795E00E94B5
:105260000B1322EE30E04DE250E06DED70E08AE786
:1052700095E00E940B13B0E2EB2EBBEFFB2E2FEE5E
:1052800030E04DE250E06BEE70E08AE795E00E947E
:105290000B130EE210E022E630E04EE250E06AE549
:1052A00070E08AE795E00E940B13E12CF12C28EDC9
:1052B00030E04EE250E063ED70E08AE795E00E9456
:1052C0000B1322EE30E04EE250E06EED70E08AE724
:1052D00095E00E940B1380E2E82E8BEFF82E2FEE64
:1052E00030E04EE250E06BEE70E08AE795E00E941D
:1052F0000B130FE210E022E630E04FE250E06AE5E7
:1053000070E08AE795E00E940B13E12CF12C28ED68
:1053100030E04FE250E064ED70E08AE795E00E94F3
:105320000B1321EE30E04FE250E06FED70E08AE7C2
:1053300095E00E940B1390E2E92E9BEFF92E2FEEE1
:1053400030E04FE250E06BEE70E08AE795E00E94BB
:105350000B1300E310E022E630E040E350E06AE5A2
:1053600070E08AE795E00E940B13E12CF12C28ED08
:1053700030E040E350E065ED70E08AE795E00E94A0
:105380000B1320E2E22E2BEFF22E2FEE30E040E363
:1053900050E06BEE70E08AE795E00E940B1301E3AA
:1053A00010E022E630E041E350E06AE570E08AE791
:1053B00095E00E940B132FEE30E041E350E06BEEDE
:1053C00070E08AE795E00E940B1302E310E022E60A
:1053D00030E042E350E06CE570E08AE795E00E943F
:1053E0000B132FEE30E042E350E06AEE70E08AE704
:1053F00095E00E940B1303E310E022E630E043E364
:1054000050E06CE570E08AE795E00E940B132FEE08
:1054100030E043E350E06BEE70E08AE795E00E94F5
:105420000B1304E310E023E630E044E350E06CE5C6
:1054300070E08AE795E00E940B132FEE30E044E322
:1054400050E06AEE70E08AE795E00E940B1305E3F6
:1054500010E024E630E045E350E06DE570E08AE7D7
:1054600095E00E940B132FEE30E045E350E069EE2B
:1054700070E08AE795E00E940B1306E310E025E652
:1054800030E046E350E06DE570E08AE795E00E9489
:105490000B132EEE30E046E350E068EE70E08AE752
:1054A00095E00E940B1307E310E026E630E047E3A7
:1054B00050E06EE570E08AE795E00E940B132EEE57
:1054C00030E047E350E067EE70E08AE795E00E9445
:1054D0000B1308E310E028E630E048E350E06EE507
:1054E00070E08AE795E00E940B132DEE30E048E370
:1054F00050E064EE70E08AE795E00E940B1309E348
:1055000010E02CEE30E049E350E06FE570E08AE710
:1055100095E00E940B130AE310E02BEE30E04AE323
:1055200050E060E670E08AE795E00E940B130BE321
:1055300010E02AEE30E04BE350E061E670E08AE7ED
:1055400095E00E940B130CE310E029EE30E04CE3F1
:1055500050E062E670E08AE795E00E940B130DE3ED
:1055600010E027EE30E04DE350E064E670E08AE7BB
:1055700095E00E940B138EE190E090938705809355
:1055800086058AEA90E0909389058093880582E0F9
:1055900080938E0510928D0510928C0510928B05CC
:1055A00010928A0567EC71E08AE795E00E94FB1A89
:1055B0000E942B0D60E087E00E945A1864EF71E0B2
:1055C00080E090E00E94F91860E086E00E945A189E
:1055D00064EF71E080E090E00E94F91860E085E0FF
:1055E0000E945A1864EF71E080E090E00E94F91880
:1055F00060E084E00E945A1864EF71E080E090E07F
:105600000E94F91861E084E00E945A1861E087E086
:105610000E945A1861E086E00E945A1861E085E015
:105620000E945A181092FD031092FC036DEC71E079
:1056300083EC94E00E94FB1A38EEC32E33E0D32EA5
:10564000E12CF12C4CE3A42EB12C01E010E081E020
:105650000E94B60B0E94170B1092FB031092FA03E4
:105660008091FA039091FB03892B09F072C020917D
:10567000F2033091F3034091F4035091F5036091EC
:10568000F6037091F7038091F8039091F9030E945B
:10569000D32E2B013C0120E030E040E85FE3609135
:1056A000EE037091EF038091F0039091F1030E945B
:1056B000032D9B01AC01C301B2010E94D32E0E94B5
:1056C000E62D7093FF036093FE030E942B0D209143
:1056D000F2033091F3034091F4035091F50360918C
:1056E000F6037091F7038091F8039091F9030E94FB
:1056F000D32E2B013C0120E030E040E85FE36091D5
:10570000EE037091EF038091F0039091F1030E94FA
:10571000032D9B01AC01C301B2010E94D32E2B01CA
:105720003C016091FE037091FF03072E000C880B73
:10573000990B0E941E2E9B01AC01C301B2010E9475
:105740006F2D81110E94170B0E94300C0E940F0ACE
:1057500087CF64EF71E080E090E00E94F91810922A
:10576000FB031092FA0382E00E94B60B6091F203F1
:105770007091F3038091F4039091F5030E94E62D5C
:10578000DC01CB0160E070E00E948F0A8091EC03A5
:105790009091ED03892B49F18091FA039091FB03DD
:1057A000019719F185EE91E00E94B8160E94300C25
:1057B0000E940F0A80E090E00E947D0981329340B0
:1057C0002CF01093FB030093FA0304C01092FB0328
:1057D0001092FA0368E873E180E090E00E94F91803
:1057E0001092ED031092EC03D1CF83E00E94B60B30
:1057F0000E9433190E941C2E2B013C0120E030E056
:1058000040E752E46091F2037091F3038091F40356
:105810009091F5030E94D32E20E030E04AE754E453
:105820000E94D32E9B01AC01C301B2010E94032D43
:105830000E94ED2D2B013C010E9433196415750562
:105840008605970530F48091FA039091FB03019748
:10585000C1F480E090E00E94D1098091FA03909118
:10586000FB03892B09F0F3CE60E087E00E945A1811
:1058700060E086E00E945A1860E085E00E945A18B5
:10588000E6CE8CE092E00E94B8166091EE03709133
:10589000EF038091F0039091F1030E94E62DCB017C
:1058A0000E94D1090E943319A3019201261B370BD4
:1058B000480B590BCA01B901A70196010E94592F43
:1058C000C901B5010E94452F9B01BC01C9010E947D
:1058D0008F0A60E273E080E090E00E94F9180E9475
:1058E000300C0E940F0A80E090E00E947D09813216
:1058F00093402CF01093FB030093FA039DCF10927A
:10590000FB031092FA0398CF0895E3ECF4E01382BE
:10591000128288EE93E0A0E0B0E084839583A683B2
:10592000B78321E131E03183208325EC30E03587F6
:10593000248724EC30E03787268720EC30E0318B59
:10594000208B21EC30E0338B228B22EC30E0358B46
:10595000248B26EC30E0378B268B118E128E138E23
:10596000148EE0E6F5E01382128284839583A68389
:10597000B78383E291E091838083EAE7F5E01382C5
:10598000128220EF30E03583248380E491E0978316
:1059900086833187208793878287158A15861486A8
:1059A0001786168681E0848B2FEF3FEF338B228B97
:1059B000318B208B868B178A118E108E21E531E07A
:1059C000318320839AE096A398E097A391E190A772
:1059D000838F13A611A6ECE6F5E085E391E09183B1
:1059E000808389E38383148215821782168211864D
:1059F000108689E390E3A0E0B0E082879387A487D4
:105A0000B58708955058BB27AA270E941A2D0C94D9
:105A1000942E0E94862E38F00E948D2E20F039F4AC
:105A20009F3F19F426F40C94832E0EF4E095E7FBC7
:105A30000C947D2EE92F0E94A52E58F3BA17620709
:105A400073078407950720F079F4A6F50C94C72E08
:105A50000EF4E0950B2EBA2FA02D0B01B901900189
:105A60000C01CA01A0011124FF27591B99F0593FCD
:105A700050F4503E68F11A16F040A22F232F342F15
:105A80004427585FF3CF469537952795A795F04063
:105A90005395C9F77EF41F16BA0B620B730B840B78
:105AA000BAF09150A1F0FF0FBB1F661F771F881F30
:105AB000C2F70EC0BA0F621F731F841F48F4879588
:105AC00077956795B795F7959E3F08F0B0CF93957A
:105AD000880F08F09927EE0F9795879508950E94F3
